{"contracts/BananaAllocator.sol":{"BananaAllocator":{"abi":[{"anonymous":false,"inputs":[{"indexed":false,"internalType":"uint256","name":"farmPid","type":"uint256"},{"indexed":false,"internalType":"address","name":"toAddress","type":"address"},{"indexed":false,"internalType":"enum BananaAllocator.ActionId","name":"actionId","type":"uint8"},{"indexed":false,"internalType":"uint256","name":"chainId","type":"uint256"},{"indexed":false,"internalType":"uint256","name":"minimumBanana","type":"uint256"}],"name":"AddedBananaRoute","type":"event"},{"anonymous":false,"inputs":[{"indexed":false,"internalType":"uint256","name":"pid","type":"uint256"},{"indexed":false,"internalType":"uint256","name":"newMinimum","type":"uint256"}],"name":"ChangedBananaMinimum","type":"event"},{"anonymous":false,"inputs":[{"indexed":false,"internalType":"uint8","name":"version","type":"uint8"}],"name":"Initialized","type":"event"},{"anonymous":false,"inputs":[{"indexed":false,"internalType":"uint256","name":"pid","type":"uint256"},{"indexed":false,"internalType":"uint256","name":"amount","type":"uint256"},{"indexed":false,"internalType":"address","name":"to","type":"address"},{"indexed":false,"internalType":"uint256","name":"chainId","type":"uint256"}],"name":"MovedBanana","type":"event"},{"anonymous":false,"inputs":[{"indexed":true,"internalType":"address","name":"previousOwner","type":"address"},{"indexed":true,"internalType":"address","name":"newOwner","type":"address"}],"name":"OwnershipTransferred","type":"event"},{"anonymous":false,"inputs":[],"name":"RefusedNativeSweep","type":"event"},{"anonymous":false,"inputs":[{"indexed":false,"internalType":"uint256","name":"pid","type":"uint256"}],"name":"RemovedBananaRoute","type":"event"},{"anonymous":false,"inputs":[{"indexed":true,"internalType":"address","name":"receiver","type":"address"},{"components":[{"internalType":"contract IERC721","name":"nftaddress","type":"address"},{"internalType":"uint256[]","name":"ids","type":"uint256[]"}],"indexed":true,"internalType":"struct SweeperUpgradeable.NFT[]","name":"nfts","type":"tuple[]"}],"name":"SweepWithdrawNFTs","type":"event"},{"anonymous":false,"inputs":[{"indexed":true,"internalType":"address","name":"receiver","type":"address"},{"indexed":false,"internalType":"uint256","name":"balance","type":"uint256"}],"name":"SweepWithdrawNative","type":"event"},{"anonymous":false,"inputs":[{"indexed":true,"internalType":"address","name":"receiver","type":"address"},{"indexed":true,"internalType":"contract IERC20Upgradeable","name":"token","type":"address"},{"indexed":false,"internalType":"uint256","name":"balance","type":"uint256"}],"name":"SweepWithdrawToken","type":"event"},{"inputs":[{"internalType":"uint256","name":"farmPid","type":"uint256"},{"internalType":"address","name":"toAddress","type":"address"},{"internalType":"enum BananaAllocator.ActionId","name":"actionId","type":"uint8"},{"internalType":"uint256","name":"chainId","type":"uint256"},{"internalType":"uint256","name":"minimumBanana","type":"uint256"}],"name":"addBananaRoute","outputs":[],"stateMutability":"nonpayable","type":"function"},{"inputs":[],"name":"allowNativeSweep","outputs":[{"internalType":"bool","name":"","type":"bool"}],"stateMutability":"view","type":"function"},{"inputs":[],"name":"anyBanana","outputs":[{"internalType":"address","name":"","type":"address"}],"stateMutability":"view","type":"function"},{"inputs":[],"name":"anyswapRouter","outputs":[{"internalType":"contract IAnyswapV4Router","name":"","type":"address"}],"stateMutability":"view","type":"function"},{"inputs":[],"name":"bananaRoutesLength","outputs":[{"internalType":"uint256","name":"","type":"uint256"}],"stateMutability":"view","type":"function"},{"inputs":[],"name":"bananaToken","outputs":[{"internalType":"contract IERC20","name":"","type":"address"}],"stateMutability":"view","type":"function"},{"inputs":[{"internalType":"uint256","name":"pid","type":"uint256"},{"internalType":"uint256","name":"newMinimum","type":"uint256"}],"name":"changeMinimumBanana","outputs":[],"stateMutability":"nonpayable","type":"function"},{"inputs":[{"internalType":"uint256","name":"pid","type":"uint256"}],"name":"emergencyUnstakeFarm","outputs":[],"stateMutability":"nonpayable","type":"function"},{"inputs":[{"internalType":"uint256","name":"index","type":"uint256"}],"name":"getBananaRouteAtIndex","outputs":[{"internalType":"uint256","name":"pid","type":"uint256"},{"components":[{"internalType":"address","name":"toAddress","type":"address"},{"internalType":"enum BananaAllocator.ActionId","name":"actionId","type":"uint8"},{"internalType":"uint256","name":"chainId","type":"uint256"},{"internalType":"uint256","name":"minimumBanana","type":"uint256"}],"internalType":"struct BananaAllocator.BananaRoute","name":"bananaRoute","type":"tuple"}],"stateMutability":"view","type":"function"},{"inputs":[{"internalType":"uint256","name":"","type":"uint256"}],"name":"getBananaRouteFromPid","outputs":[{"internalType":"address","name":"toAddress","type":"address"},{"internalType":"enum BananaAllocator.ActionId","name":"actionId","type":"uint8"},{"internalType":"uint256","name":"chainId","type":"uint256"},{"internalType":"uint256","name":"minimumBanana","type":"uint256"}],"stateMutability":"view","type":"function"},{"inputs":[{"internalType":"contract IMasterApeV2","name":"_masterApe","type":"address"},{"internalType":"contract IERC20","name":"_bananaToken","type":"address"},{"internalType":"address","name":"_anyBanana","type":"address"},{"internalType":"contract IAnyswapV4Router","name":"_anyswapRouter","type":"address"}],"name":"initialize","outputs":[],"stateMutability":"nonpayable","type":"function"},{"inputs":[{"internalType":"address","name":"token","type":"address"}],"name":"lockToken","outputs":[],"stateMutability":"nonpayable","type":"function"},{"inputs":[{"internalType":"address[]","name":"tokens","type":"address[]"}],"name":"lockTokens","outputs":[],"stateMutability":"nonpayable","type":"function"},{"inputs":[{"internalType":"address","name":"","type":"address"}],"name":"lockedTokens","outputs":[{"internalType":"bool","name":"","type":"bool"}],"stateMutability":"view","type":"function"},{"inputs":[],"name":"masterApe","outputs":[{"internalType":"contract IMasterApeV2","name":"","type":"address"}],"stateMutability":"view","type":"function"},{"inputs":[{"internalType":"bool","name":"revert_","type":"bool"}],"name":"moveBananaAll","outputs":[],"stateMutability":"nonpayable","type":"function"},{"inputs":[{"internalType":"uint256","name":"index","type":"uint256"}],"name":"moveBananaIndex","outputs":[],"stateMutability":"nonpayable","type":"function"},{"inputs":[{"internalType":"uint256","name":"pid","type":"uint256"}],"name":"moveBananaPid","outputs":[],"stateMutability":"nonpayable","type":"function"},{"inputs":[{"internalType":"uint256[]","name":"pids","type":"uint256[]"},{"internalType":"bool","name":"revert_","type":"bool"}],"name":"moveBananaPids","outputs":[],"stateMutability":"nonpayable","type":"function"},{"inputs":[],"name":"owner","outputs":[{"internalType":"address","name":"","type":"address"}],"stateMutability":"view","type":"function"},{"inputs":[],"name":"refuseNativeSweep","outputs":[],"stateMutability":"nonpayable","type":"function"},{"inputs":[{"internalType":"uint256","name":"pid","type":"uint256"}],"name":"removeBananaRoutePid","outputs":[],"stateMutability":"nonpayable","type":"function"},{"inputs":[],"name":"renounceOwnership","outputs":[],"stateMutability":"nonpayable","type":"function"},{"inputs":[{"internalType":"uint256","name":"pid","type":"uint256"}],"name":"stakeFarm","outputs":[],"stateMutability":"nonpayable","type":"function"},{"inputs":[{"components":[{"internalType":"contract IERC721","name":"nftaddress","type":"address"},{"internalType":"uint256[]","name":"ids","type":"uint256[]"}],"internalType":"struct SweeperUpgradeable.NFT[]","name":"nfts","type":"tuple[]"},{"internalType":"address","name":"to","type":"address"}],"name":"sweepNFTs","outputs":[],"stateMutability":"nonpayable","type":"function"},{"inputs":[{"internalType":"address payable","name":"_to","type":"address"}],"name":"sweepNative","outputs":[],"stateMutability":"nonpayable","type":"function"},{"inputs":[{"internalType":"contract IERC20Upgradeable[]","name":"tokens","type":"address[]"},{"internalType":"address","name":"to","type":"address"}],"name":"sweepTokens","outputs":[],"stateMutability":"nonpayable","type":"function"},{"inputs":[{"internalType":"contract IERC20Upgradeable[]","name":"tokens","type":"address[]"},{"components":[{"internalType":"contract IERC721","name":"nftaddress","type":"address"},{"internalType":"uint256[]","name":"ids","type":"uint256[]"}],"internalType":"struct SweeperUpgradeable.NFT[]","name":"nfts","type":"tuple[]"},{"internalType":"address","name":"to","type":"address"}],"name":"sweepTokensAndNFTs","outputs":[],"stateMutability":"nonpayable","type":"function"},{"inputs":[{"internalType":"address","name":"newOwner","type":"address"}],"name":"transferOwnership","outputs":[],"stateMutability":"nonpayable","type":"function"},{"inputs":[{"internalType":"uint256","name":"pid","type":"uint256"}],"name":"unstakeFarm","outputs":[],"stateMutability":"nonpayable","type":"function"}],"devdoc":{"kind":"dev","methods":{"addBananaRoute(uint256,address,uint8,uint256,uint256)":{"params":{"actionId":"action id","chainId":"chain id for cross chain banana transfers","farmPid":"farm pid","minimumBanana":"minimum banana collected to activate banana transfer","toAddress":"address the banana should transfer to"}},"changeMinimumBanana(uint256,uint256)":{"params":{"newMinimum":"new banana minimum","pid":"pid of farm"}},"emergencyUnstakeFarm(uint256)":{"params":{"pid":"pid of farm to unstake from"}},"getBananaRouteAtIndex(uint256)":{"params":{"index":"of bananaRoutes to pull"},"returns":{"bananaRoute":"BananaRoute struct details","pid":"MasterApe pid of this route"}},"lockToken(address)":{"details":"Lock single token so it can't be transferred from the contract. Once locked it can't be unlocked"},"lockTokens(address[])":{"details":"Lock multiple tokens so they can't be transferred from the contract. Once locked they can't be unlocked"},"moveBananaAll(bool)":{"params":{"revert_":"revert if one fails"}},"moveBananaIndex(uint256)":{"params":{"index":"index of banana route to move banana"}},"moveBananaPid(uint256)":{"params":{"pid":"farm pid of banana route to move banana"}},"moveBananaPids(uint256[],bool)":{"params":{"pids":"farm pids of banana route to move banana","revert_":"revert if one fails"}},"owner()":{"details":"Returns the address of the current owner."},"refuseNativeSweep()":{"details":"Refuse native sweep. Once refused can't be allowed again"},"removeBananaRoutePid(uint256)":{"params":{"pid":"pid of banana route to remove"}},"renounceOwnership()":{"details":"Leaves the contract without owner. It will not be possible to call `onlyOwner` functions anymore. Can only be called by the current owner. NOTE: Renouncing ownership will leave the contract without an owner, thereby removing any functionality that is only available to the owner."},"stakeFarm(uint256)":{"params":{"pid":"pid of farm to stake in"}},"sweepNFTs((address,uint256[])[],address)":{"details":"Transfers NFT to specified address Only owner of contract can call this function"},"sweepNative(address)":{"params":{"_to":"address the native coins should be transferred to"}},"sweepTokens(address[],address)":{"details":"Transfers erc20 tokens to specified address Only owner of contract can call this function"},"transferOwnership(address)":{"details":"Transfers ownership of the contract to a new account (`newOwner`). Can only be called by the current owner."},"unstakeFarm(uint256)":{"params":{"pid":"pid of farm to unstake from"}}},"version":1},"evm":{"bytecode":{"linkReferences":{},"object":"608060405234801561001057600080fd5b50614b04806100206000396000f3fe608060405234801561001057600080fd5b50600436106101da5760003560e01c806378c093cf11610104578063af67be5f116100a2578063e7abd78711610071578063e7abd787146104df578063f2fde38b146104fd578063f611b38b14610519578063f8c8765e14610535576101da565b8063af67be5f14610456578063d911933014610474578063df9a6a8e14610490578063dfed7de4146104ac576101da565b806380e63cbe116100de57806380e63cbe146103e05780638ca576c8146103fc5780638da5cb5b1461041a5780639a3eb6e914610438576101da565b806378c093cf1461038c57806379325cc7146103a85780637eefdd84146103c4576101da565b80633ca416111161017c5780635eb7413a1161014b5780635eb7413a1461032c5780637071f0c41461035c578063715018a614610378578063728efc5f14610382576101da565b80633ca41611146102b857806348fe55f6146102d65780634c70d165146102f457806359275e8514610310576101da565b806313f78d2f116101b857806313f78d2f14610233578063233213461461024f578063304f56dc1461028057806334eb482e1461029c576101da565b80630420aab1146101df5780630c32551e146101fb57806310693fcd14610217575b600080fd5b6101f960048036038101906101f49190612f5d565b610551565b005b61021560048036038101906102109190612fb9565b6105b6565b005b610231600480360381019061022c9190612fe6565b6106f3565b005b61024d60048036038101906102489190612fb9565b610707565b005b61026960048036038101906102649190612fb9565b6109ab565b60405161027792919061310c565b60405180910390f35b61029a60048036038101906102959190613236565b610a95565b005b6102b660048036038101906102b19190612fb9565b610aad565b005b6102c0610b1d565b6040516102cd91906132dc565b60405180910390f35b6102de610b30565b6040516102eb9190613356565b60405180910390f35b61030e60048036038101906103099190613371565b610b56565b005b61032a600480360381019061032591906133d6565b610bbc565b005b61034660048036038101906103419190612fe6565b610f2f565b60405161035391906132dc565b60405180910390f35b61037660048036038101906103719190613451565b610f4f565b005b610380610fbf565b005b61038a610fd3565b005b6103a660048036038101906103a191906134eb565b611024565b005b6103c260048036038101906103bd9190613544565b61117f565b005b6103de60048036038101906103d99190612fb9565b6111cb565b005b6103fa60048036038101906103f59190613571565b6112d6565b005b61040461131e565b60405161041191906135ee565b60405180910390f35b610422611344565b60405161042f9190613618565b60405180910390f35b61044061136e565b60405161044d9190613654565b60405180910390f35b61045e611394565b60405161046b9190613618565b60405180910390f35b61048e60048036038101906104899190613732565b6113ba565b005b6104aa60048036038101906104a59190612fb9565b6113ce565b005b6104c660048036038101906104c19190612fb9565b611466565b6040516104d6949392919061378a565b60405180910390f35b6104e76114c3565b6040516104f491906137cf565b60405180910390f35b61051760048036038101906105129190612fe6565b6114d4565b005b610533600480360381019061052e9190612fb9565b611557565b005b61054f600480360381019061054a91906138a4565b611565565b005b6105596117f7565b60008067ffffffffffffffff81111561057557610574612bf1565b5b6040519080825280602002602001820160405280156105a35781602001602082028036833780820191505090505b5090506105b1818484611875565b505050565b6105be6117f7565b6000606660019054906101000a900473ffffffffffffffffffffffffffffffffffffffff1673ffffffffffffffffffffffffffffffffffffffff166393f1a40b83306040518363ffffffff1660e01b815260040161061d92919061390b565b6040805180830381865afa158015610639573d6000803e3d6000fd5b505050506040513d601f19601f8201168201806040525081019061065d9190613949565b509050606660019054906101000a900473ffffffffffffffffffffffffffffffffffffffff1673ffffffffffffffffffffffffffffffffffffffff1663441a3e7083836040518363ffffffff1660e01b81526004016106bd929190613989565b600060405180830381600087803b1580156106d757600080fd5b505af11580156106eb573d6000803e3d6000fd5b505050505050565b6106fb6117f7565b61070481611c4d565b50565b61070f6117f7565b6000606660019054906101000a900473ffffffffffffffffffffffffffffffffffffffff1673ffffffffffffffffffffffffffffffffffffffff16632f380b35836040518263ffffffff1660e01b815260040161076c91906137cf565b60e060405180830381865afa158015610789573d6000803e3d6000fd5b505050506040513d601f19601f820116820180604052508101906107ad9190613a3f565b505050505050905060008173ffffffffffffffffffffffffffffffffffffffff166370a08231306040518263ffffffff1660e01b81526004016107f09190613618565b602060405180830381865afa15801561080d573d6000803e3d6000fd5b505050506040513d601f19601f820116820180604052508101906108319190613ae1565b905060008111610876576040517f08c379a000000000000000000000000000000000000000000000000000000000815260040161086d90613b91565b60405180910390fd5b8173ffffffffffffffffffffffffffffffffffffffff1663095ea7b3606660019054906101000a900473ffffffffffffffffffffffffffffffffffffffff16836040518363ffffffff1660e01b81526004016108d3929190613bb1565b6020604051808303816000875af11580156108f2573d6000803e3d6000fd5b505050506040513d601f19601f820116820180604052508101906109169190613bef565b50606660019054906101000a900473ffffffffffffffffffffffffffffffffffffffff1673ffffffffffffffffffffffffffffffffffffffff1663e2bbb15884836040518363ffffffff1660e01b8152600401610974929190613989565b600060405180830381600087803b15801561098e57600080fd5b505af11580156109a2573d6000803e3d6000fd5b50505050505050565b60006109b5612b47565b6109c983606b611ca890919063ffffffff16565b9150606a60008381526020019081526020016000206040518060800160405290816000820160009054906101000a900473ffffffffffffffffffffffffffffffffffffffff1673ffffffffffffffffffffffffffffffffffffffff1673ffffffffffffffffffffffffffffffffffffffff1681526020016000820160149054906101000a900460ff166001811115610a6457610a63613031565b5b6001811115610a7657610a75613031565b5b8152602001600182015481526020016002820154815250509050915091565b610a9d6117f7565b610aa8838383611875565b505050565b6000610ab76114c3565b9050808210610afb576040517f08c379a0000000000000000000000000000000000000000000000000000000008152600401610af290613c8e565b60405180910390fd5b610b19610b1283606b611ca890919063ffffffff16565b6001611cc2565b5050565b606660009054906101000a900460ff1681565b606660019054906101000a900473ffffffffffffffffffffffffffffffffffffffff1681565b610b5e6117f7565b6000606a600084815260200190815260200160002090508181600201819055507f95e38bd01f38ae5905df5c5f31d428bf51ee85e443d7d74a77e74775c1c413158383604051610baf929190613989565b60405180910390a1505050565b610bc46117f7565b600180811115610bd757610bd6613031565b5b836001811115610bea57610be9613031565b5b03610c405760008214158015610c005750468214155b610c3f576040517f08c379a0000000000000000000000000000000000000000000000000000000008152600401610c3690613cfa565b60405180910390fd5b5b600073ffffffffffffffffffffffffffffffffffffffff168473ffffffffffffffffffffffffffffffffffffffff1603610caf576040517f08c379a0000000000000000000000000000000000000000000000000000000008152600401610ca690613d8c565b60405180910390fd5b6000606a60008781526020019081526020016000206040518060800160405290816000820160009054906101000a900473ffffffffffffffffffffffffffffffffffffffff1673ffffffffffffffffffffffffffffffffffffffff1673ffffffffffffffffffffffffffffffffffffffff1681526020016000820160149054906101000a900460ff166001811115610d4a57610d49613031565b5b6001811115610d5c57610d5b613031565b5b8152602001600182015481526020016002820154815250509050600073ffffffffffffffffffffffffffffffffffffffff16816000015173ffffffffffffffffffffffffffffffffffffffff1614610de9576040517f08c379a0000000000000000000000000000000000000000000000000000000008152600401610de090613e1e565b60405180910390fd5b60405180608001604052808673ffffffffffffffffffffffffffffffffffffffff168152602001856001811115610e2357610e22613031565b5b815260200184815260200183815250606a600088815260200190815260200160002060008201518160000160006101000a81548173ffffffffffffffffffffffffffffffffffffffff021916908373ffffffffffffffffffffffffffffffffffffffff16021790555060208201518160000160146101000a81548160ff02191690836001811115610eb757610eb6613031565b5b02179055506040820151816001015560608201518160020155905050610ee786606b6123b290919063ffffffff16565b507fee7bdf422290460712739f8ac94ab12df8fedcec5893b08a7c49fd10a50b4cc68686868686604051610f1f959493929190613e3e565b60405180910390a1505050505050565b60656020528060005260406000206000915054906101000a900460ff1681565b610f576117f7565b60008067ffffffffffffffff811115610f7357610f72612bf1565b5b604051908082528060200260200182016040528015610fac57816020015b610f99612b97565b815260200190600190039081610f915790505b509050610fba838284611875565b505050565b610fc76117f7565b610fd160006123cc565b565b610fdb6117f7565b6000606660006101000a81548160ff0219169083151502179055507fe042ee5da861c33411d0aa3bce3b088a1dffd3088468ac162159ddd887f99e3e60405160405180910390a1565b61102c6117f7565b606660009054906101000a900460ff1661107b576040517f08c379a000000000000000000000000000000000000000000000000000000000815260040161107290613edd565b60405180910390fd5b600047905060008273ffffffffffffffffffffffffffffffffffffffff16826040516110a690613f2e565b60006040518083038185875af1925050503d80600081146110e3576040519150601f19603f3d011682016040523d82523d6000602084013e6110e8565b606091505b505090508061112c576040517f08c379a000000000000000000000000000000000000000000000000000000000815260040161112390613f8f565b60405180910390fd5b8273ffffffffffffffffffffffffffffffffffffffff167fdc495bd3b5344fcb85ff9c1b44ebfd7d2d9ee001c0826360fdbc13665f9cb4ed8360405161117291906137cf565b60405180910390a2505050565b60006111896114c3565b905060005b818110156111c6576111b36111ad82606b611ca890919063ffffffff16565b84611cc2565b80806111be90613fde565b91505061118e565b505050565b6111d36117f7565b6111e781606b61249290919063ffffffff16565b611226576040517f08c379a000000000000000000000000000000000000000000000000000000000815260040161121d90614072565b60405180910390fd5b61123a81606b6124ac90919063ffffffff16565b50606a6000828152602001908152602001600020600080820160006101000a81549073ffffffffffffffffffffffffffffffffffffffff02191690556000820160146101000a81549060ff02191690556001820160009055600282016000905550507feda868b56895a221ec5be172a1253e729185a13dd6b368b9cc4c4cb53aebe541816040516112cb91906137cf565b60405180910390a150565b60005b8251811015611319576113068382815181106112f8576112f7614092565b5b602002602001015183611cc2565b808061131190613fde565b9150506112d9565b505050565b606760009054906101000a900473ffffffffffffffffffffffffffffffffffffffff1681565b6000603360009054906101000a900473ffffffffffffffffffffffffffffffffffffffff16905090565b606960009054906101000a900473ffffffffffffffffffffffffffffffffffffffff1681565b606860009054906101000a900473ffffffffffffffffffffffffffffffffffffffff1681565b6113c26117f7565b6113cb816124c6565b50565b6113d66117f7565b606660019054906101000a900473ffffffffffffffffffffffffffffffffffffffff1673ffffffffffffffffffffffffffffffffffffffff16635312ea8e826040518263ffffffff1660e01b815260040161143191906137cf565b600060405180830381600087803b15801561144b57600080fd5b505af115801561145f573d6000803e3d6000fd5b5050505050565b606a6020528060005260406000206000915090508060000160009054906101000a900473ffffffffffffffffffffffffffffffffffffffff16908060000160149054906101000a900460ff16908060010154908060020154905084565b60006114cf606b61250c565b905090565b6114dc6117f7565b600073ffffffffffffffffffffffffffffffffffffffff168173ffffffffffffffffffffffffffffffffffffffff160361154b576040517f08c379a000000000000000000000000000000000000000000000000000000000815260040161154290614133565b60405180910390fd5b611554816123cc565b50565b611562816001611cc2565b50565b60008060019054906101000a900460ff161590508080156115965750600160008054906101000a900460ff1660ff16105b806115c357506115a530612521565b1580156115c25750600160008054906101000a900460ff1660ff16145b5b611602576040517f08c379a00000000000000000000000000000000000000000000000000000000081526004016115f9906141c5565b60405180910390fd5b60016000806101000a81548160ff021916908360ff160217905550801561163f576001600060016101000a81548160ff0219169083151502179055505b611693600067ffffffffffffffff81111561165d5761165c612bf1565b5b60405190808252806020026020018201604052801561168b5781602001602082028036833780820191505090505b506001612544565b84606660016101000a81548173ffffffffffffffffffffffffffffffffffffffff021916908373ffffffffffffffffffffffffffffffffffffffff16021790555083606760006101000a81548173ffffffffffffffffffffffffffffffffffffffff021916908373ffffffffffffffffffffffffffffffffffffffff16021790555082606860006101000a81548173ffffffffffffffffffffffffffffffffffffffff021916908373ffffffffffffffffffffffffffffffffffffffff16021790555081606960006101000a81548173ffffffffffffffffffffffffffffffffffffffff021916908373ffffffffffffffffffffffffffffffffffffffff16021790555080156117f05760008060016101000a81548160ff0219169083151502179055507f7f26b83ff96e1f2b6a682f133852f6798a09c465da95921460cefb384740249860016040516117e7919061422d565b60405180910390a15b5050505050565b6117ff6125c2565b73ffffffffffffffffffffffffffffffffffffffff1661181d611344565b73ffffffffffffffffffffffffffffffffffffffff1614611873576040517f08c379a000000000000000000000000000000000000000000000000000000000815260040161186a90614294565b60405180910390fd5b565b60005b8351811015611a5057600084828151811061189657611895614092565b5b60200260200101519050606560008273ffffffffffffffffffffffffffffffffffffffff1673ffffffffffffffffffffffffffffffffffffffff16815260200190815260200160002060009054906101000a900460ff161561192d576040517f08c379a000000000000000000000000000000000000000000000000000000000815260040161192490614300565b60405180910390fd5b60008173ffffffffffffffffffffffffffffffffffffffff166370a08231306040518263ffffffff1660e01b81526004016119689190613618565b602060405180830381865afa158015611985573d6000803e3d6000fd5b505050506040513d601f19601f820116820180604052508101906119a99190613ae1565b90506119d684828473ffffffffffffffffffffffffffffffffffffffff166125ca9092919063ffffffff16565b8173ffffffffffffffffffffffffffffffffffffffff168473ffffffffffffffffffffffffffffffffffffffff167f5bf76ef0db3550a96f76d3c13dfa002b5e1df9e4c4d65dce31f074c670b8b64883604051611a3391906137cf565b60405180910390a350508080611a4890613fde565b915050611878565b5060005b8251811015611bee576000838281518110611a7257611a71614092565b5b6020026020010151600001519050606560008273ffffffffffffffffffffffffffffffffffffffff1673ffffffffffffffffffffffffffffffffffffffff16815260200190815260200160002060009054906101000a900460ff1615611b0d576040517f08c379a0000000000000000000000000000000000000000000000000000000008152600401611b0490614300565b60405180910390fd5b6000848381518110611b2257611b21614092565b5b602002602001015160200151905060005b8151811015611bd8578273ffffffffffffffffffffffffffffffffffffffff166342842e0e3087858581518110611b6d57611b6c614092565b5b60200260200101516040518463ffffffff1660e01b8152600401611b9393929190614320565b600060405180830381600087803b158015611bad57600080fd5b505af1158015611bc1573d6000803e3d6000fd5b505050508080611bd090613fde565b915050611b33565b5050508080611be690613fde565b915050611a54565b5081604051611bfd9190614534565b60405180910390208173ffffffffffffffffffffffffffffffffffffffff167fb7d54fb67ddf621754e70da8666b8f260b9d90d503a96e15fdf8753d59af387760405160405180910390a3505050565b6001606560008373ffffffffffffffffffffffffffffffffffffffff1673ffffffffffffffffffffffffffffffffffffffff16815260200190815260200160002060006101000a81548160ff02191690831515021790555050565b6000611cb78360000183612650565b60001c905092915050565b6000606a60008481526020019081526020016000206040518060800160405290816000820160009054906101000a900473ffffffffffffffffffffffffffffffffffffffff1673ffffffffffffffffffffffffffffffffffffffff1673ffffffffffffffffffffffffffffffffffffffff1681526020016000820160149054906101000a900460ff166001811115611d5d57611d5c613031565b5b6001811115611d6f57611d6e613031565b5b8152602001600182015481526020016002820154815250509050600073ffffffffffffffffffffffffffffffffffffffff16816000015173ffffffffffffffffffffffffffffffffffffffff1603611e08578115611e02576040517f08c379a0000000000000000000000000000000000000000000000000000000008152600401611df9906145bd565b60405180910390fd5b506123ae565b6000606660019054906101000a900473ffffffffffffffffffffffffffffffffffffffff1673ffffffffffffffffffffffffffffffffffffffff1663aa8f6ca185306040518363ffffffff1660e01b8152600401611e6792919061390b565b602060405180830381865afa158015611e84573d6000803e3d6000fd5b505050506040513d601f19601f82011682018060405250810190611ea89190613ae1565b90508160600151811015611efe578215611ef7576040517f08c379a0000000000000000000000000000000000000000000000000000000008152600401611eee9061464f565b60405180910390fd5b50506123ae565b6000606760009054906101000a900473ffffffffffffffffffffffffffffffffffffffff1673ffffffffffffffffffffffffffffffffffffffff166370a08231306040518263ffffffff1660e01b8152600401611f5b9190613618565b602060405180830381865afa158015611f78573d6000803e3d6000fd5b505050506040513d601f19601f82011682018060405250810190611f9c9190613ae1565b9050606660019054906101000a900473ffffffffffffffffffffffffffffffffffffffff1673ffffffffffffffffffffffffffffffffffffffff1663e2bbb1588660006040518363ffffffff1660e01b8152600401611ffc9291906146aa565b600060405180830381600087803b15801561201657600080fd5b505af115801561202a573d6000803e3d6000fd5b50505050600081606760009054906101000a900473ffffffffffffffffffffffffffffffffffffffff1673ffffffffffffffffffffffffffffffffffffffff166370a08231306040518263ffffffff1660e01b815260040161208c9190613618565b602060405180830381865afa1580156120a9573d6000803e3d6000fd5b505050506040513d601f19601f820116820180604052508101906120cd9190613ae1565b6120d791906146d3565b9050600060018111156120ed576120ec613031565b5b8460200151600181111561210457612103613031565b5b036121b357606760009054906101000a900473ffffffffffffffffffffffffffffffffffffffff1673ffffffffffffffffffffffffffffffffffffffff1663a9059cbb8560000151836040518363ffffffff1660e01b815260040161216a929190613bb1565b6020604051808303816000875af1158015612189573d6000803e3d6000fd5b505050506040513d601f19601f820116820180604052508101906121ad9190613bef565b50612364565b6001808111156121c6576121c5613031565b5b846020015160018111156121dd576121dc613031565b5b0361236357606760009054906101000a900473ffffffffffffffffffffffffffffffffffffffff1673ffffffffffffffffffffffffffffffffffffffff1663095ea7b3606960009054906101000a900473ffffffffffffffffffffffffffffffffffffffff16836040518363ffffffff1660e01b8152600401612261929190613bb1565b6020604051808303816000875af1158015612280573d6000803e3d6000fd5b505050506040513d601f19601f820116820180604052508101906122a49190613bef565b50606960009054906101000a900473ffffffffffffffffffffffffffffffffffffffff1673ffffffffffffffffffffffffffffffffffffffff1663edbdf5e2606860009054906101000a900473ffffffffffffffffffffffffffffffffffffffff1686600001518488604001516040518563ffffffff1660e01b81526004016123309493929190614707565b600060405180830381600087803b15801561234a57600080fd5b505af115801561235e573d6000803e3d6000fd5b505050505b5b7f46773325c50d920bbc71668278c52944c5d8c36a9f9243f8c76e070847c44efb8682866000015187604001516040516123a1949392919061474c565b60405180910390a1505050505b5050565b60006123c4836000018360001b61267b565b905092915050565b6000603360009054906101000a900473ffffffffffffffffffffffffffffffffffffffff16905081603360006101000a81548173ffffffffffffffffffffffffffffffffffffffff021916908373ffffffffffffffffffffffffffffffffffffffff1602179055508173ffffffffffffffffffffffffffffffffffffffff168173ffffffffffffffffffffffffffffffffffffffff167f8be0079c531659141344cd1fd0a4f28419497f9722a3daafe3b4186f6b6457e060405160405180910390a35050565b60006124a4836000018360001b6126eb565b905092915050565b60006124be836000018360001b61270e565b905092915050565b60005b8151811015612508576124f58282815181106124e8576124e7614092565b5b6020026020010151611c4d565b808061250090613fde565b9150506124c9565b5050565b600061251a82600001612822565b9050919050565b6000808273ffffffffffffffffffffffffffffffffffffffff163b119050919050565b600060019054906101000a900460ff16612593576040517f08c379a000000000000000000000000000000000000000000000000000000000815260040161258a90614803565b60405180910390fd5b61259b612833565b6125a4826113ba565b80606660006101000a81548160ff0219169083151502179055505050565b600033905090565b61264b8363a9059cbb60e01b84846040516024016125e9929190613bb1565b604051602081830303815290604052907bffffffffffffffffffffffffffffffffffffffffffffffffffffffff19166020820180517bffffffffffffffffffffffffffffffffffffffffffffffffffffffff838183161783525050505061288c565b505050565b600082600001828154811061266857612667614092565b5b9060005260206000200154905092915050565b600061268783836126eb565b6126e05782600001829080600181540180825580915050600190039060005260206000200160009091909190915055826000018054905083600101600084815260200190815260200160002081905550600190506126e5565b600090505b92915050565b600080836001016000848152602001908152602001600020541415905092915050565b6000808360010160008481526020019081526020016000205490506000811461281657600060018261274091906146d3565b905060006001866000018054905061275891906146d3565b90508181146127c757600086600001828154811061277957612778614092565b5b906000526020600020015490508087600001848154811061279d5761279c614092565b5b90600052602060002001819055508387600101600083815260200190815260200160002081905550505b856000018054806127db576127da614823565b5b60019003818190600052602060002001600090559055856001016000868152602001908152602001600020600090556001935050505061281c565b60009150505b92915050565b600081600001805490509050919050565b600060019054906101000a900460ff16612882576040517f08c379a000000000000000000000000000000000000000000000000000000000815260040161287990614803565b60405180910390fd5b61288a612953565b565b60006128ee826040518060400160405280602081526020017f5361666545524332303a206c6f772d6c6576656c2063616c6c206661696c65648152508573ffffffffffffffffffffffffffffffffffffffff166129b49092919063ffffffff16565b905060008151111561294e578080602001905181019061290e9190613bef565b61294d576040517f08c379a0000000000000000000000000000000000000000000000000000000008152600401612944906148c4565b60405180910390fd5b5b505050565b600060019054906101000a900460ff166129a2576040517f08c379a000000000000000000000000000000000000000000000000000000000815260040161299990614803565b60405180910390fd5b6129b26129ad6125c2565b6123cc565b565b60606129c384846000856129cc565b90509392505050565b606082471015612a11576040517f08c379a0000000000000000000000000000000000000000000000000000000008152600401612a0890614956565b60405180910390fd5b612a1a85612521565b612a59576040517f08c379a0000000000000000000000000000000000000000000000000000000008152600401612a50906149c2565b60405180910390fd5b6000808673ffffffffffffffffffffffffffffffffffffffff168587604051612a829190614a51565b60006040518083038185875af1925050503d8060008114612abf576040519150601f19603f3d011682016040523d82523d6000602084013e612ac4565b606091505b5091509150612ad4828286612ae0565b92505050949350505050565b60608315612af057829050612b40565b600083511115612b035782518084602001fd5b816040517f08c379a0000000000000000000000000000000000000000000000000000000008152600401612b379190614aac565b60405180910390fd5b9392505050565b6040518060800160405280600073ffffffffffffffffffffffffffffffffffffffff16815260200160006001811115612b8357612b82613031565b5b815260200160008152602001600081525090565b6040518060400160405280600073ffffffffffffffffffffffffffffffffffffffff168152602001606081525090565b6000604051905090565b600080fd5b600080fd5b600080fd5b6000601f19601f8301169050919050565b7f4e487b7100000000000000000000000000000000000000000000000000000000600052604160045260246000fd5b612c2982612be0565b810181811067ffffffffffffffff82111715612c4857612c47612bf1565b5b80604052505050565b6000612c5b612bc7565b9050612c678282612c20565b919050565b600067ffffffffffffffff821115612c8757612c86612bf1565b5b602082029050602081019050919050565b600080fd5b600080fd5b600080fd5b600073ffffffffffffffffffffffffffffffffffffffff82169050919050565b6000612cd282612ca7565b9050919050565b6000612ce482612cc7565b9050919050565b612cf481612cd9565b8114612cff57600080fd5b50565b600081359050612d1181612ceb565b92915050565b600067ffffffffffffffff821115612d3257612d31612bf1565b5b602082029050602081019050919050565b6000819050919050565b612d5681612d43565b8114612d6157600080fd5b50565b600081359050612d7381612d4d565b92915050565b6000612d8c612d8784612d17565b612c51565b90508083825260208201905060208402830185811115612daf57612dae612c98565b5b835b81811015612dd85780612dc48882612d64565b845260208401935050602081019050612db1565b5050509392505050565b600082601f830112612df757612df6612bdb565b5b8135612e07848260208601612d79565b91505092915050565b600060408284031215612e2657612e25612c9d565b5b612e306040612c51565b90506000612e4084828501612d02565b600083015250602082013567ffffffffffffffff811115612e6457612e63612ca2565b5b612e7084828501612de2565b60208301525092915050565b6000612e8f612e8a84612c6c565b612c51565b90508083825260208201905060208402830185811115612eb257612eb1612c98565b5b835b81811015612ef957803567ffffffffffffffff811115612ed757612ed6612bdb565b5b808601612ee48982612e10565b85526020850194505050602081019050612eb4565b5050509392505050565b600082601f830112612f1857612f17612bdb565b5b8135612f28848260208601612e7c565b91505092915050565b612f3a81612cc7565b8114612f4557600080fd5b50565b600081359050612f5781612f31565b92915050565b60008060408385031215612f7457612f73612bd1565b5b600083013567ffffffffffffffff811115612f9257612f91612bd6565b5b612f9e85828601612f03565b9250506020612faf85828601612f48565b9150509250929050565b600060208284031215612fcf57612fce612bd1565b5b6000612fdd84828501612d64565b91505092915050565b600060208284031215612ffc57612ffb612bd1565b5b600061300a84828501612f48565b91505092915050565b61301c81612d43565b82525050565b61302b81612cc7565b82525050565b7f4e487b7100000000000000000000000000000000000000000000000000000000600052602160045260246000fd5b6002811061307157613070613031565b5b50565b600081905061308282613060565b919050565b600061309282613074565b9050919050565b6130a281613087565b82525050565b6130b181612d43565b82525050565b6080820160008201516130cd6000850182613022565b5060208201516130e06020850182613099565b5060408201516130f360408501826130a8565b50606082015161310660608501826130a8565b50505050565b600060a0820190506131216000830185613013565b61312e60208301846130b7565b9392505050565b600067ffffffffffffffff8211156131505761314f612bf1565b5b602082029050602081019050919050565b600061316c82612cc7565b9050919050565b61317c81613161565b811461318757600080fd5b50565b60008135905061319981613173565b92915050565b60006131b26131ad84613135565b612c51565b905080838252602082019050602084028301858111156131d5576131d4612c98565b5b835b818110156131fe57806131ea888261318a565b8452602084019350506020810190506131d7565b5050509392505050565b600082601f83011261321d5761321c612bdb565b5b813561322d84826020860161319f565b91505092915050565b60008060006060848603121561324f5761324e612bd1565b5b600084013567ffffffffffffffff81111561326d5761326c612bd6565b5b61327986828701613208565b935050602084013567ffffffffffffffff81111561329a57613299612bd6565b5b6132a686828701612f03565b92505060406132b786828701612f48565b9150509250925092565b60008115159050919050565b6132d6816132c1565b82525050565b60006020820190506132f160008301846132cd565b92915050565b6000819050919050565b600061331c61331761331284612ca7565b6132f7565b612ca7565b9050919050565b600061332e82613301565b9050919050565b600061334082613323565b9050919050565b61335081613335565b82525050565b600060208201905061336b6000830184613347565b92915050565b6000806040838503121561338857613387612bd1565b5b600061339685828601612d64565b92505060206133a785828601612d64565b9150509250929050565b600281106133be57600080fd5b50565b6000813590506133d0816133b1565b92915050565b600080600080600060a086880312156133f2576133f1612bd1565b5b600061340088828901612d64565b955050602061341188828901612f48565b9450506040613422888289016133c1565b935050606061343388828901612d64565b925050608061344488828901612d64565b9150509295509295909350565b6000806040838503121561346857613467612bd1565b5b600083013567ffffffffffffffff81111561348657613485612bd6565b5b61349285828601613208565b92505060206134a385828601612f48565b9150509250929050565b60006134b882612ca7565b9050919050565b6134c8816134ad565b81146134d357600080fd5b50565b6000813590506134e5816134bf565b92915050565b60006020828403121561350157613500612bd1565b5b600061350f848285016134d6565b91505092915050565b613521816132c1565b811461352c57600080fd5b50565b60008135905061353e81613518565b92915050565b60006020828403121561355a57613559612bd1565b5b60006135688482850161352f565b91505092915050565b6000806040838503121561358857613587612bd1565b5b600083013567ffffffffffffffff8111156135a6576135a5612bd6565b5b6135b285828601612de2565b92505060206135c38582860161352f565b9150509250929050565b60006135d882613323565b9050919050565b6135e8816135cd565b82525050565b600060208201905061360360008301846135df565b92915050565b61361281612cc7565b82525050565b600060208201905061362d6000830184613609565b92915050565b600061363e82613323565b9050919050565b61364e81613633565b82525050565b60006020820190506136696000830184613645565b92915050565b600067ffffffffffffffff82111561368a57613689612bf1565b5b602082029050602081019050919050565b60006136ae6136a98461366f565b612c51565b905080838252602082019050602084028301858111156136d1576136d0612c98565b5b835b818110156136fa57806136e68882612f48565b8452602084019350506020810190506136d3565b5050509392505050565b600082601f83011261371957613718612bdb565b5b813561372984826020860161369b565b91505092915050565b60006020828403121561374857613747612bd1565b5b600082013567ffffffffffffffff81111561376657613765612bd6565b5b61377284828501613704565b91505092915050565b61378481613087565b82525050565b600060808201905061379f6000830187613609565b6137ac602083018661377b565b6137b96040830185613013565b6137c66060830184613013565b95945050505050565b60006020820190506137e46000830184613013565b92915050565b60006137f582612cc7565b9050919050565b613805816137ea565b811461381057600080fd5b50565b600081359050613822816137fc565b92915050565b600061383382612cc7565b9050919050565b61384381613828565b811461384e57600080fd5b50565b6000813590506138608161383a565b92915050565b600061387182612cc7565b9050919050565b61388181613866565b811461388c57600080fd5b50565b60008135905061389e81613878565b92915050565b600080600080608085870312156138be576138bd612bd1565b5b60006138cc87828801613813565b94505060206138dd87828801613851565b93505060406138ee87828801612f48565b92505060606138ff8782880161388f565b91505092959194509250565b60006040820190506139206000830185613013565b61392d6020830184613609565b9392505050565b60008151905061394381612d4d565b92915050565b600080604083850312156139605761395f612bd1565b5b600061396e85828601613934565b925050602061397f85828601613934565b9150509250929050565b600060408201905061399e6000830185613013565b6139ab6020830184613013565b9392505050565b6000815190506139c181612f31565b92915050565b60006139d282612cc7565b9050919050565b6139e2816139c7565b81146139ed57600080fd5b50565b6000815190506139ff816139d9565b92915050565b600061ffff82169050919050565b613a1c81613a05565b8114613a2757600080fd5b50565b600081519050613a3981613a13565b92915050565b600080600080600080600060e0888a031215613a5e57613a5d612bd1565b5b6000613a6c8a828b016139b2565b9750506020613a7d8a828b01613934565b9650506040613a8e8a828b016139f0565b9550506060613a9f8a828b01613934565b9450506080613ab08a828b01613934565b93505060a0613ac18a828b01613934565b92505060c0613ad28a828b01613a2a565b91505092959891949750929550565b600060208284031215613af757613af6612bd1565b5b6000613b0584828501613934565b91505092915050565b600082825260208201905092915050565b7f42616e616e61416c6c6f6361746f723a206e6f20746f6b656e7320746f20737460008201527f616b650000000000000000000000000000000000000000000000000000000000602082015250565b6000613b7b602383613b0e565b9150613b8682613b1f565b604082019050919050565b60006020820190508181036000830152613baa81613b6e565b9050919050565b6000604082019050613bc66000830185613609565b613bd36020830184613013565b9392505050565b600081519050613be981613518565b92915050565b600060208284031215613c0557613c04612bd1565b5b6000613c1384828501613bda565b91505092915050565b7f42616e616e61416c6c6f6361746f723a20496e646578206f7574206f6620626f60008201527f756e647300000000000000000000000000000000000000000000000000000000602082015250565b6000613c78602483613b0e565b9150613c8382613c1c565b604082019050919050565b60006020820190508181036000830152613ca781613c6b565b9050919050565b7f42616e616e61416c6c6f6361746f723a2077726f6e672073657474696e677300600082015250565b6000613ce4601f83613b0e565b9150613cef82613cae565b602082019050919050565b60006020820190508181036000830152613d1381613cd7565b9050919050565b7f42616e616e61416c6c6f6361746f723a2043616e27742073656e6420746f206e60008201527f756c6c2061646472657373000000000000000000000000000000000000000000602082015250565b6000613d76602b83613b0e565b9150613d8182613d1a565b604082019050919050565b60006020820190508181036000830152613da581613d69565b9050919050565b7f42616e616e61416c6c6f6361746f723a2042616e616e6120726f75746520776960008201527f746820746869732070696420616c726561647920657869737473000000000000602082015250565b6000613e08603a83613b0e565b9150613e1382613dac565b604082019050919050565b60006020820190508181036000830152613e3781613dfb565b9050919050565b600060a082019050613e536000830188613013565b613e606020830187613609565b613e6d604083018661377b565b613e7a6060830185613013565b613e876080830184613013565b9695505050505050565b7f4e6f7420616c6c6f776564000000000000000000000000000000000000000000600082015250565b6000613ec7600b83613b0e565b9150613ed282613e91565b602082019050919050565b60006020820190508181036000830152613ef681613eba565b9050919050565b600081905092915050565b50565b6000613f18600083613efd565b9150613f2382613f08565b600082019050919050565b6000613f3982613f0b565b9150819050919050565b7f4661696c656420746f207472616e73666572206e617469766500000000000000600082015250565b6000613f79601983613b0e565b9150613f8482613f43565b602082019050919050565b60006020820190508181036000830152613fa881613f6c565b9050919050565b7f4e487b7100000000000000000000000000000000000000000000000000000000600052601160045260246000fd5b6000613fe982612d43565b91507fffffffffffffffffffffffffffffffffffffffffffffffffffffffffffffffff820361401b5761401a613faf565b5b600182019050919050565b7f42616e616e61416c6c6f6361746f723a20706964206e6f7420666f756e640000600082015250565b600061405c601e83613b0e565b915061406782614026565b602082019050919050565b6000602082019050818103600083015261408b8161404f565b9050919050565b7f4e487b7100000000000000000000000000000000000000000000000000000000600052603260045260246000fd5b7f4f776e61626c653a206e6577206f776e657220697320746865207a65726f206160008201527f6464726573730000000000000000000000000000000000000000000000000000602082015250565b600061411d602683613b0e565b9150614128826140c1565b604082019050919050565b6000602082019050818103600083015261414c81614110565b9050919050565b7f496e697469616c697a61626c653a20636f6e747261637420697320616c72656160008201527f647920696e697469616c697a6564000000000000000000000000000000000000602082015250565b60006141af602e83613b0e565b91506141ba82614153565b604082019050919050565b600060208201905081810360008301526141de816141a2565b9050919050565b6000819050919050565b600060ff82169050919050565b600061421761421261420d846141e5565b6132f7565b6141ef565b9050919050565b614227816141fc565b82525050565b6000602082019050614242600083018461421e565b92915050565b7f4f776e61626c653a2063616c6c6572206973206e6f7420746865206f776e6572600082015250565b600061427e602083613b0e565b915061428982614248565b602082019050919050565b600060208201905081810360008301526142ad81614271565b9050919050565b7f546f6b656e732063616e27742062652073776570740000000000000000000000600082015250565b60006142ea601583613b0e565b91506142f5826142b4565b602082019050919050565b60006020820190508181036000830152614319816142dd565b9050919050565b60006060820190506143356000830186613609565b6143426020830185613609565b61434f6040830184613013565b949350505050565b600081519050919050565b600081905092915050565b6000819050602082019050919050565b600061438882613323565b9050919050565b6143988161437d565b82525050565b60006143aa838361438f565b60208301905092915050565b600081519050919050565b600081905092915050565b6000819050602082019050919050565b6143e581612d43565b82525050565b60006143f783836143dc565b60208301905092915050565b6000602082019050919050565b600061441b826143b6565b61442581856143c1565b9350614430836143cc565b8060005b8381101561446157815161444888826143eb565b975061445383614403565b925050600181019050614434565b5085935050505092915050565b600061447a8383614410565b905092915050565b60008083016000830151614496858261439e565b94505060208301516144a8858261446e565b9450508391505092915050565b60006144c18383614482565b905092915050565b6000602082019050919050565b60006144e182614357565b6144eb8185614362565b93506144f68361436d565b8060005b8381101561452757815161450e88826144b5565b9750614519836144c9565b9250506001810190506144fa565b5085935050505092915050565b600061454082846144d6565b915081905092915050565b7f42616e616e61416c6c6f6361746f723a204e6f20636f6e66696775726564207260008201527f6f75746520666f756e6400000000000000000000000000000000000000000000602082015250565b60006145a7602a83613b0e565b91506145b28261454b565b604082019050919050565b600060208201905081810360008301526145d68161459a565b9050919050565b7f42616e616e61416c6c6f6361746f723a206e6f7420656e6f756768207265776160008201527f7264730000000000000000000000000000000000000000000000000000000000602082015250565b6000614639602383613b0e565b9150614644826145dd565b604082019050919050565b600060208201905081810360008301526146688161462c565b9050919050565b6000819050919050565b600061469461468f61468a8461466f565b6132f7565b612d43565b9050919050565b6146a481614679565b82525050565b60006040820190506146bf6000830185613013565b6146cc602083018461469b565b9392505050565b60006146de82612d43565b91506146e983612d43565b9250828210156146fc576146fb613faf565b5b828203905092915050565b600060808201905061471c6000830187613609565b6147296020830186613609565b6147366040830185613013565b6147436060830184613013565b95945050505050565b60006080820190506147616000830187613013565b61476e6020830186613013565b61477b6040830185613609565b6147886060830184613013565b95945050505050565b7f496e697469616c697a61626c653a20636f6e7472616374206973206e6f74206960008201527f6e697469616c697a696e67000000000000000000000000000000000000000000602082015250565b60006147ed602b83613b0e565b91506147f882614791565b604082019050919050565b6000602082019050818103600083015261481c816147e0565b9050919050565b7f4e487b7100000000000000000000000000000000000000000000000000000000600052603160045260246000fd5b7f5361666545524332303a204552433230206f7065726174696f6e20646964206e60008201527f6f74207375636365656400000000000000000000000000000000000000000000602082015250565b60006148ae602a83613b0e565b91506148b982614852565b604082019050919050565b600060208201905081810360008301526148dd816148a1565b9050919050565b7f416464726573733a20696e73756666696369656e742062616c616e636520666f60008201527f722063616c6c0000000000000000000000000000000000000000000000000000602082015250565b6000614940602683613b0e565b915061494b826148e4565b604082019050919050565b6000602082019050818103600083015261496f81614933565b9050919050565b7f416464726573733a2063616c6c20746f206e6f6e2d636f6e7472616374000000600082015250565b60006149ac601d83613b0e565b91506149b782614976565b602082019050919050565b600060208201905081810360008301526149db8161499f565b9050919050565b600081519050919050565b60005b83811015614a0b5780820151818401526020810190506149f0565b83811115614a1a576000848401525b50505050565b6000614a2b826149e2565b614a358185613efd565b9350614a458185602086016149ed565b80840191505092915050565b6000614a5d8284614a20565b915081905092915050565b600081519050919050565b6000614a7e82614a68565b614a888185613b0e565b9350614a988185602086016149ed565b614aa181612be0565b840191505092915050565b60006020820190508181036000830152614ac68184614a73565b90509291505056fea26469706673582212206c8f9db86e6f6d357bcb6a25c5185c003f9a3c2d545f98b7c9fcb0cb82b7b35e64736f6c634300080f0033","opcodes":"PUSH1 0x80 PUSH1 0x40 MSTORE CALLVALUE DUP1 ISZERO PUSH2 0x10 JUMPI PUSH1 0x0 DUP1 REVERT JUMPDEST POP PUSH2 0x4B04 DUP1 PUSH2 0x20 PUSH1 0x0 CODECOPY PUSH1 0x0 RETURN INVALID PUSH1 0x80 PUSH1 0x40 MSTORE CALLVALUE DUP1 ISZERO PUSH2 0x10 JUMPI PUSH1 0x0 DUP1 REVERT JUMPDEST POP PUSH1 0x4 CALLDATASIZE LT PUSH2 0x1DA JUMPI PUSH1 0x0 CALLDATALOAD PUSH1 0xE0 SHR DUP1 PUSH4 0x78C093CF GT PUSH2 0x104 JUMPI DUP1 PUSH4 0xAF67BE5F GT PUSH2 0xA2 JUMPI DUP1 PUSH4 0xE7ABD787 GT PUSH2 0x71 JUMPI DUP1 PUSH4 0xE7ABD787 EQ PUSH2 0x4DF JUMPI DUP1 PUSH4 0xF2FDE38B EQ PUSH2 0x4FD JUMPI DUP1 PUSH4 0xF611B38B EQ PUSH2 0x519 JUMPI DUP1 PUSH4 0xF8C8765E EQ PUSH2 0x535 JUMPI PUSH2 0x1DA JUMP JUMPDEST DUP1 PUSH4 0xAF67BE5F EQ PUSH2 0x456 JUMPI DUP1 PUSH4 0xD9119330 EQ PUSH2 0x474 JUMPI DUP1 PUSH4 0xDF9A6A8E EQ PUSH2 0x490 JUMPI DUP1 PUSH4 0xDFED7DE4 EQ PUSH2 0x4AC JUMPI PUSH2 0x1DA JUMP JUMPDEST DUP1 PUSH4 0x80E63CBE GT PUSH2 0xDE JUMPI DUP1 PUSH4 0x80E63CBE EQ PUSH2 0x3E0 JUMPI DUP1 PUSH4 0x8CA576C8 EQ PUSH2 0x3FC JUMPI DUP1 PUSH4 0x8DA5CB5B EQ PUSH2 0x41A JUMPI DUP1 PUSH4 0x9A3EB6E9 EQ PUSH2 0x438 JUMPI PUSH2 0x1DA JUMP JUMPDEST DUP1 PUSH4 0x78C093CF EQ PUSH2 0x38C JUMPI DUP1 PUSH4 0x79325CC7 EQ PUSH2 0x3A8 JUMPI DUP1 PUSH4 0x7EEFDD84 EQ PUSH2 0x3C4 JUMPI PUSH2 0x1DA JUMP JUMPDEST DUP1 PUSH4 0x3CA41611 GT PUSH2 0x17C JUMPI DUP1 PUSH4 0x5EB7413A GT PUSH2 0x14B JUMPI DUP1 PUSH4 0x5EB7413A EQ PUSH2 0x32C JUMPI DUP1 PUSH4 0x7071F0C4 EQ PUSH2 0x35C JUMPI DUP1 PUSH4 0x715018A6 EQ PUSH2 0x378 JUMPI DUP1 PUSH4 0x728EFC5F EQ PUSH2 0x382 JUMPI PUSH2 0x1DA JUMP JUMPDEST DUP1 PUSH4 0x3CA41611 EQ PUSH2 0x2B8 JUMPI DUP1 PUSH4 0x48FE55F6 EQ PUSH2 0x2D6 JUMPI DUP1 PUSH4 0x4C70D165 EQ PUSH2 0x2F4 JUMPI DUP1 PUSH4 0x59275E85 EQ PUSH2 0x310 JUMPI PUSH2 0x1DA JUMP JUMPDEST DUP1 PUSH4 0x13F78D2F GT PUSH2 0x1B8 JUMPI DUP1 PUSH4 0x13F78D2F EQ PUSH2 0x233 JUMPI DUP1 PUSH4 0x23321346 EQ PUSH2 0x24F JUMPI DUP1 PUSH4 0x304F56DC EQ PUSH2 0x280 JUMPI DUP1 PUSH4 0x34EB482E EQ PUSH2 0x29C JUMPI PUSH2 0x1DA JUMP JUMPDEST DUP1 PUSH4 0x420AAB1 EQ PUSH2 0x1DF JUMPI DUP1 PUSH4 0xC32551E EQ PUSH2 0x1FB JUMPI DUP1 PUSH4 0x10693FCD EQ PUSH2 0x217 JUMPI JUMPDEST PUSH1 0x0 DUP1 REVERT JUMPDEST PUSH2 0x1F9 PUSH1 0x4 DUP1 CALLDATASIZE SUB DUP2 ADD SWAP1 PUSH2 0x1F4 SWAP2 SWAP1 PUSH2 0x2F5D JUMP JUMPDEST PUSH2 0x551 JUMP JUMPDEST STOP JUMPDEST PUSH2 0x215 PUSH1 0x4 DUP1 CALLDATASIZE SUB DUP2 ADD SWAP1 PUSH2 0x210 SWAP2 SWAP1 PUSH2 0x2FB9 JUMP JUMPDEST PUSH2 0x5B6 JUMP JUMPDEST STOP JUMPDEST PUSH2 0x231 PUSH1 0x4 DUP1 CALLDATASIZE SUB DUP2 ADD SWAP1 PUSH2 0x22C SWAP2 SWAP1 PUSH2 0x2FE6 JUMP JUMPDEST PUSH2 0x6F3 JUMP JUMPDEST STOP JUMPDEST PUSH2 0x24D PUSH1 0x4 DUP1 CALLDATASIZE SUB DUP2 ADD SWAP1 PUSH2 0x248 SWAP2 SWAP1 PUSH2 0x2FB9 JUMP JUMPDEST PUSH2 0x707 JUMP JUMPDEST STOP JUMPDEST PUSH2 0x269 PUSH1 0x4 DUP1 CALLDATASIZE SUB DUP2 ADD SWAP1 PUSH2 0x264 SWAP2 SWAP1 PUSH2 0x2FB9 JUMP JUMPDEST PUSH2 0x9AB JUMP JUMPDEST PUSH1 0x40 MLOAD PUSH2 0x277 SWAP3 SWAP2 SWAP1 PUSH2 0x310C JUMP JUMPDEST PUSH1 0x40 MLOAD DUP1 SWAP2 SUB SWAP1 RETURN JUMPDEST PUSH2 0x29A PUSH1 0x4 DUP1 CALLDATASIZE SUB DUP2 ADD SWAP1 PUSH2 0x295 SWAP2 SWAP1 PUSH2 0x3236 JUMP JUMPDEST PUSH2 0xA95 JUMP JUMPDEST STOP JUMPDEST PUSH2 0x2B6 PUSH1 0x4 DUP1 CALLDATASIZE SUB DUP2 ADD SWAP1 PUSH2 0x2B1 SWAP2 SWAP1 PUSH2 0x2FB9 JUMP JUMPDEST PUSH2 0xAAD JUMP JUMPDEST STOP JUMPDEST PUSH2 0x2C0 PUSH2 0xB1D JUMP JUMPDEST PUSH1 0x40 MLOAD PUSH2 0x2CD SWAP2 SWAP1 PUSH2 0x32DC JUMP JUMPDEST PUSH1 0x40 MLOAD DUP1 SWAP2 SUB SWAP1 RETURN JUMPDEST PUSH2 0x2DE PUSH2 0xB30 JUMP JUMPDEST PUSH1 0x40 MLOAD PUSH2 0x2EB SWAP2 SWAP1 PUSH2 0x3356 JUMP JUMPDEST PUSH1 0x40 MLOAD DUP1 SWAP2 SUB SWAP1 RETURN JUMPDEST PUSH2 0x30E PUSH1 0x4 DUP1 CALLDATASIZE SUB DUP2 ADD SWAP1 PUSH2 0x309 SWAP2 SWAP1 PUSH2 0x3371 JUMP JUMPDEST PUSH2 0xB56 JUMP JUMPDEST STOP JUMPDEST PUSH2 0x32A PUSH1 0x4 DUP1 CALLDATASIZE SUB DUP2 ADD SWAP1 PUSH2 0x325 SWAP2 SWAP1 PUSH2 0x33D6 JUMP JUMPDEST PUSH2 0xBBC JUMP JUMPDEST STOP JUMPDEST PUSH2 0x346 PUSH1 0x4 DUP1 CALLDATASIZE SUB DUP2 ADD SWAP1 PUSH2 0x341 SWAP2 SWAP1 PUSH2 0x2FE6 JUMP JUMPDEST PUSH2 0xF2F JUMP JUMPDEST PUSH1 0x40 MLOAD PUSH2 0x353 SWAP2 SWAP1 PUSH2 0x32DC JUMP JUMPDEST PUSH1 0x40 MLOAD DUP1 SWAP2 SUB SWAP1 RETURN JUMPDEST PUSH2 0x376 PUSH1 0x4 DUP1 CALLDATASIZE SUB DUP2 ADD SWAP1 PUSH2 0x371 SWAP2 SWAP1 PUSH2 0x3451 JUMP JUMPDEST PUSH2 0xF4F JUMP JUMPDEST STOP JUMPDEST PUSH2 0x380 PUSH2 0xFBF JUMP JUMPDEST STOP JUMPDEST PUSH2 0x38A PUSH2 0xFD3 JUMP JUMPDEST STOP JUMPDEST PUSH2 0x3A6 PUSH1 0x4 DUP1 CALLDATASIZE SUB DUP2 ADD SWAP1 PUSH2 0x3A1 SWAP2 SWAP1 PUSH2 0x34EB JUMP JUMPDEST PUSH2 0x1024 JUMP JUMPDEST STOP JUMPDEST PUSH2 0x3C2 PUSH1 0x4 DUP1 CALLDATASIZE SUB DUP2 ADD SWAP1 PUSH2 0x3BD SWAP2 SWAP1 PUSH2 0x3544 JUMP JUMPDEST PUSH2 0x117F JUMP JUMPDEST STOP JUMPDEST PUSH2 0x3DE PUSH1 0x4 DUP1 CALLDATASIZE SUB DUP2 ADD SWAP1 PUSH2 0x3D9 SWAP2 SWAP1 PUSH2 0x2FB9 JUMP JUMPDEST PUSH2 0x11CB JUMP JUMPDEST STOP JUMPDEST PUSH2 0x3FA PUSH1 0x4 DUP1 CALLDATASIZE SUB DUP2 ADD SWAP1 PUSH2 0x3F5 SWAP2 SWAP1 PUSH2 0x3571 JUMP JUMPDEST PUSH2 0x12D6 JUMP JUMPDEST STOP JUMPDEST PUSH2 0x404 PUSH2 0x131E JUMP JUMPDEST PUSH1 0x40 MLOAD PUSH2 0x411 SWAP2 SWAP1 PUSH2 0x35EE JUMP JUMPDEST PUSH1 0x40 MLOAD DUP1 SWAP2 SUB SWAP1 RETURN JUMPDEST PUSH2 0x422 PUSH2 0x1344 JUMP JUMPDEST PUSH1 0x40 MLOAD PUSH2 0x42F SWAP2 SWAP1 PUSH2 0x3618 JUMP JUMPDEST PUSH1 0x40 MLOAD DUP1 SWAP2 SUB SWAP1 RETURN JUMPDEST PUSH2 0x440 PUSH2 0x136E JUMP JUMPDEST PUSH1 0x40 MLOAD PUSH2 0x44D SWAP2 SWAP1 PUSH2 0x3654 JUMP JUMPDEST PUSH1 0x40 MLOAD DUP1 SWAP2 SUB SWAP1 RETURN JUMPDEST PUSH2 0x45E PUSH2 0x1394 JUMP JUMPDEST PUSH1 0x40 MLOAD PUSH2 0x46B SWAP2 SWAP1 PUSH2 0x3618 JUMP JUMPDEST PUSH1 0x40 MLOAD DUP1 SWAP2 SUB SWAP1 RETURN JUMPDEST PUSH2 0x48E PUSH1 0x4 DUP1 CALLDATASIZE SUB DUP2 ADD SWAP1 PUSH2 0x489 SWAP2 SWAP1 PUSH2 0x3732 JUMP JUMPDEST PUSH2 0x13BA JUMP JUMPDEST STOP JUMPDEST PUSH2 0x4AA PUSH1 0x4 DUP1 CALLDATASIZE SUB DUP2 ADD SWAP1 PUSH2 0x4A5 SWAP2 SWAP1 PUSH2 0x2FB9 JUMP JUMPDEST PUSH2 0x13CE JUMP JUMPDEST STOP JUMPDEST PUSH2 0x4C6 PUSH1 0x4 DUP1 CALLDATASIZE SUB DUP2 ADD SWAP1 PUSH2 0x4C1 SWAP2 SWAP1 PUSH2 0x2FB9 JUMP JUMPDEST PUSH2 0x1466 JUMP JUMPDEST PUSH1 0x40 MLOAD PUSH2 0x4D6 SWAP5 SWAP4 SWAP3 SWAP2 SWAP1 PUSH2 0x378A JUMP JUMPDEST PUSH1 0x40 MLOAD DUP1 SWAP2 SUB SWAP1 RETURN JUMPDEST PUSH2 0x4E7 PUSH2 0x14C3 JUMP JUMPDEST PUSH1 0x40 MLOAD PUSH2 0x4F4 SWAP2 SWAP1 PUSH2 0x37CF JUMP JUMPDEST PUSH1 0x40 MLOAD DUP1 SWAP2 SUB SWAP1 RETURN JUMPDEST PUSH2 0x517 PUSH1 0x4 DUP1 CALLDATASIZE SUB DUP2 ADD SWAP1 PUSH2 0x512 SWAP2 SWAP1 PUSH2 0x2FE6 JUMP JUMPDEST PUSH2 0x14D4 JUMP JUMPDEST STOP JUMPDEST PUSH2 0x533 PUSH1 0x4 DUP1 CALLDATASIZE SUB DUP2 ADD SWAP1 PUSH2 0x52E SWAP2 SWAP1 PUSH2 0x2FB9 JUMP JUMPDEST PUSH2 0x1557 JUMP JUMPDEST STOP JUMPDEST PUSH2 0x54F PUSH1 0x4 DUP1 CALLDATASIZE SUB DUP2 ADD SWAP1 PUSH2 0x54A SWAP2 SWAP1 PUSH2 0x38A4 JUMP JUMPDEST PUSH2 0x1565 JUMP JUMPDEST STOP JUMPDEST PUSH2 0x559 PUSH2 0x17F7 JUMP JUMPDEST PUSH1 0x0 DUP1 PUSH8 0xFFFFFFFFFFFFFFFF DUP2 GT ISZERO PUSH2 0x575 JUMPI PUSH2 0x574 PUSH2 0x2BF1 JUMP JUMPDEST JUMPDEST PUSH1 0x40 MLOAD SWAP1 DUP1 DUP3 MSTORE DUP1 PUSH1 0x20 MUL PUSH1 0x20 ADD DUP3 ADD PUSH1 0x40 MSTORE DUP1 ISZERO PUSH2 0x5A3 JUMPI DUP2 PUSH1 0x20 ADD PUSH1 0x20 DUP3 MUL DUP1 CALLDATASIZE DUP4 CALLDATACOPY DUP1 DUP3 ADD SWAP2 POP POP SWAP1 POP JUMPDEST POP SWAP1 POP PUSH2 0x5B1 DUP2 DUP5 DUP5 PUSH2 0x1875 JUMP JUMPDEST POP POP POP JUMP JUMPDEST PUSH2 0x5BE PUSH2 0x17F7 JUMP JUMPDEST PUSH1 0x0 PUSH1 0x66 PUSH1 0x1 SWAP1 SLOAD SWAP1 PUSH2 0x100 EXP SWAP1 DIV PUSH20 0xFFFFFFFFFFFFFFFFFFFFFFFFFFFFFFFFFFFFFFFF AND PUSH20 0xFFFFFFFFFFFFFFFFFFFFFFFFFFFFFFFFFFFFFFFF AND PUSH4 0x93F1A40B DUP4 ADDRESS PUSH1 0x40 MLOAD DUP4 PUSH4 0xFFFFFFFF AND PUSH1 0xE0 SHL DUP2 MSTORE PUSH1 0x4 ADD PUSH2 0x61D SWAP3 SWAP2 SWAP1 PUSH2 0x390B JUMP JUMPDEST PUSH1 0x40 DUP1 MLOAD DUP1 DUP4 SUB DUP2 DUP7 GAS STATICCALL ISZERO DUP1 ISZERO PUSH2 0x639 JUMPI RETURNDATASIZE PUSH1 0x0 DUP1 RETURNDATACOPY RETURNDATASIZE PUSH1 0x0 REVERT JUMPDEST POP POP POP POP PUSH1 0x40 MLOAD RETURNDATASIZE PUSH1 0x1F NOT PUSH1 0x1F DUP3 ADD AND DUP3 ADD DUP1 PUSH1 0x40 MSTORE POP DUP2 ADD SWAP1 PUSH2 0x65D SWAP2 SWAP1 PUSH2 0x3949 JUMP JUMPDEST POP SWAP1 POP PUSH1 0x66 PUSH1 0x1 SWAP1 SLOAD SWAP1 PUSH2 0x100 EXP SWAP1 DIV PUSH20 0xFFFFFFFFFFFFFFFFFFFFFFFFFFFFFFFFFFFFFFFF AND PUSH20 0xFFFFFFFFFFFFFFFFFFFFFFFFFFFFFFFFFFFFFFFF AND PUSH4 0x441A3E70 DUP4 DUP4 PUSH1 0x40 MLOAD DUP4 PUSH4 0xFFFFFFFF AND PUSH1 0xE0 SHL DUP2 MSTORE PUSH1 0x4 ADD PUSH2 0x6BD SWAP3 SWAP2 SWAP1 PUSH2 0x3989 JUMP JUMPDEST PUSH1 0x0 PUSH1 0x40 MLOAD DUP1 DUP4 SUB DUP2 PUSH1 0x0 DUP8 DUP1 EXTCODESIZE ISZERO DUP1 ISZERO PUSH2 0x6D7 JUMPI PUSH1 0x0 DUP1 REVERT JUMPDEST POP GAS CALL ISZERO DUP1 ISZERO PUSH2 0x6EB JUMPI RETURNDATASIZE PUSH1 0x0 DUP1 RETURNDATACOPY RETURNDATASIZE PUSH1 0x0 REVERT JUMPDEST POP POP POP POP POP POP JUMP JUMPDEST PUSH2 0x6FB PUSH2 0x17F7 JUMP JUMPDEST PUSH2 0x704 DUP2 PUSH2 0x1C4D JUMP JUMPDEST POP JUMP JUMPDEST PUSH2 0x70F PUSH2 0x17F7 JUMP JUMPDEST PUSH1 0x0 PUSH1 0x66 PUSH1 0x1 SWAP1 SLOAD SWAP1 PUSH2 0x100 EXP SWAP1 DIV PUSH20 0xFFFFFFFFFFFFFFFFFFFFFFFFFFFFFFFFFFFFFFFF AND PUSH20 0xFFFFFFFFFFFFFFFFFFFFFFFFFFFFFFFFFFFFFFFF AND PUSH4 0x2F380B35 DUP4 PUSH1 0x40 MLOAD DUP3 PUSH4 0xFFFFFFFF AND PUSH1 0xE0 SHL DUP2 MSTORE PUSH1 0x4 ADD PUSH2 0x76C SWAP2 SWAP1 PUSH2 0x37CF JUMP JUMPDEST PUSH1 0xE0 PUSH1 0x40 MLOAD DUP1 DUP4 SUB DUP2 DUP7 GAS STATICCALL ISZERO DUP1 ISZERO PUSH2 0x789 JUMPI RETURNDATASIZE PUSH1 0x0 DUP1 RETURNDATACOPY RETURNDATASIZE PUSH1 0x0 REVERT JUMPDEST POP POP POP POP PUSH1 0x40 MLOAD RETURNDATASIZE PUSH1 0x1F NOT PUSH1 0x1F DUP3 ADD AND DUP3 ADD DUP1 PUSH1 0x40 MSTORE POP DUP2 ADD SWAP1 PUSH2 0x7AD SWAP2 SWAP1 PUSH2 0x3A3F JUMP JUMPDEST POP POP POP POP POP POP SWAP1 POP PUSH1 0x0 DUP2 PUSH20 0xFFFFFFFFFFFFFFFFFFFFFFFFFFFFFFFFFFFFFFFF AND PUSH4 0x70A08231 ADDRESS PUSH1 0x40 MLOAD DUP3 PUSH4 0xFFFFFFFF AND PUSH1 0xE0 SHL DUP2 MSTORE PUSH1 0x4 ADD PUSH2 0x7F0 SWAP2 SWAP1 PUSH2 0x3618 JUMP JUMPDEST PUSH1 0x20 PUSH1 0x40 MLOAD DUP1 DUP4 SUB DUP2 DUP7 GAS STATICCALL ISZERO DUP1 ISZERO PUSH2 0x80D JUMPI RETURNDATASIZE PUSH1 0x0 DUP1 RETURNDATACOPY RETURNDATASIZE PUSH1 0x0 REVERT JUMPDEST POP POP POP POP PUSH1 0x40 MLOAD RETURNDATASIZE PUSH1 0x1F NOT PUSH1 0x1F DUP3 ADD AND DUP3 ADD DUP1 PUSH1 0x40 MSTORE POP DUP2 ADD SWAP1 PUSH2 0x831 SWAP2 SWAP1 PUSH2 0x3AE1 JUMP JUMPDEST SWAP1 POP PUSH1 0x0 DUP2 GT PUSH2 0x876 JUMPI PUSH1 0x40 MLOAD PUSH32 0x8C379A000000000000000000000000000000000000000000000000000000000 DUP2 MSTORE PUSH1 0x4 ADD PUSH2 0x86D SWAP1 PUSH2 0x3B91 JUMP JUMPDEST PUSH1 0x40 MLOAD DUP1 SWAP2 SUB SWAP1 REVERT JUMPDEST DUP2 PUSH20 0xFFFFFFFFFFFFFFFFFFFFFFFFFFFFFFFFFFFFFFFF AND PUSH4 0x95EA7B3 PUSH1 0x66 PUSH1 0x1 SWAP1 SLOAD SWAP1 PUSH2 0x100 EXP SWAP1 DIV PUSH20 0xFFFFFFFFFFFFFFFFFFFFFFFFFFFFFFFFFFFFFFFF AND DUP4 PUSH1 0x40 MLOAD DUP4 PUSH4 0xFFFFFFFF AND PUSH1 0xE0 SHL DUP2 MSTORE PUSH1 0x4 ADD PUSH2 0x8D3 SWAP3 SWAP2 SWAP1 PUSH2 0x3BB1 JUMP JUMPDEST PUSH1 0x20 PUSH1 0x40 MLOAD DUP1 DUP4 SUB DUP2 PUSH1 0x0 DUP8 GAS CALL ISZERO DUP1 ISZERO PUSH2 0x8F2 JUMPI RETURNDATASIZE PUSH1 0x0 DUP1 RETURNDATACOPY RETURNDATASIZE PUSH1 0x0 REVERT JUMPDEST POP POP POP POP PUSH1 0x40 MLOAD RETURNDATASIZE PUSH1 0x1F NOT PUSH1 0x1F DUP3 ADD AND DUP3 ADD DUP1 PUSH1 0x40 MSTORE POP DUP2 ADD SWAP1 PUSH2 0x916 SWAP2 SWAP1 PUSH2 0x3BEF JUMP JUMPDEST POP PUSH1 0x66 PUSH1 0x1 SWAP1 SLOAD SWAP1 PUSH2 0x100 EXP SWAP1 DIV PUSH20 0xFFFFFFFFFFFFFFFFFFFFFFFFFFFFFFFFFFFFFFFF AND PUSH20 0xFFFFFFFFFFFFFFFFFFFFFFFFFFFFFFFFFFFFFFFF AND PUSH4 0xE2BBB158 DUP5 DUP4 PUSH1 0x40 MLOAD DUP4 PUSH4 0xFFFFFFFF AND PUSH1 0xE0 SHL DUP2 MSTORE PUSH1 0x4 ADD PUSH2 0x974 SWAP3 SWAP2 SWAP1 PUSH2 0x3989 JUMP JUMPDEST PUSH1 0x0 PUSH1 0x40 MLOAD DUP1 DUP4 SUB DUP2 PUSH1 0x0 DUP8 DUP1 EXTCODESIZE ISZERO DUP1 ISZERO PUSH2 0x98E JUMPI PUSH1 0x0 DUP1 REVERT JUMPDEST POP GAS CALL ISZERO DUP1 ISZERO PUSH2 0x9A2 JUMPI RETURNDATASIZE PUSH1 0x0 DUP1 RETURNDATACOPY RETURNDATASIZE PUSH1 0x0 REVERT JUMPDEST POP POP POP POP POP POP POP JUMP JUMPDEST PUSH1 0x0 PUSH2 0x9B5 PUSH2 0x2B47 JUMP JUMPDEST PUSH2 0x9C9 DUP4 PUSH1 0x6B PUSH2 0x1CA8 SWAP1 SWAP2 SWAP1 PUSH4 0xFFFFFFFF AND JUMP JUMPDEST SWAP2 POP PUSH1 0x6A PUSH1 0x0 DUP4 DUP2 MSTORE PUSH1 0x20 ADD SWAP1 DUP2 MSTORE PUSH1 0x20 ADD PUSH1 0x0 KECCAK256 PUSH1 0x40 MLOAD DUP1 PUSH1 0x80 ADD PUSH1 0x40 MSTORE SWAP1 DUP2 PUSH1 0x0 DUP3 ADD PUSH1 0x0 SWAP1 SLOAD SWAP1 PUSH2 0x100 EXP SWAP1 DIV PUSH20 0xFFFFFFFFFFFFFFFFFFFFFFFFFFFFFFFFFFFFFFFF AND PUSH20 0xFFFFFFFFFFFFFFFFFFFFFFFFFFFFFFFFFFFFFFFF AND PUSH20 0xFFFFFFFFFFFFFFFFFFFFFFFFFFFFFFFFFFFFFFFF AND DUP2 MSTORE PUSH1 0x20 ADD PUSH1 0x0 DUP3 ADD PUSH1 0x14 SWAP1 SLOAD SWAP1 PUSH2 0x100 EXP SWAP1 DIV PUSH1 0xFF AND PUSH1 0x1 DUP2 GT ISZERO PUSH2 0xA64 JUMPI PUSH2 0xA63 PUSH2 0x3031 JUMP JUMPDEST JUMPDEST PUSH1 0x1 DUP2 GT ISZERO PUSH2 0xA76 JUMPI PUSH2 0xA75 PUSH2 0x3031 JUMP JUMPDEST JUMPDEST DUP2 MSTORE PUSH1 0x20 ADD PUSH1 0x1 DUP3 ADD SLOAD DUP2 MSTORE PUSH1 0x20 ADD PUSH1 0x2 DUP3 ADD SLOAD DUP2 MSTORE POP POP SWAP1 POP SWAP2 POP SWAP2 JUMP JUMPDEST PUSH2 0xA9D PUSH2 0x17F7 JUMP JUMPDEST PUSH2 0xAA8 DUP4 DUP4 DUP4 PUSH2 0x1875 JUMP JUMPDEST POP POP POP JUMP JUMPDEST PUSH1 0x0 PUSH2 0xAB7 PUSH2 0x14C3 JUMP JUMPDEST SWAP1 POP DUP1 DUP3 LT PUSH2 0xAFB JUMPI PUSH1 0x40 MLOAD PUSH32 0x8C379A000000000000000000000000000000000000000000000000000000000 DUP2 MSTORE PUSH1 0x4 ADD PUSH2 0xAF2 SWAP1 PUSH2 0x3C8E JUMP JUMPDEST PUSH1 0x40 MLOAD DUP1 SWAP2 SUB SWAP1 REVERT JUMPDEST PUSH2 0xB19 PUSH2 0xB12 DUP4 PUSH1 0x6B PUSH2 0x1CA8 SWAP1 SWAP2 SWAP1 PUSH4 0xFFFFFFFF AND JUMP JUMPDEST PUSH1 0x1 PUSH2 0x1CC2 JUMP JUMPDEST POP POP JUMP JUMPDEST PUSH1 0x66 PUSH1 0x0 SWAP1 SLOAD SWAP1 PUSH2 0x100 EXP SWAP1 DIV PUSH1 0xFF AND DUP2 JUMP JUMPDEST PUSH1 0x66 PUSH1 0x1 SWAP1 SLOAD SWAP1 PUSH2 0x100 EXP SWAP1 DIV PUSH20 0xFFFFFFFFFFFFFFFFFFFFFFFFFFFFFFFFFFFFFFFF AND DUP2 JUMP JUMPDEST PUSH2 0xB5E PUSH2 0x17F7 JUMP JUMPDEST PUSH1 0x0 PUSH1 0x6A PUSH1 0x0 DUP5 DUP2 MSTORE PUSH1 0x20 ADD SWAP1 DUP2 MSTORE PUSH1 0x20 ADD PUSH1 0x0 KECCAK256 SWAP1 POP DUP2 DUP2 PUSH1 0x2 ADD DUP2 SWAP1 SSTORE POP PUSH32 0x95E38BD01F38AE5905DF5C5F31D428BF51EE85E443D7D74A77E74775C1C41315 DUP4 DUP4 PUSH1 0x40 MLOAD PUSH2 0xBAF SWAP3 SWAP2 SWAP1 PUSH2 0x3989 JUMP JUMPDEST PUSH1 0x40 MLOAD DUP1 SWAP2 SUB SWAP1 LOG1 POP POP POP JUMP JUMPDEST PUSH2 0xBC4 PUSH2 0x17F7 JUMP JUMPDEST PUSH1 0x1 DUP1 DUP2 GT ISZERO PUSH2 0xBD7 JUMPI PUSH2 0xBD6 PUSH2 0x3031 JUMP JUMPDEST JUMPDEST DUP4 PUSH1 0x1 DUP2 GT ISZERO PUSH2 0xBEA JUMPI PUSH2 0xBE9 PUSH2 0x3031 JUMP JUMPDEST JUMPDEST SUB PUSH2 0xC40 JUMPI PUSH1 0x0 DUP3 EQ ISZERO DUP1 ISZERO PUSH2 0xC00 JUMPI POP CHAINID DUP3 EQ ISZERO JUMPDEST PUSH2 0xC3F JUMPI PUSH1 0x40 MLOAD PUSH32 0x8C379A000000000000000000000000000000000000000000000000000000000 DUP2 MSTORE PUSH1 0x4 ADD PUSH2 0xC36 SWAP1 PUSH2 0x3CFA JUMP JUMPDEST PUSH1 0x40 MLOAD DUP1 SWAP2 SUB SWAP1 REVERT JUMPDEST JUMPDEST PUSH1 0x0 PUSH20 0xFFFFFFFFFFFFFFFFFFFFFFFFFFFFFFFFFFFFFFFF AND DUP5 PUSH20 0xFFFFFFFFFFFFFFFFFFFFFFFFFFFFFFFFFFFFFFFF AND SUB PUSH2 0xCAF JUMPI PUSH1 0x40 MLOAD PUSH32 0x8C379A000000000000000000000000000000000000000000000000000000000 DUP2 MSTORE PUSH1 0x4 ADD PUSH2 0xCA6 SWAP1 PUSH2 0x3D8C JUMP JUMPDEST PUSH1 0x40 MLOAD DUP1 SWAP2 SUB SWAP1 REVERT JUMPDEST PUSH1 0x0 PUSH1 0x6A PUSH1 0x0 DUP8 DUP2 MSTORE PUSH1 0x20 ADD SWAP1 DUP2 MSTORE PUSH1 0x20 ADD PUSH1 0x0 KECCAK256 PUSH1 0x40 MLOAD DUP1 PUSH1 0x80 ADD PUSH1 0x40 MSTORE SWAP1 DUP2 PUSH1 0x0 DUP3 ADD PUSH1 0x0 SWAP1 SLOAD SWAP1 PUSH2 0x100 EXP SWAP1 DIV PUSH20 0xFFFFFFFFFFFFFFFFFFFFFFFFFFFFFFFFFFFFFFFF AND PUSH20 0xFFFFFFFFFFFFFFFFFFFFFFFFFFFFFFFFFFFFFFFF AND PUSH20 0xFFFFFFFFFFFFFFFFFFFFFFFFFFFFFFFFFFFFFFFF AND DUP2 MSTORE PUSH1 0x20 ADD PUSH1 0x0 DUP3 ADD PUSH1 0x14 SWAP1 SLOAD SWAP1 PUSH2 0x100 EXP SWAP1 DIV PUSH1 0xFF AND PUSH1 0x1 DUP2 GT ISZERO PUSH2 0xD4A JUMPI PUSH2 0xD49 PUSH2 0x3031 JUMP JUMPDEST JUMPDEST PUSH1 0x1 DUP2 GT ISZERO PUSH2 0xD5C JUMPI PUSH2 0xD5B PUSH2 0x3031 JUMP JUMPDEST JUMPDEST DUP2 MSTORE PUSH1 0x20 ADD PUSH1 0x1 DUP3 ADD SLOAD DUP2 MSTORE PUSH1 0x20 ADD PUSH1 0x2 DUP3 ADD SLOAD DUP2 MSTORE POP POP SWAP1 POP PUSH1 0x0 PUSH20 0xFFFFFFFFFFFFFFFFFFFFFFFFFFFFFFFFFFFFFFFF AND DUP2 PUSH1 0x0 ADD MLOAD PUSH20 0xFFFFFFFFFFFFFFFFFFFFFFFFFFFFFFFFFFFFFFFF AND EQ PUSH2 0xDE9 JUMPI PUSH1 0x40 MLOAD PUSH32 0x8C379A000000000000000000000000000000000000000000000000000000000 DUP2 MSTORE PUSH1 0x4 ADD PUSH2 0xDE0 SWAP1 PUSH2 0x3E1E JUMP JUMPDEST PUSH1 0x40 MLOAD DUP1 SWAP2 SUB SWAP1 REVERT JUMPDEST PUSH1 0x40 MLOAD DUP1 PUSH1 0x80 ADD PUSH1 0x40 MSTORE DUP1 DUP7 PUSH20 0xFFFFFFFFFFFFFFFFFFFFFFFFFFFFFFFFFFFFFFFF AND DUP2 MSTORE PUSH1 0x20 ADD DUP6 PUSH1 0x1 DUP2 GT ISZERO PUSH2 0xE23 JUMPI PUSH2 0xE22 PUSH2 0x3031 JUMP JUMPDEST JUMPDEST DUP2 MSTORE PUSH1 0x20 ADD DUP5 DUP2 MSTORE PUSH1 0x20 ADD DUP4 DUP2 MSTORE POP PUSH1 0x6A PUSH1 0x0 DUP9 DUP2 MSTORE PUSH1 0x20 ADD SWAP1 DUP2 MSTORE PUSH1 0x20 ADD PUSH1 0x0 KECCAK256 PUSH1 0x0 DUP3 ADD MLOAD DUP2 PUSH1 0x0 ADD PUSH1 0x0 PUSH2 0x100 EXP DUP2 SLOAD DUP2 PUSH20 0xFFFFFFFFFFFFFFFFFFFFFFFFFFFFFFFFFFFFFFFF MUL NOT AND SWAP1 DUP4 PUSH20 0xFFFFFFFFFFFFFFFFFFFFFFFFFFFFFFFFFFFFFFFF AND MUL OR SWAP1 SSTORE POP PUSH1 0x20 DUP3 ADD MLOAD DUP2 PUSH1 0x0 ADD PUSH1 0x14 PUSH2 0x100 EXP DUP2 SLOAD DUP2 PUSH1 0xFF MUL NOT AND SWAP1 DUP4 PUSH1 0x1 DUP2 GT ISZERO PUSH2 0xEB7 JUMPI PUSH2 0xEB6 PUSH2 0x3031 JUMP JUMPDEST JUMPDEST MUL OR SWAP1 SSTORE POP PUSH1 0x40 DUP3 ADD MLOAD DUP2 PUSH1 0x1 ADD SSTORE PUSH1 0x60 DUP3 ADD MLOAD DUP2 PUSH1 0x2 ADD SSTORE SWAP1 POP POP PUSH2 0xEE7 DUP7 PUSH1 0x6B PUSH2 0x23B2 SWAP1 SWAP2 SWAP1 PUSH4 0xFFFFFFFF AND JUMP JUMPDEST POP PUSH32 0xEE7BDF422290460712739F8AC94AB12DF8FEDCEC5893B08A7C49FD10A50B4CC6 DUP7 DUP7 DUP7 DUP7 DUP7 PUSH1 0x40 MLOAD PUSH2 0xF1F SWAP6 SWAP5 SWAP4 SWAP3 SWAP2 SWAP1 PUSH2 0x3E3E JUMP JUMPDEST PUSH1 0x40 MLOAD DUP1 SWAP2 SUB SWAP1 LOG1 POP POP POP POP POP POP JUMP JUMPDEST PUSH1 0x65 PUSH1 0x20 MSTORE DUP1 PUSH1 0x0 MSTORE PUSH1 0x40 PUSH1 0x0 KECCAK256 PUSH1 0x0 SWAP2 POP SLOAD SWAP1 PUSH2 0x100 EXP SWAP1 DIV PUSH1 0xFF AND DUP2 JUMP JUMPDEST PUSH2 0xF57 PUSH2 0x17F7 JUMP JUMPDEST PUSH1 0x0 DUP1 PUSH8 0xFFFFFFFFFFFFFFFF DUP2 GT ISZERO PUSH2 0xF73 JUMPI PUSH2 0xF72 PUSH2 0x2BF1 JUMP JUMPDEST JUMPDEST PUSH1 0x40 MLOAD SWAP1 DUP1 DUP3 MSTORE DUP1 PUSH1 0x20 MUL PUSH1 0x20 ADD DUP3 ADD PUSH1 0x40 MSTORE DUP1 ISZERO PUSH2 0xFAC JUMPI DUP2 PUSH1 0x20 ADD JUMPDEST PUSH2 0xF99 PUSH2 0x2B97 JUMP JUMPDEST DUP2 MSTORE PUSH1 0x20 ADD SWAP1 PUSH1 0x1 SWAP1 SUB SWAP1 DUP2 PUSH2 0xF91 JUMPI SWAP1 POP JUMPDEST POP SWAP1 POP PUSH2 0xFBA DUP4 DUP3 DUP5 PUSH2 0x1875 JUMP JUMPDEST POP POP POP JUMP JUMPDEST PUSH2 0xFC7 PUSH2 0x17F7 JUMP JUMPDEST PUSH2 0xFD1 PUSH1 0x0 PUSH2 0x23CC JUMP JUMPDEST JUMP JUMPDEST PUSH2 0xFDB PUSH2 0x17F7 JUMP JUMPDEST PUSH1 0x0 PUSH1 0x66 PUSH1 0x0 PUSH2 0x100 EXP DUP2 SLOAD DUP2 PUSH1 0xFF MUL NOT AND SWAP1 DUP4 ISZERO ISZERO MUL OR SWAP1 SSTORE POP PUSH32 0xE042EE5DA861C33411D0AA3BCE3B088A1DFFD3088468AC162159DDD887F99E3E PUSH1 0x40 MLOAD PUSH1 0x40 MLOAD DUP1 SWAP2 SUB SWAP1 LOG1 JUMP JUMPDEST PUSH2 0x102C PUSH2 0x17F7 JUMP JUMPDEST PUSH1 0x66 PUSH1 0x0 SWAP1 SLOAD SWAP1 PUSH2 0x100 EXP SWAP1 DIV PUSH1 0xFF AND PUSH2 0x107B JUMPI PUSH1 0x40 MLOAD PUSH32 0x8C379A000000000000000000000000000000000000000000000000000000000 DUP2 MSTORE PUSH1 0x4 ADD PUSH2 0x1072 SWAP1 PUSH2 0x3EDD JUMP JUMPDEST PUSH1 0x40 MLOAD DUP1 SWAP2 SUB SWAP1 REVERT JUMPDEST PUSH1 0x0 SELFBALANCE SWAP1 POP PUSH1 0x0 DUP3 PUSH20 0xFFFFFFFFFFFFFFFFFFFFFFFFFFFFFFFFFFFFFFFF AND DUP3 PUSH1 0x40 MLOAD PUSH2 0x10A6 SWAP1 PUSH2 0x3F2E JUMP JUMPDEST PUSH1 0x0 PUSH1 0x40 MLOAD DUP1 DUP4 SUB DUP2 DUP6 DUP8 GAS CALL SWAP3 POP POP POP RETURNDATASIZE DUP1 PUSH1 0x0 DUP2 EQ PUSH2 0x10E3 JUMPI PUSH1 0x40 MLOAD SWAP2 POP PUSH1 0x1F NOT PUSH1 0x3F RETURNDATASIZE ADD AND DUP3 ADD PUSH1 0x40 MSTORE RETURNDATASIZE DUP3 MSTORE RETURNDATASIZE PUSH1 0x0 PUSH1 0x20 DUP5 ADD RETURNDATACOPY PUSH2 0x10E8 JUMP JUMPDEST PUSH1 0x60 SWAP2 POP JUMPDEST POP POP SWAP1 POP DUP1 PUSH2 0x112C JUMPI PUSH1 0x40 MLOAD PUSH32 0x8C379A000000000000000000000000000000000000000000000000000000000 DUP2 MSTORE PUSH1 0x4 ADD PUSH2 0x1123 SWAP1 PUSH2 0x3F8F JUMP JUMPDEST PUSH1 0x40 MLOAD DUP1 SWAP2 SUB SWAP1 REVERT JUMPDEST DUP3 PUSH20 0xFFFFFFFFFFFFFFFFFFFFFFFFFFFFFFFFFFFFFFFF AND PUSH32 0xDC495BD3B5344FCB85FF9C1B44EBFD7D2D9EE001C0826360FDBC13665F9CB4ED DUP4 PUSH1 0x40 MLOAD PUSH2 0x1172 SWAP2 SWAP1 PUSH2 0x37CF JUMP JUMPDEST PUSH1 0x40 MLOAD DUP1 SWAP2 SUB SWAP1 LOG2 POP POP POP JUMP JUMPDEST PUSH1 0x0 PUSH2 0x1189 PUSH2 0x14C3 JUMP JUMPDEST SWAP1 POP PUSH1 0x0 JUMPDEST DUP2 DUP2 LT ISZERO PUSH2 0x11C6 JUMPI PUSH2 0x11B3 PUSH2 0x11AD DUP3 PUSH1 0x6B PUSH2 0x1CA8 SWAP1 SWAP2 SWAP1 PUSH4 0xFFFFFFFF AND JUMP JUMPDEST DUP5 PUSH2 0x1CC2 JUMP JUMPDEST DUP1 DUP1 PUSH2 0x11BE SWAP1 PUSH2 0x3FDE JUMP JUMPDEST SWAP2 POP POP PUSH2 0x118E JUMP JUMPDEST POP POP POP JUMP JUMPDEST PUSH2 0x11D3 PUSH2 0x17F7 JUMP JUMPDEST PUSH2 0x11E7 DUP2 PUSH1 0x6B PUSH2 0x2492 SWAP1 SWAP2 SWAP1 PUSH4 0xFFFFFFFF AND JUMP JUMPDEST PUSH2 0x1226 JUMPI PUSH1 0x40 MLOAD PUSH32 0x8C379A000000000000000000000000000000000000000000000000000000000 DUP2 MSTORE PUSH1 0x4 ADD PUSH2 0x121D SWAP1 PUSH2 0x4072 JUMP JUMPDEST PUSH1 0x40 MLOAD DUP1 SWAP2 SUB SWAP1 REVERT JUMPDEST PUSH2 0x123A DUP2 PUSH1 0x6B PUSH2 0x24AC SWAP1 SWAP2 SWAP1 PUSH4 0xFFFFFFFF AND JUMP JUMPDEST POP PUSH1 0x6A PUSH1 0x0 DUP3 DUP2 MSTORE PUSH1 0x20 ADD SWAP1 DUP2 MSTORE PUSH1 0x20 ADD PUSH1 0x0 KECCAK256 PUSH1 0x0 DUP1 DUP3 ADD PUSH1 0x0 PUSH2 0x100 EXP DUP2 SLOAD SWAP1 PUSH20 0xFFFFFFFFFFFFFFFFFFFFFFFFFFFFFFFFFFFFFFFF MUL NOT AND SWAP1 SSTORE PUSH1 0x0 DUP3 ADD PUSH1 0x14 PUSH2 0x100 EXP DUP2 SLOAD SWAP1 PUSH1 0xFF MUL NOT AND SWAP1 SSTORE PUSH1 0x1 DUP3 ADD PUSH1 0x0 SWAP1 SSTORE PUSH1 0x2 DUP3 ADD PUSH1 0x0 SWAP1 SSTORE POP POP PUSH32 0xEDA868B56895A221EC5BE172A1253E729185A13DD6B368B9CC4C4CB53AEBE541 DUP2 PUSH1 0x40 MLOAD PUSH2 0x12CB SWAP2 SWAP1 PUSH2 0x37CF JUMP JUMPDEST PUSH1 0x40 MLOAD DUP1 SWAP2 SUB SWAP1 LOG1 POP JUMP JUMPDEST PUSH1 0x0 JUMPDEST DUP3 MLOAD DUP2 LT ISZERO PUSH2 0x1319 JUMPI PUSH2 0x1306 DUP4 DUP3 DUP2 MLOAD DUP2 LT PUSH2 0x12F8 JUMPI PUSH2 0x12F7 PUSH2 0x4092 JUMP JUMPDEST JUMPDEST PUSH1 0x20 MUL PUSH1 0x20 ADD ADD MLOAD DUP4 PUSH2 0x1CC2 JUMP JUMPDEST DUP1 DUP1 PUSH2 0x1311 SWAP1 PUSH2 0x3FDE JUMP JUMPDEST SWAP2 POP POP PUSH2 0x12D9 JUMP JUMPDEST POP POP POP JUMP JUMPDEST PUSH1 0x67 PUSH1 0x0 SWAP1 SLOAD SWAP1 PUSH2 0x100 EXP SWAP1 DIV PUSH20 0xFFFFFFFFFFFFFFFFFFFFFFFFFFFFFFFFFFFFFFFF AND DUP2 JUMP JUMPDEST PUSH1 0x0 PUSH1 0x33 PUSH1 0x0 SWAP1 SLOAD SWAP1 PUSH2 0x100 EXP SWAP1 DIV PUSH20 0xFFFFFFFFFFFFFFFFFFFFFFFFFFFFFFFFFFFFFFFF AND SWAP1 POP SWAP1 JUMP JUMPDEST PUSH1 0x69 PUSH1 0x0 SWAP1 SLOAD SWAP1 PUSH2 0x100 EXP SWAP1 DIV PUSH20 0xFFFFFFFFFFFFFFFFFFFFFFFFFFFFFFFFFFFFFFFF AND DUP2 JUMP JUMPDEST PUSH1 0x68 PUSH1 0x0 SWAP1 SLOAD SWAP1 PUSH2 0x100 EXP SWAP1 DIV PUSH20 0xFFFFFFFFFFFFFFFFFFFFFFFFFFFFFFFFFFFFFFFF AND DUP2 JUMP JUMPDEST PUSH2 0x13C2 PUSH2 0x17F7 JUMP JUMPDEST PUSH2 0x13CB DUP2 PUSH2 0x24C6 JUMP JUMPDEST POP JUMP JUMPDEST PUSH2 0x13D6 PUSH2 0x17F7 JUMP JUMPDEST PUSH1 0x66 PUSH1 0x1 SWAP1 SLOAD SWAP1 PUSH2 0x100 EXP SWAP1 DIV PUSH20 0xFFFFFFFFFFFFFFFFFFFFFFFFFFFFFFFFFFFFFFFF AND PUSH20 0xFFFFFFFFFFFFFFFFFFFFFFFFFFFFFFFFFFFFFFFF AND PUSH4 0x5312EA8E DUP3 PUSH1 0x40 MLOAD DUP3 PUSH4 0xFFFFFFFF AND PUSH1 0xE0 SHL DUP2 MSTORE PUSH1 0x4 ADD PUSH2 0x1431 SWAP2 SWAP1 PUSH2 0x37CF JUMP JUMPDEST PUSH1 0x0 PUSH1 0x40 MLOAD DUP1 DUP4 SUB DUP2 PUSH1 0x0 DUP8 DUP1 EXTCODESIZE ISZERO DUP1 ISZERO PUSH2 0x144B JUMPI PUSH1 0x0 DUP1 REVERT JUMPDEST POP GAS CALL ISZERO DUP1 ISZERO PUSH2 0x145F JUMPI RETURNDATASIZE PUSH1 0x0 DUP1 RETURNDATACOPY RETURNDATASIZE PUSH1 0x0 REVERT JUMPDEST POP POP POP POP POP JUMP JUMPDEST PUSH1 0x6A PUSH1 0x20 MSTORE DUP1 PUSH1 0x0 MSTORE PUSH1 0x40 PUSH1 0x0 KECCAK256 PUSH1 0x0 SWAP2 POP SWAP1 POP DUP1 PUSH1 0x0 ADD PUSH1 0x0 SWAP1 SLOAD SWAP1 PUSH2 0x100 EXP SWAP1 DIV PUSH20 0xFFFFFFFFFFFFFFFFFFFFFFFFFFFFFFFFFFFFFFFF AND SWAP1 DUP1 PUSH1 0x0 ADD PUSH1 0x14 SWAP1 SLOAD SWAP1 PUSH2 0x100 EXP SWAP1 DIV PUSH1 0xFF AND SWAP1 DUP1 PUSH1 0x1 ADD SLOAD SWAP1 DUP1 PUSH1 0x2 ADD SLOAD SWAP1 POP DUP5 JUMP JUMPDEST PUSH1 0x0 PUSH2 0x14CF PUSH1 0x6B PUSH2 0x250C JUMP JUMPDEST SWAP1 POP SWAP1 JUMP JUMPDEST PUSH2 0x14DC PUSH2 0x17F7 JUMP JUMPDEST PUSH1 0x0 PUSH20 0xFFFFFFFFFFFFFFFFFFFFFFFFFFFFFFFFFFFFFFFF AND DUP2 PUSH20 0xFFFFFFFFFFFFFFFFFFFFFFFFFFFFFFFFFFFFFFFF AND SUB PUSH2 0x154B JUMPI PUSH1 0x40 MLOAD PUSH32 0x8C379A000000000000000000000000000000000000000000000000000000000 DUP2 MSTORE PUSH1 0x4 ADD PUSH2 0x1542 SWAP1 PUSH2 0x4133 JUMP JUMPDEST PUSH1 0x40 MLOAD DUP1 SWAP2 SUB SWAP1 REVERT JUMPDEST PUSH2 0x1554 DUP2 PUSH2 0x23CC JUMP JUMPDEST POP JUMP JUMPDEST PUSH2 0x1562 DUP2 PUSH1 0x1 PUSH2 0x1CC2 JUMP JUMPDEST POP JUMP JUMPDEST PUSH1 0x0 DUP1 PUSH1 0x1 SWAP1 SLOAD SWAP1 PUSH2 0x100 EXP SWAP1 DIV PUSH1 0xFF AND ISZERO SWAP1 POP DUP1 DUP1 ISZERO PUSH2 0x1596 JUMPI POP PUSH1 0x1 PUSH1 0x0 DUP1 SLOAD SWAP1 PUSH2 0x100 EXP SWAP1 DIV PUSH1 0xFF AND PUSH1 0xFF AND LT JUMPDEST DUP1 PUSH2 0x15C3 JUMPI POP PUSH2 0x15A5 ADDRESS PUSH2 0x2521 JUMP JUMPDEST ISZERO DUP1 ISZERO PUSH2 0x15C2 JUMPI POP PUSH1 0x1 PUSH1 0x0 DUP1 SLOAD SWAP1 PUSH2 0x100 EXP SWAP1 DIV PUSH1 0xFF AND PUSH1 0xFF AND EQ JUMPDEST JUMPDEST PUSH2 0x1602 JUMPI PUSH1 0x40 MLOAD PUSH32 0x8C379A000000000000000000000000000000000000000000000000000000000 DUP2 MSTORE PUSH1 0x4 ADD PUSH2 0x15F9 SWAP1 PUSH2 0x41C5 JUMP JUMPDEST PUSH1 0x40 MLOAD DUP1 SWAP2 SUB SWAP1 REVERT JUMPDEST PUSH1 0x1 PUSH1 0x0 DUP1 PUSH2 0x100 EXP DUP2 SLOAD DUP2 PUSH1 0xFF MUL NOT AND SWAP1 DUP4 PUSH1 0xFF AND MUL OR SWAP1 SSTORE POP DUP1 ISZERO PUSH2 0x163F JUMPI PUSH1 0x1 PUSH1 0x0 PUSH1 0x1 PUSH2 0x100 EXP DUP2 SLOAD DUP2 PUSH1 0xFF MUL NOT AND SWAP1 DUP4 ISZERO ISZERO MUL OR SWAP1 SSTORE POP JUMPDEST PUSH2 0x1693 PUSH1 0x0 PUSH8 0xFFFFFFFFFFFFFFFF DUP2 GT ISZERO PUSH2 0x165D JUMPI PUSH2 0x165C PUSH2 0x2BF1 JUMP JUMPDEST JUMPDEST PUSH1 0x40 MLOAD SWAP1 DUP1 DUP3 MSTORE DUP1 PUSH1 0x20 MUL PUSH1 0x20 ADD DUP3 ADD PUSH1 0x40 MSTORE DUP1 ISZERO PUSH2 0x168B JUMPI DUP2 PUSH1 0x20 ADD PUSH1 0x20 DUP3 MUL DUP1 CALLDATASIZE DUP4 CALLDATACOPY DUP1 DUP3 ADD SWAP2 POP POP SWAP1 POP JUMPDEST POP PUSH1 0x1 PUSH2 0x2544 JUMP JUMPDEST DUP5 PUSH1 0x66 PUSH1 0x1 PUSH2 0x100 EXP DUP2 SLOAD DUP2 PUSH20 0xFFFFFFFFFFFFFFFFFFFFFFFFFFFFFFFFFFFFFFFF MUL NOT AND SWAP1 DUP4 PUSH20 0xFFFFFFFFFFFFFFFFFFFFFFFFFFFFFFFFFFFFFFFF AND MUL OR SWAP1 SSTORE POP DUP4 PUSH1 0x67 PUSH1 0x0 PUSH2 0x100 EXP DUP2 SLOAD DUP2 PUSH20 0xFFFFFFFFFFFFFFFFFFFFFFFFFFFFFFFFFFFFFFFF MUL NOT AND SWAP1 DUP4 PUSH20 0xFFFFFFFFFFFFFFFFFFFFFFFFFFFFFFFFFFFFFFFF AND MUL OR SWAP1 SSTORE POP DUP3 PUSH1 0x68 PUSH1 0x0 PUSH2 0x100 EXP DUP2 SLOAD DUP2 PUSH20 0xFFFFFFFFFFFFFFFFFFFFFFFFFFFFFFFFFFFFFFFF MUL NOT AND SWAP1 DUP4 PUSH20 0xFFFFFFFFFFFFFFFFFFFFFFFFFFFFFFFFFFFFFFFF AND MUL OR SWAP1 SSTORE POP DUP2 PUSH1 0x69 PUSH1 0x0 PUSH2 0x100 EXP DUP2 SLOAD DUP2 PUSH20 0xFFFFFFFFFFFFFFFFFFFFFFFFFFFFFFFFFFFFFFFF MUL NOT AND SWAP1 DUP4 PUSH20 0xFFFFFFFFFFFFFFFFFFFFFFFFFFFFFFFFFFFFFFFF AND MUL OR SWAP1 SSTORE POP DUP1 ISZERO PUSH2 0x17F0 JUMPI PUSH1 0x0 DUP1 PUSH1 0x1 PUSH2 0x100 EXP DUP2 SLOAD DUP2 PUSH1 0xFF MUL NOT AND SWAP1 DUP4 ISZERO ISZERO MUL OR SWAP1 SSTORE POP PUSH32 0x7F26B83FF96E1F2B6A682F133852F6798A09C465DA95921460CEFB3847402498 PUSH1 0x1 PUSH1 0x40 MLOAD PUSH2 0x17E7 SWAP2 SWAP1 PUSH2 0x422D JUMP JUMPDEST PUSH1 0x40 MLOAD DUP1 SWAP2 SUB SWAP1 LOG1 JUMPDEST POP POP POP POP POP JUMP JUMPDEST PUSH2 0x17FF PUSH2 0x25C2 JUMP JUMPDEST PUSH20 0xFFFFFFFFFFFFFFFFFFFFFFFFFFFFFFFFFFFFFFFF AND PUSH2 0x181D PUSH2 0x1344 JUMP JUMPDEST PUSH20 0xFFFFFFFFFFFFFFFFFFFFFFFFFFFFFFFFFFFFFFFF AND EQ PUSH2 0x1873 JUMPI PUSH1 0x40 MLOAD PUSH32 0x8C379A000000000000000000000000000000000000000000000000000000000 DUP2 MSTORE PUSH1 0x4 ADD PUSH2 0x186A SWAP1 PUSH2 0x4294 JUMP JUMPDEST PUSH1 0x40 MLOAD DUP1 SWAP2 SUB SWAP1 REVERT JUMPDEST JUMP JUMPDEST PUSH1 0x0 JUMPDEST DUP4 MLOAD DUP2 LT ISZERO PUSH2 0x1A50 JUMPI PUSH1 0x0 DUP5 DUP3 DUP2 MLOAD DUP2 LT PUSH2 0x1896 JUMPI PUSH2 0x1895 PUSH2 0x4092 JUMP JUMPDEST JUMPDEST PUSH1 0x20 MUL PUSH1 0x20 ADD ADD MLOAD SWAP1 POP PUSH1 0x65 PUSH1 0x0 DUP3 PUSH20 0xFFFFFFFFFFFFFFFFFFFFFFFFFFFFFFFFFFFFFFFF AND PUSH20 0xFFFFFFFFFFFFFFFFFFFFFFFFFFFFFFFFFFFFFFFF AND DUP2 MSTORE PUSH1 0x20 ADD SWAP1 DUP2 MSTORE PUSH1 0x20 ADD PUSH1 0x0 KECCAK256 PUSH1 0x0 SWAP1 SLOAD SWAP1 PUSH2 0x100 EXP SWAP1 DIV PUSH1 0xFF AND ISZERO PUSH2 0x192D JUMPI PUSH1 0x40 MLOAD PUSH32 0x8C379A000000000000000000000000000000000000000000000000000000000 DUP2 MSTORE PUSH1 0x4 ADD PUSH2 0x1924 SWAP1 PUSH2 0x4300 JUMP JUMPDEST PUSH1 0x40 MLOAD DUP1 SWAP2 SUB SWAP1 REVERT JUMPDEST PUSH1 0x0 DUP2 PUSH20 0xFFFFFFFFFFFFFFFFFFFFFFFFFFFFFFFFFFFFFFFF AND PUSH4 0x70A08231 ADDRESS PUSH1 0x40 MLOAD DUP3 PUSH4 0xFFFFFFFF AND PUSH1 0xE0 SHL DUP2 MSTORE PUSH1 0x4 ADD PUSH2 0x1968 SWAP2 SWAP1 PUSH2 0x3618 JUMP JUMPDEST PUSH1 0x20 PUSH1 0x40 MLOAD DUP1 DUP4 SUB DUP2 DUP7 GAS STATICCALL ISZERO DUP1 ISZERO PUSH2 0x1985 JUMPI RETURNDATASIZE PUSH1 0x0 DUP1 RETURNDATACOPY RETURNDATASIZE PUSH1 0x0 REVERT JUMPDEST POP POP POP POP PUSH1 0x40 MLOAD RETURNDATASIZE PUSH1 0x1F NOT PUSH1 0x1F DUP3 ADD AND DUP3 ADD DUP1 PUSH1 0x40 MSTORE POP DUP2 ADD SWAP1 PUSH2 0x19A9 SWAP2 SWAP1 PUSH2 0x3AE1 JUMP JUMPDEST SWAP1 POP PUSH2 0x19D6 DUP5 DUP3 DUP5 PUSH20 0xFFFFFFFFFFFFFFFFFFFFFFFFFFFFFFFFFFFFFFFF AND PUSH2 0x25CA SWAP1 SWAP3 SWAP2 SWAP1 PUSH4 0xFFFFFFFF AND JUMP JUMPDEST DUP2 PUSH20 0xFFFFFFFFFFFFFFFFFFFFFFFFFFFFFFFFFFFFFFFF AND DUP5 PUSH20 0xFFFFFFFFFFFFFFFFFFFFFFFFFFFFFFFFFFFFFFFF AND PUSH32 0x5BF76EF0DB3550A96F76D3C13DFA002B5E1DF9E4C4D65DCE31F074C670B8B648 DUP4 PUSH1 0x40 MLOAD PUSH2 0x1A33 SWAP2 SWAP1 PUSH2 0x37CF JUMP JUMPDEST PUSH1 0x40 MLOAD DUP1 SWAP2 SUB SWAP1 LOG3 POP POP DUP1 DUP1 PUSH2 0x1A48 SWAP1 PUSH2 0x3FDE JUMP JUMPDEST SWAP2 POP POP PUSH2 0x1878 JUMP JUMPDEST POP PUSH1 0x0 JUMPDEST DUP3 MLOAD DUP2 LT ISZERO PUSH2 0x1BEE JUMPI PUSH1 0x0 DUP4 DUP3 DUP2 MLOAD DUP2 LT PUSH2 0x1A72 JUMPI PUSH2 0x1A71 PUSH2 0x4092 JUMP JUMPDEST JUMPDEST PUSH1 0x20 MUL PUSH1 0x20 ADD ADD MLOAD PUSH1 0x0 ADD MLOAD SWAP1 POP PUSH1 0x65 PUSH1 0x0 DUP3 PUSH20 0xFFFFFFFFFFFFFFFFFFFFFFFFFFFFFFFFFFFFFFFF AND PUSH20 0xFFFFFFFFFFFFFFFFFFFFFFFFFFFFFFFFFFFFFFFF AND DUP2 MSTORE PUSH1 0x20 ADD SWAP1 DUP2 MSTORE PUSH1 0x20 ADD PUSH1 0x0 KECCAK256 PUSH1 0x0 SWAP1 SLOAD SWAP1 PUSH2 0x100 EXP SWAP1 DIV PUSH1 0xFF AND ISZERO PUSH2 0x1B0D JUMPI PUSH1 0x40 MLOAD PUSH32 0x8C379A000000000000000000000000000000000000000000000000000000000 DUP2 MSTORE PUSH1 0x4 ADD PUSH2 0x1B04 SWAP1 PUSH2 0x4300 JUMP JUMPDEST PUSH1 0x40 MLOAD DUP1 SWAP2 SUB SWAP1 REVERT JUMPDEST PUSH1 0x0 DUP5 DUP4 DUP2 MLOAD DUP2 LT PUSH2 0x1B22 JUMPI PUSH2 0x1B21 PUSH2 0x4092 JUMP JUMPDEST JUMPDEST PUSH1 0x20 MUL PUSH1 0x20 ADD ADD MLOAD PUSH1 0x20 ADD MLOAD SWAP1 POP PUSH1 0x0 JUMPDEST DUP2 MLOAD DUP2 LT ISZERO PUSH2 0x1BD8 JUMPI DUP3 PUSH20 0xFFFFFFFFFFFFFFFFFFFFFFFFFFFFFFFFFFFFFFFF AND PUSH4 0x42842E0E ADDRESS DUP8 DUP6 DUP6 DUP2 MLOAD DUP2 LT PUSH2 0x1B6D JUMPI PUSH2 0x1B6C PUSH2 0x4092 JUMP JUMPDEST JUMPDEST PUSH1 0x20 MUL PUSH1 0x20 ADD ADD MLOAD PUSH1 0x40 MLOAD DUP5 PUSH4 0xFFFFFFFF AND PUSH1 0xE0 SHL DUP2 MSTORE PUSH1 0x4 ADD PUSH2 0x1B93 SWAP4 SWAP3 SWAP2 SWAP1 PUSH2 0x4320 JUMP JUMPDEST PUSH1 0x0 PUSH1 0x40 MLOAD DUP1 DUP4 SUB DUP2 PUSH1 0x0 DUP8 DUP1 EXTCODESIZE ISZERO DUP1 ISZERO PUSH2 0x1BAD JUMPI PUSH1 0x0 DUP1 REVERT JUMPDEST POP GAS CALL ISZERO DUP1 ISZERO PUSH2 0x1BC1 JUMPI RETURNDATASIZE PUSH1 0x0 DUP1 RETURNDATACOPY RETURNDATASIZE PUSH1 0x0 REVERT JUMPDEST POP POP POP POP DUP1 DUP1 PUSH2 0x1BD0 SWAP1 PUSH2 0x3FDE JUMP JUMPDEST SWAP2 POP POP PUSH2 0x1B33 JUMP JUMPDEST POP POP POP DUP1 DUP1 PUSH2 0x1BE6 SWAP1 PUSH2 0x3FDE JUMP JUMPDEST SWAP2 POP POP PUSH2 0x1A54 JUMP JUMPDEST POP DUP2 PUSH1 0x40 MLOAD PUSH2 0x1BFD SWAP2 SWAP1 PUSH2 0x4534 JUMP JUMPDEST PUSH1 0x40 MLOAD DUP1 SWAP2 SUB SWAP1 KECCAK256 DUP2 PUSH20 0xFFFFFFFFFFFFFFFFFFFFFFFFFFFFFFFFFFFFFFFF AND PUSH32 0xB7D54FB67DDF621754E70DA8666B8F260B9D90D503A96E15FDF8753D59AF3877 PUSH1 0x40 MLOAD PUSH1 0x40 MLOAD DUP1 SWAP2 SUB SWAP1 LOG3 POP POP POP JUMP JUMPDEST PUSH1 0x1 PUSH1 0x65 PUSH1 0x0 DUP4 PUSH20 0xFFFFFFFFFFFFFFFFFFFFFFFFFFFFFFFFFFFFFFFF AND PUSH20 0xFFFFFFFFFFFFFFFFFFFFFFFFFFFFFFFFFFFFFFFF AND DUP2 MSTORE PUSH1 0x20 ADD SWAP1 DUP2 MSTORE PUSH1 0x20 ADD PUSH1 0x0 KECCAK256 PUSH1 0x0 PUSH2 0x100 EXP DUP2 SLOAD DUP2 PUSH1 0xFF MUL NOT AND SWAP1 DUP4 ISZERO ISZERO MUL OR SWAP1 SSTORE POP POP JUMP JUMPDEST PUSH1 0x0 PUSH2 0x1CB7 DUP4 PUSH1 0x0 ADD DUP4 PUSH2 0x2650 JUMP JUMPDEST PUSH1 0x0 SHR SWAP1 POP SWAP3 SWAP2 POP POP JUMP JUMPDEST PUSH1 0x0 PUSH1 0x6A PUSH1 0x0 DUP5 DUP2 MSTORE PUSH1 0x20 ADD SWAP1 DUP2 MSTORE PUSH1 0x20 ADD PUSH1 0x0 KECCAK256 PUSH1 0x40 MLOAD DUP1 PUSH1 0x80 ADD PUSH1 0x40 MSTORE SWAP1 DUP2 PUSH1 0x0 DUP3 ADD PUSH1 0x0 SWAP1 SLOAD SWAP1 PUSH2 0x100 EXP SWAP1 DIV PUSH20 0xFFFFFFFFFFFFFFFFFFFFFFFFFFFFFFFFFFFFFFFF AND PUSH20 0xFFFFFFFFFFFFFFFFFFFFFFFFFFFFFFFFFFFFFFFF AND PUSH20 0xFFFFFFFFFFFFFFFFFFFFFFFFFFFFFFFFFFFFFFFF AND DUP2 MSTORE PUSH1 0x20 ADD PUSH1 0x0 DUP3 ADD PUSH1 0x14 SWAP1 SLOAD SWAP1 PUSH2 0x100 EXP SWAP1 DIV PUSH1 0xFF AND PUSH1 0x1 DUP2 GT ISZERO PUSH2 0x1D5D JUMPI PUSH2 0x1D5C PUSH2 0x3031 JUMP JUMPDEST JUMPDEST PUSH1 0x1 DUP2 GT ISZERO PUSH2 0x1D6F JUMPI PUSH2 0x1D6E PUSH2 0x3031 JUMP JUMPDEST JUMPDEST DUP2 MSTORE PUSH1 0x20 ADD PUSH1 0x1 DUP3 ADD SLOAD DUP2 MSTORE PUSH1 0x20 ADD PUSH1 0x2 DUP3 ADD SLOAD DUP2 MSTORE POP POP SWAP1 POP PUSH1 0x0 PUSH20 0xFFFFFFFFFFFFFFFFFFFFFFFFFFFFFFFFFFFFFFFF AND DUP2 PUSH1 0x0 ADD MLOAD PUSH20 0xFFFFFFFFFFFFFFFFFFFFFFFFFFFFFFFFFFFFFFFF AND SUB PUSH2 0x1E08 JUMPI DUP2 ISZERO PUSH2 0x1E02 JUMPI PUSH1 0x40 MLOAD PUSH32 0x8C379A000000000000000000000000000000000000000000000000000000000 DUP2 MSTORE PUSH1 0x4 ADD PUSH2 0x1DF9 SWAP1 PUSH2 0x45BD JUMP JUMPDEST PUSH1 0x40 MLOAD DUP1 SWAP2 SUB SWAP1 REVERT JUMPDEST POP PUSH2 0x23AE JUMP JUMPDEST PUSH1 0x0 PUSH1 0x66 PUSH1 0x1 SWAP1 SLOAD SWAP1 PUSH2 0x100 EXP SWAP1 DIV PUSH20 0xFFFFFFFFFFFFFFFFFFFFFFFFFFFFFFFFFFFFFFFF AND PUSH20 0xFFFFFFFFFFFFFFFFFFFFFFFFFFFFFFFFFFFFFFFF AND PUSH4 0xAA8F6CA1 DUP6 ADDRESS PUSH1 0x40 MLOAD DUP4 PUSH4 0xFFFFFFFF AND PUSH1 0xE0 SHL DUP2 MSTORE PUSH1 0x4 ADD PUSH2 0x1E67 SWAP3 SWAP2 SWAP1 PUSH2 0x390B JUMP JUMPDEST PUSH1 0x20 PUSH1 0x40 MLOAD DUP1 DUP4 SUB DUP2 DUP7 GAS STATICCALL ISZERO DUP1 ISZERO PUSH2 0x1E84 JUMPI RETURNDATASIZE PUSH1 0x0 DUP1 RETURNDATACOPY RETURNDATASIZE PUSH1 0x0 REVERT JUMPDEST POP POP POP POP PUSH1 0x40 MLOAD RETURNDATASIZE PUSH1 0x1F NOT PUSH1 0x1F DUP3 ADD AND DUP3 ADD DUP1 PUSH1 0x40 MSTORE POP DUP2 ADD SWAP1 PUSH2 0x1EA8 SWAP2 SWAP1 PUSH2 0x3AE1 JUMP JUMPDEST SWAP1 POP DUP2 PUSH1 0x60 ADD MLOAD DUP2 LT ISZERO PUSH2 0x1EFE JUMPI DUP3 ISZERO PUSH2 0x1EF7 JUMPI PUSH1 0x40 MLOAD PUSH32 0x8C379A000000000000000000000000000000000000000000000000000000000 DUP2 MSTORE PUSH1 0x4 ADD PUSH2 0x1EEE SWAP1 PUSH2 0x464F JUMP JUMPDEST PUSH1 0x40 MLOAD DUP1 SWAP2 SUB SWAP1 REVERT JUMPDEST POP POP PUSH2 0x23AE JUMP JUMPDEST PUSH1 0x0 PUSH1 0x67 PUSH1 0x0 SWAP1 SLOAD SWAP1 PUSH2 0x100 EXP SWAP1 DIV PUSH20 0xFFFFFFFFFFFFFFFFFFFFFFFFFFFFFFFFFFFFFFFF AND PUSH20 0xFFFFFFFFFFFFFFFFFFFFFFFFFFFFFFFFFFFFFFFF AND PUSH4 0x70A08231 ADDRESS PUSH1 0x40 MLOAD DUP3 PUSH4 0xFFFFFFFF AND PUSH1 0xE0 SHL DUP2 MSTORE PUSH1 0x4 ADD PUSH2 0x1F5B SWAP2 SWAP1 PUSH2 0x3618 JUMP JUMPDEST PUSH1 0x20 PUSH1 0x40 MLOAD DUP1 DUP4 SUB DUP2 DUP7 GAS STATICCALL ISZERO DUP1 ISZERO PUSH2 0x1F78 JUMPI RETURNDATASIZE PUSH1 0x0 DUP1 RETURNDATACOPY RETURNDATASIZE PUSH1 0x0 REVERT JUMPDEST POP POP POP POP PUSH1 0x40 MLOAD RETURNDATASIZE PUSH1 0x1F NOT PUSH1 0x1F DUP3 ADD AND DUP3 ADD DUP1 PUSH1 0x40 MSTORE POP DUP2 ADD SWAP1 PUSH2 0x1F9C SWAP2 SWAP1 PUSH2 0x3AE1 JUMP JUMPDEST SWAP1 POP PUSH1 0x66 PUSH1 0x1 SWAP1 SLOAD SWAP1 PUSH2 0x100 EXP SWAP1 DIV PUSH20 0xFFFFFFFFFFFFFFFFFFFFFFFFFFFFFFFFFFFFFFFF AND PUSH20 0xFFFFFFFFFFFFFFFFFFFFFFFFFFFFFFFFFFFFFFFF AND PUSH4 0xE2BBB158 DUP7 PUSH1 0x0 PUSH1 0x40 MLOAD DUP4 PUSH4 0xFFFFFFFF AND PUSH1 0xE0 SHL DUP2 MSTORE PUSH1 0x4 ADD PUSH2 0x1FFC SWAP3 SWAP2 SWAP1 PUSH2 0x46AA JUMP JUMPDEST PUSH1 0x0 PUSH1 0x40 MLOAD DUP1 DUP4 SUB DUP2 PUSH1 0x0 DUP8 DUP1 EXTCODESIZE ISZERO DUP1 ISZERO PUSH2 0x2016 JUMPI PUSH1 0x0 DUP1 REVERT JUMPDEST POP GAS CALL ISZERO DUP1 ISZERO PUSH2 0x202A JUMPI RETURNDATASIZE PUSH1 0x0 DUP1 RETURNDATACOPY RETURNDATASIZE PUSH1 0x0 REVERT JUMPDEST POP POP POP POP PUSH1 0x0 DUP2 PUSH1 0x67 PUSH1 0x0 SWAP1 SLOAD SWAP1 PUSH2 0x100 EXP SWAP1 DIV PUSH20 0xFFFFFFFFFFFFFFFFFFFFFFFFFFFFFFFFFFFFFFFF AND PUSH20 0xFFFFFFFFFFFFFFFFFFFFFFFFFFFFFFFFFFFFFFFF AND PUSH4 0x70A08231 ADDRESS PUSH1 0x40 MLOAD DUP3 PUSH4 0xFFFFFFFF AND PUSH1 0xE0 SHL DUP2 MSTORE PUSH1 0x4 ADD PUSH2 0x208C SWAP2 SWAP1 PUSH2 0x3618 JUMP JUMPDEST PUSH1 0x20 PUSH1 0x40 MLOAD DUP1 DUP4 SUB DUP2 DUP7 GAS STATICCALL ISZERO DUP1 ISZERO PUSH2 0x20A9 JUMPI RETURNDATASIZE PUSH1 0x0 DUP1 RETURNDATACOPY RETURNDATASIZE PUSH1 0x0 REVERT JUMPDEST POP POP POP POP PUSH1 0x40 MLOAD RETURNDATASIZE PUSH1 0x1F NOT PUSH1 0x1F DUP3 ADD AND DUP3 ADD DUP1 PUSH1 0x40 MSTORE POP DUP2 ADD SWAP1 PUSH2 0x20CD SWAP2 SWAP1 PUSH2 0x3AE1 JUMP JUMPDEST PUSH2 0x20D7 SWAP2 SWAP1 PUSH2 0x46D3 JUMP JUMPDEST SWAP1 POP PUSH1 0x0 PUSH1 0x1 DUP2 GT ISZERO PUSH2 0x20ED JUMPI PUSH2 0x20EC PUSH2 0x3031 JUMP JUMPDEST JUMPDEST DUP5 PUSH1 0x20 ADD MLOAD PUSH1 0x1 DUP2 GT ISZERO PUSH2 0x2104 JUMPI PUSH2 0x2103 PUSH2 0x3031 JUMP JUMPDEST JUMPDEST SUB PUSH2 0x21B3 JUMPI PUSH1 0x67 PUSH1 0x0 SWAP1 SLOAD SWAP1 PUSH2 0x100 EXP SWAP1 DIV PUSH20 0xFFFFFFFFFFFFFFFFFFFFFFFFFFFFFFFFFFFFFFFF AND PUSH20 0xFFFFFFFFFFFFFFFFFFFFFFFFFFFFFFFFFFFFFFFF AND PUSH4 0xA9059CBB DUP6 PUSH1 0x0 ADD MLOAD DUP4 PUSH1 0x40 MLOAD DUP4 PUSH4 0xFFFFFFFF AND PUSH1 0xE0 SHL DUP2 MSTORE PUSH1 0x4 ADD PUSH2 0x216A SWAP3 SWAP2 SWAP1 PUSH2 0x3BB1 JUMP JUMPDEST PUSH1 0x20 PUSH1 0x40 MLOAD DUP1 DUP4 SUB DUP2 PUSH1 0x0 DUP8 GAS CALL ISZERO DUP1 ISZERO PUSH2 0x2189 JUMPI RETURNDATASIZE PUSH1 0x0 DUP1 RETURNDATACOPY RETURNDATASIZE PUSH1 0x0 REVERT JUMPDEST POP POP POP POP PUSH1 0x40 MLOAD RETURNDATASIZE PUSH1 0x1F NOT PUSH1 0x1F DUP3 ADD AND DUP3 ADD DUP1 PUSH1 0x40 MSTORE POP DUP2 ADD SWAP1 PUSH2 0x21AD SWAP2 SWAP1 PUSH2 0x3BEF JUMP JUMPDEST POP PUSH2 0x2364 JUMP JUMPDEST PUSH1 0x1 DUP1 DUP2 GT ISZERO PUSH2 0x21C6 JUMPI PUSH2 0x21C5 PUSH2 0x3031 JUMP JUMPDEST JUMPDEST DUP5 PUSH1 0x20 ADD MLOAD PUSH1 0x1 DUP2 GT ISZERO PUSH2 0x21DD JUMPI PUSH2 0x21DC PUSH2 0x3031 JUMP JUMPDEST JUMPDEST SUB PUSH2 0x2363 JUMPI PUSH1 0x67 PUSH1 0x0 SWAP1 SLOAD SWAP1 PUSH2 0x100 EXP SWAP1 DIV PUSH20 0xFFFFFFFFFFFFFFFFFFFFFFFFFFFFFFFFFFFFFFFF AND PUSH20 0xFFFFFFFFFFFFFFFFFFFFFFFFFFFFFFFFFFFFFFFF AND PUSH4 0x95EA7B3 PUSH1 0x69 PUSH1 0x0 SWAP1 SLOAD SWAP1 PUSH2 0x100 EXP SWAP1 DIV PUSH20 0xFFFFFFFFFFFFFFFFFFFFFFFFFFFFFFFFFFFFFFFF AND DUP4 PUSH1 0x40 MLOAD DUP4 PUSH4 0xFFFFFFFF AND PUSH1 0xE0 SHL DUP2 MSTORE PUSH1 0x4 ADD PUSH2 0x2261 SWAP3 SWAP2 SWAP1 PUSH2 0x3BB1 JUMP JUMPDEST PUSH1 0x20 PUSH1 0x40 MLOAD DUP1 DUP4 SUB DUP2 PUSH1 0x0 DUP8 GAS CALL ISZERO DUP1 ISZERO PUSH2 0x2280 JUMPI RETURNDATASIZE PUSH1 0x0 DUP1 RETURNDATACOPY RETURNDATASIZE PUSH1 0x0 REVERT JUMPDEST POP POP POP POP PUSH1 0x40 MLOAD RETURNDATASIZE PUSH1 0x1F NOT PUSH1 0x1F DUP3 ADD AND DUP3 ADD DUP1 PUSH1 0x40 MSTORE POP DUP2 ADD SWAP1 PUSH2 0x22A4 SWAP2 SWAP1 PUSH2 0x3BEF JUMP JUMPDEST POP PUSH1 0x69 PUSH1 0x0 SWAP1 SLOAD SWAP1 PUSH2 0x100 EXP SWAP1 DIV PUSH20 0xFFFFFFFFFFFFFFFFFFFFFFFFFFFFFFFFFFFFFFFF AND PUSH20 0xFFFFFFFFFFFFFFFFFFFFFFFFFFFFFFFFFFFFFFFF AND PUSH4 0xEDBDF5E2 PUSH1 0x68 PUSH1 0x0 SWAP1 SLOAD SWAP1 PUSH2 0x100 EXP SWAP1 DIV PUSH20 0xFFFFFFFFFFFFFFFFFFFFFFFFFFFFFFFFFFFFFFFF AND DUP7 PUSH1 0x0 ADD MLOAD DUP5 DUP9 PUSH1 0x40 ADD MLOAD PUSH1 0x40 MLOAD DUP6 PUSH4 0xFFFFFFFF AND PUSH1 0xE0 SHL DUP2 MSTORE PUSH1 0x4 ADD PUSH2 0x2330 SWAP5 SWAP4 SWAP3 SWAP2 SWAP1 PUSH2 0x4707 JUMP JUMPDEST PUSH1 0x0 PUSH1 0x40 MLOAD DUP1 DUP4 SUB DUP2 PUSH1 0x0 DUP8 DUP1 EXTCODESIZE ISZERO DUP1 ISZERO PUSH2 0x234A JUMPI PUSH1 0x0 DUP1 REVERT JUMPDEST POP GAS CALL ISZERO DUP1 ISZERO PUSH2 0x235E JUMPI RETURNDATASIZE PUSH1 0x0 DUP1 RETURNDATACOPY RETURNDATASIZE PUSH1 0x0 REVERT JUMPDEST POP POP POP POP JUMPDEST JUMPDEST PUSH32 0x46773325C50D920BBC71668278C52944C5D8C36A9F9243F8C76E070847C44EFB DUP7 DUP3 DUP7 PUSH1 0x0 ADD MLOAD DUP8 PUSH1 0x40 ADD MLOAD PUSH1 0x40 MLOAD PUSH2 0x23A1 SWAP5 SWAP4 SWAP3 SWAP2 SWAP1 PUSH2 0x474C JUMP JUMPDEST PUSH1 0x40 MLOAD DUP1 SWAP2 SUB SWAP1 LOG1 POP POP POP POP JUMPDEST POP POP JUMP JUMPDEST PUSH1 0x0 PUSH2 0x23C4 DUP4 PUSH1 0x0 ADD DUP4 PUSH1 0x0 SHL PUSH2 0x267B JUMP JUMPDEST SWAP1 POP SWAP3 SWAP2 POP POP JUMP JUMPDEST PUSH1 0x0 PUSH1 0x33 PUSH1 0x0 SWAP1 SLOAD SWAP1 PUSH2 0x100 EXP SWAP1 DIV PUSH20 0xFFFFFFFFFFFFFFFFFFFFFFFFFFFFFFFFFFFFFFFF AND SWAP1 POP DUP2 PUSH1 0x33 PUSH1 0x0 PUSH2 0x100 EXP DUP2 SLOAD DUP2 PUSH20 0xFFFFFFFFFFFFFFFFFFFFFFFFFFFFFFFFFFFFFFFF MUL NOT AND SWAP1 DUP4 PUSH20 0xFFFFFFFFFFFFFFFFFFFFFFFFFFFFFFFFFFFFFFFF AND MUL OR SWAP1 SSTORE POP DUP2 PUSH20 0xFFFFFFFFFFFFFFFFFFFFFFFFFFFFFFFFFFFFFFFF AND DUP2 PUSH20 0xFFFFFFFFFFFFFFFFFFFFFFFFFFFFFFFFFFFFFFFF AND PUSH32 0x8BE0079C531659141344CD1FD0A4F28419497F9722A3DAAFE3B4186F6B6457E0 PUSH1 0x40 MLOAD PUSH1 0x40 MLOAD DUP1 SWAP2 SUB SWAP1 LOG3 POP POP JUMP JUMPDEST PUSH1 0x0 PUSH2 0x24A4 DUP4 PUSH1 0x0 ADD DUP4 PUSH1 0x0 SHL PUSH2 0x26EB JUMP JUMPDEST SWAP1 POP SWAP3 SWAP2 POP POP JUMP JUMPDEST PUSH1 0x0 PUSH2 0x24BE DUP4 PUSH1 0x0 ADD DUP4 PUSH1 0x0 SHL PUSH2 0x270E JUMP JUMPDEST SWAP1 POP SWAP3 SWAP2 POP POP JUMP JUMPDEST PUSH1 0x0 JUMPDEST DUP2 MLOAD DUP2 LT ISZERO PUSH2 0x2508 JUMPI PUSH2 0x24F5 DUP3 DUP3 DUP2 MLOAD DUP2 LT PUSH2 0x24E8 JUMPI PUSH2 0x24E7 PUSH2 0x4092 JUMP JUMPDEST JUMPDEST PUSH1 0x20 MUL PUSH1 0x20 ADD ADD MLOAD PUSH2 0x1C4D JUMP JUMPDEST DUP1 DUP1 PUSH2 0x2500 SWAP1 PUSH2 0x3FDE JUMP JUMPDEST SWAP2 POP POP PUSH2 0x24C9 JUMP JUMPDEST POP POP JUMP JUMPDEST PUSH1 0x0 PUSH2 0x251A DUP3 PUSH1 0x0 ADD PUSH2 0x2822 JUMP JUMPDEST SWAP1 POP SWAP2 SWAP1 POP JUMP JUMPDEST PUSH1 0x0 DUP1 DUP3 PUSH20 0xFFFFFFFFFFFFFFFFFFFFFFFFFFFFFFFFFFFFFFFF AND EXTCODESIZE GT SWAP1 POP SWAP2 SWAP1 POP JUMP JUMPDEST PUSH1 0x0 PUSH1 0x1 SWAP1 SLOAD SWAP1 PUSH2 0x100 EXP SWAP1 DIV PUSH1 0xFF AND PUSH2 0x2593 JUMPI PUSH1 0x40 MLOAD PUSH32 0x8C379A000000000000000000000000000000000000000000000000000000000 DUP2 MSTORE PUSH1 0x4 ADD PUSH2 0x258A SWAP1 PUSH2 0x4803 JUMP JUMPDEST PUSH1 0x40 MLOAD DUP1 SWAP2 SUB SWAP1 REVERT JUMPDEST PUSH2 0x259B PUSH2 0x2833 JUMP JUMPDEST PUSH2 0x25A4 DUP3 PUSH2 0x13BA JUMP JUMPDEST DUP1 PUSH1 0x66 PUSH1 0x0 PUSH2 0x100 EXP DUP2 SLOAD DUP2 PUSH1 0xFF MUL NOT AND SWAP1 DUP4 ISZERO ISZERO MUL OR SWAP1 SSTORE POP POP POP JUMP JUMPDEST PUSH1 0x0 CALLER SWAP1 POP SWAP1 JUMP JUMPDEST PUSH2 0x264B DUP4 PUSH4 0xA9059CBB PUSH1 0xE0 SHL DUP5 DUP5 PUSH1 0x40 MLOAD PUSH1 0x24 ADD PUSH2 0x25E9 SWAP3 SWAP2 SWAP1 PUSH2 0x3BB1 JUMP JUMPDEST PUSH1 0x40 MLOAD PUSH1 0x20 DUP2 DUP4 SUB SUB DUP2 MSTORE SWAP1 PUSH1 0x40 MSTORE SWAP1 PUSH28 0xFFFFFFFFFFFFFFFFFFFFFFFFFFFFFFFFFFFFFFFFFFFFFFFFFFFFFFFF NOT AND PUSH1 0x20 DUP3 ADD DUP1 MLOAD PUSH28 0xFFFFFFFFFFFFFFFFFFFFFFFFFFFFFFFFFFFFFFFFFFFFFFFFFFFFFFFF DUP4 DUP2 DUP4 AND OR DUP4 MSTORE POP POP POP POP PUSH2 0x288C JUMP JUMPDEST POP POP POP JUMP JUMPDEST PUSH1 0x0 DUP3 PUSH1 0x0 ADD DUP3 DUP2 SLOAD DUP2 LT PUSH2 0x2668 JUMPI PUSH2 0x2667 PUSH2 0x4092 JUMP JUMPDEST JUMPDEST SWAP1 PUSH1 0x0 MSTORE PUSH1 0x20 PUSH1 0x0 KECCAK256 ADD SLOAD SWAP1 POP SWAP3 SWAP2 POP POP JUMP JUMPDEST PUSH1 0x0 PUSH2 0x2687 DUP4 DUP4 PUSH2 0x26EB JUMP JUMPDEST PUSH2 0x26E0 JUMPI DUP3 PUSH1 0x0 ADD DUP3 SWAP1 DUP1 PUSH1 0x1 DUP2 SLOAD ADD DUP1 DUP3 SSTORE DUP1 SWAP2 POP POP PUSH1 0x1 SWAP1 SUB SWAP1 PUSH1 0x0 MSTORE PUSH1 0x20 PUSH1 0x0 KECCAK256 ADD PUSH1 0x0 SWAP1 SWAP2 SWAP1 SWAP2 SWAP1 SWAP2 POP SSTORE DUP3 PUSH1 0x0 ADD DUP1 SLOAD SWAP1 POP DUP4 PUSH1 0x1 ADD PUSH1 0x0 DUP5 DUP2 MSTORE PUSH1 0x20 ADD SWAP1 DUP2 MSTORE PUSH1 0x20 ADD PUSH1 0x0 KECCAK256 DUP2 SWAP1 SSTORE POP PUSH1 0x1 SWAP1 POP PUSH2 0x26E5 JUMP JUMPDEST PUSH1 0x0 SWAP1 POP JUMPDEST SWAP3 SWAP2 POP POP JUMP JUMPDEST PUSH1 0x0 DUP1 DUP4 PUSH1 0x1 ADD PUSH1 0x0 DUP5 DUP2 MSTORE PUSH1 0x20 ADD SWAP1 DUP2 MSTORE PUSH1 0x20 ADD PUSH1 0x0 KECCAK256 SLOAD EQ ISZERO SWAP1 POP SWAP3 SWAP2 POP POP JUMP JUMPDEST PUSH1 0x0 DUP1 DUP4 PUSH1 0x1 ADD PUSH1 0x0 DUP5 DUP2 MSTORE PUSH1 0x20 ADD SWAP1 DUP2 MSTORE PUSH1 0x20 ADD PUSH1 0x0 KECCAK256 SLOAD SWAP1 POP PUSH1 0x0 DUP2 EQ PUSH2 0x2816 JUMPI PUSH1 0x0 PUSH1 0x1 DUP3 PUSH2 0x2740 SWAP2 SWAP1 PUSH2 0x46D3 JUMP JUMPDEST SWAP1 POP PUSH1 0x0 PUSH1 0x1 DUP7 PUSH1 0x0 ADD DUP1 SLOAD SWAP1 POP PUSH2 0x2758 SWAP2 SWAP1 PUSH2 0x46D3 JUMP JUMPDEST SWAP1 POP DUP2 DUP2 EQ PUSH2 0x27C7 JUMPI PUSH1 0x0 DUP7 PUSH1 0x0 ADD DUP3 DUP2 SLOAD DUP2 LT PUSH2 0x2779 JUMPI PUSH2 0x2778 PUSH2 0x4092 JUMP JUMPDEST JUMPDEST SWAP1 PUSH1 0x0 MSTORE PUSH1 0x20 PUSH1 0x0 KECCAK256 ADD SLOAD SWAP1 POP DUP1 DUP8 PUSH1 0x0 ADD DUP5 DUP2 SLOAD DUP2 LT PUSH2 0x279D JUMPI PUSH2 0x279C PUSH2 0x4092 JUMP JUMPDEST JUMPDEST SWAP1 PUSH1 0x0 MSTORE PUSH1 0x20 PUSH1 0x0 KECCAK256 ADD DUP2 SWAP1 SSTORE POP DUP4 DUP8 PUSH1 0x1 ADD PUSH1 0x0 DUP4 DUP2 MSTORE PUSH1 0x20 ADD SWAP1 DUP2 MSTORE PUSH1 0x20 ADD PUSH1 0x0 KECCAK256 DUP2 SWAP1 SSTORE POP POP JUMPDEST DUP6 PUSH1 0x0 ADD DUP1 SLOAD DUP1 PUSH2 0x27DB JUMPI PUSH2 0x27DA PUSH2 0x4823 JUMP JUMPDEST JUMPDEST PUSH1 0x1 SWAP1 SUB DUP2 DUP2 SWAP1 PUSH1 0x0 MSTORE PUSH1 0x20 PUSH1 0x0 KECCAK256 ADD PUSH1 0x0 SWAP1 SSTORE SWAP1 SSTORE DUP6 PUSH1 0x1 ADD PUSH1 0x0 DUP7 DUP2 MSTORE PUSH1 0x20 ADD SWAP1 DUP2 MSTORE PUSH1 0x20 ADD PUSH1 0x0 KECCAK256 PUSH1 0x0 SWAP1 SSTORE PUSH1 0x1 SWAP4 POP POP POP POP PUSH2 0x281C JUMP JUMPDEST PUSH1 0x0 SWAP2 POP POP JUMPDEST SWAP3 SWAP2 POP POP JUMP JUMPDEST PUSH1 0x0 DUP2 PUSH1 0x0 ADD DUP1 SLOAD SWAP1 POP SWAP1 POP SWAP2 SWAP1 POP JUMP JUMPDEST PUSH1 0x0 PUSH1 0x1 SWAP1 SLOAD SWAP1 PUSH2 0x100 EXP SWAP1 DIV PUSH1 0xFF AND PUSH2 0x2882 JUMPI PUSH1 0x40 MLOAD PUSH32 0x8C379A000000000000000000000000000000000000000000000000000000000 DUP2 MSTORE PUSH1 0x4 ADD PUSH2 0x2879 SWAP1 PUSH2 0x4803 JUMP JUMPDEST PUSH1 0x40 MLOAD DUP1 SWAP2 SUB SWAP1 REVERT JUMPDEST PUSH2 0x288A PUSH2 0x2953 JUMP JUMPDEST JUMP JUMPDEST PUSH1 0x0 PUSH2 0x28EE DUP3 PUSH1 0x40 MLOAD DUP1 PUSH1 0x40 ADD PUSH1 0x40 MSTORE DUP1 PUSH1 0x20 DUP2 MSTORE PUSH1 0x20 ADD PUSH32 0x5361666545524332303A206C6F772D6C6576656C2063616C6C206661696C6564 DUP2 MSTORE POP DUP6 PUSH20 0xFFFFFFFFFFFFFFFFFFFFFFFFFFFFFFFFFFFFFFFF AND PUSH2 0x29B4 SWAP1 SWAP3 SWAP2 SWAP1 PUSH4 0xFFFFFFFF AND JUMP JUMPDEST SWAP1 POP PUSH1 0x0 DUP2 MLOAD GT ISZERO PUSH2 0x294E JUMPI DUP1 DUP1 PUSH1 0x20 ADD SWAP1 MLOAD DUP2 ADD SWAP1 PUSH2 0x290E SWAP2 SWAP1 PUSH2 0x3BEF JUMP JUMPDEST PUSH2 0x294D JUMPI PUSH1 0x40 MLOAD PUSH32 0x8C379A000000000000000000000000000000000000000000000000000000000 DUP2 MSTORE PUSH1 0x4 ADD PUSH2 0x2944 SWAP1 PUSH2 0x48C4 JUMP JUMPDEST PUSH1 0x40 MLOAD DUP1 SWAP2 SUB SWAP1 REVERT JUMPDEST JUMPDEST POP POP POP JUMP JUMPDEST PUSH1 0x0 PUSH1 0x1 SWAP1 SLOAD SWAP1 PUSH2 0x100 EXP SWAP1 DIV PUSH1 0xFF AND PUSH2 0x29A2 JUMPI PUSH1 0x40 MLOAD PUSH32 0x8C379A000000000000000000000000000000000000000000000000000000000 DUP2 MSTORE PUSH1 0x4 ADD PUSH2 0x2999 SWAP1 PUSH2 0x4803 JUMP JUMPDEST PUSH1 0x40 MLOAD DUP1 SWAP2 SUB SWAP1 REVERT JUMPDEST PUSH2 0x29B2 PUSH2 0x29AD PUSH2 0x25C2 JUMP JUMPDEST PUSH2 0x23CC JUMP JUMPDEST JUMP JUMPDEST PUSH1 0x60 PUSH2 0x29C3 DUP5 DUP5 PUSH1 0x0 DUP6 PUSH2 0x29CC JUMP JUMPDEST SWAP1 POP SWAP4 SWAP3 POP POP POP JUMP JUMPDEST PUSH1 0x60 DUP3 SELFBALANCE LT ISZERO PUSH2 0x2A11 JUMPI PUSH1 0x40 MLOAD PUSH32 0x8C379A000000000000000000000000000000000000000000000000000000000 DUP2 MSTORE PUSH1 0x4 ADD PUSH2 0x2A08 SWAP1 PUSH2 0x4956 JUMP JUMPDEST PUSH1 0x40 MLOAD DUP1 SWAP2 SUB SWAP1 REVERT JUMPDEST PUSH2 0x2A1A DUP6 PUSH2 0x2521 JUMP JUMPDEST PUSH2 0x2A59 JUMPI PUSH1 0x40 MLOAD PUSH32 0x8C379A000000000000000000000000000000000000000000000000000000000 DUP2 MSTORE PUSH1 0x4 ADD PUSH2 0x2A50 SWAP1 PUSH2 0x49C2 JUMP JUMPDEST PUSH1 0x40 MLOAD DUP1 SWAP2 SUB SWAP1 REVERT JUMPDEST PUSH1 0x0 DUP1 DUP7 PUSH20 0xFFFFFFFFFFFFFFFFFFFFFFFFFFFFFFFFFFFFFFFF AND DUP6 DUP8 PUSH1 0x40 MLOAD PUSH2 0x2A82 SWAP2 SWAP1 PUSH2 0x4A51 JUMP JUMPDEST PUSH1 0x0 PUSH1 0x40 MLOAD DUP1 DUP4 SUB DUP2 DUP6 DUP8 GAS CALL SWAP3 POP POP POP RETURNDATASIZE DUP1 PUSH1 0x0 DUP2 EQ PUSH2 0x2ABF JUMPI PUSH1 0x40 MLOAD SWAP2 POP PUSH1 0x1F NOT PUSH1 0x3F RETURNDATASIZE ADD AND DUP3 ADD PUSH1 0x40 MSTORE RETURNDATASIZE DUP3 MSTORE RETURNDATASIZE PUSH1 0x0 PUSH1 0x20 DUP5 ADD RETURNDATACOPY PUSH2 0x2AC4 JUMP JUMPDEST PUSH1 0x60 SWAP2 POP JUMPDEST POP SWAP2 POP SWAP2 POP PUSH2 0x2AD4 DUP3 DUP3 DUP7 PUSH2 0x2AE0 JUMP JUMPDEST SWAP3 POP POP POP SWAP5 SWAP4 POP POP POP POP JUMP JUMPDEST PUSH1 0x60 DUP4 ISZERO PUSH2 0x2AF0 JUMPI DUP3 SWAP1 POP PUSH2 0x2B40 JUMP JUMPDEST PUSH1 0x0 DUP4 MLOAD GT ISZERO PUSH2 0x2B03 JUMPI DUP3 MLOAD DUP1 DUP5 PUSH1 0x20 ADD REVERT JUMPDEST DUP2 PUSH1 0x40 MLOAD PUSH32 0x8C379A000000000000000000000000000000000000000000000000000000000 DUP2 MSTORE PUSH1 0x4 ADD PUSH2 0x2B37 SWAP2 SWAP1 PUSH2 0x4AAC JUMP JUMPDEST PUSH1 0x40 MLOAD DUP1 SWAP2 SUB SWAP1 REVERT JUMPDEST SWAP4 SWAP3 POP POP POP JUMP JUMPDEST PUSH1 0x40 MLOAD DUP1 PUSH1 0x80 ADD PUSH1 0x40 MSTORE DUP1 PUSH1 0x0 PUSH20 0xFFFFFFFFFFFFFFFFFFFFFFFFFFFFFFFFFFFFFFFF AND DUP2 MSTORE PUSH1 0x20 ADD PUSH1 0x0 PUSH1 0x1 DUP2 GT ISZERO PUSH2 0x2B83 JUMPI PUSH2 0x2B82 PUSH2 0x3031 JUMP JUMPDEST JUMPDEST DUP2 MSTORE PUSH1 0x20 ADD PUSH1 0x0 DUP2 MSTORE PUSH1 0x20 ADD PUSH1 0x0 DUP2 MSTORE POP SWAP1 JUMP JUMPDEST PUSH1 0x40 MLOAD DUP1 PUSH1 0x40 ADD PUSH1 0x40 MSTORE DUP1 PUSH1 0x0 PUSH20 0xFFFFFFFFFFFFFFFFFFFFFFFFFFFFFFFFFFFFFFFF AND DUP2 MSTORE PUSH1 0x20 ADD PUSH1 0x60 DUP2 MSTORE POP SWAP1 JUMP JUMPDEST PUSH1 0x0 PUSH1 0x40 MLOAD SWAP1 POP SWAP1 JUMP JUMPDEST PUSH1 0x0 DUP1 REVERT JUMPDEST PUSH1 0x0 DUP1 REVERT JUMPDEST PUSH1 0x0 DUP1 REVERT JUMPDEST PUSH1 0x0 PUSH1 0x1F NOT PUSH1 0x1F DUP4 ADD AND SWAP1 POP SWAP2 SWAP1 POP JUMP JUMPDEST PUSH32 0x4E487B7100000000000000000000000000000000000000000000000000000000 PUSH1 0x0 MSTORE PUSH1 0x41 PUSH1 0x4 MSTORE PUSH1 0x24 PUSH1 0x0 REVERT JUMPDEST PUSH2 0x2C29 DUP3 PUSH2 0x2BE0 JUMP JUMPDEST DUP2 ADD DUP2 DUP2 LT PUSH8 0xFFFFFFFFFFFFFFFF DUP3 GT OR ISZERO PUSH2 0x2C48 JUMPI PUSH2 0x2C47 PUSH2 0x2BF1 JUMP JUMPDEST JUMPDEST DUP1 PUSH1 0x40 MSTORE POP POP POP JUMP JUMPDEST PUSH1 0x0 PUSH2 0x2C5B PUSH2 0x2BC7 JUMP JUMPDEST SWAP1 POP PUSH2 0x2C67 DUP3 DUP3 PUSH2 0x2C20 JUMP JUMPDEST SWAP2 SWAP1 POP JUMP JUMPDEST PUSH1 0x0 PUSH8 0xFFFFFFFFFFFFFFFF DUP3 GT ISZERO PUSH2 0x2C87 JUMPI PUSH2 0x2C86 PUSH2 0x2BF1 JUMP JUMPDEST JUMPDEST PUSH1 0x20 DUP3 MUL SWAP1 POP PUSH1 0x20 DUP2 ADD SWAP1 POP SWAP2 SWAP1 POP JUMP JUMPDEST PUSH1 0x0 DUP1 REVERT JUMPDEST PUSH1 0x0 DUP1 REVERT JUMPDEST PUSH1 0x0 DUP1 REVERT JUMPDEST PUSH1 0x0 PUSH20 0xFFFFFFFFFFFFFFFFFFFFFFFFFFFFFFFFFFFFFFFF DUP3 AND SWAP1 POP SWAP2 SWAP1 POP JUMP JUMPDEST PUSH1 0x0 PUSH2 0x2CD2 DUP3 PUSH2 0x2CA7 JUMP JUMPDEST SWAP1 POP SWAP2 SWAP1 POP JUMP JUMPDEST PUSH1 0x0 PUSH2 0x2CE4 DUP3 PUSH2 0x2CC7 JUMP JUMPDEST SWAP1 POP SWAP2 SWAP1 POP JUMP JUMPDEST PUSH2 0x2CF4 DUP2 PUSH2 0x2CD9 JUMP JUMPDEST DUP2 EQ PUSH2 0x2CFF JUMPI PUSH1 0x0 DUP1 REVERT JUMPDEST POP JUMP JUMPDEST PUSH1 0x0 DUP2 CALLDATALOAD SWAP1 POP PUSH2 0x2D11 DUP2 PUSH2 0x2CEB JUMP JUMPDEST SWAP3 SWAP2 POP POP JUMP JUMPDEST PUSH1 0x0 PUSH8 0xFFFFFFFFFFFFFFFF DUP3 GT ISZERO PUSH2 0x2D32 JUMPI PUSH2 0x2D31 PUSH2 0x2BF1 JUMP JUMPDEST JUMPDEST PUSH1 0x20 DUP3 MUL SWAP1 POP PUSH1 0x20 DUP2 ADD SWAP1 POP SWAP2 SWAP1 POP JUMP JUMPDEST PUSH1 0x0 DUP2 SWAP1 POP SWAP2 SWAP1 POP JUMP JUMPDEST PUSH2 0x2D56 DUP2 PUSH2 0x2D43 JUMP JUMPDEST DUP2 EQ PUSH2 0x2D61 JUMPI PUSH1 0x0 DUP1 REVERT JUMPDEST POP JUMP JUMPDEST PUSH1 0x0 DUP2 CALLDATALOAD SWAP1 POP PUSH2 0x2D73 DUP2 PUSH2 0x2D4D JUMP JUMPDEST SWAP3 SWAP2 POP POP JUMP JUMPDEST PUSH1 0x0 PUSH2 0x2D8C PUSH2 0x2D87 DUP5 PUSH2 0x2D17 JUMP JUMPDEST PUSH2 0x2C51 JUMP JUMPDEST SWAP1 POP DUP1 DUP4 DUP3 MSTORE PUSH1 0x20 DUP3 ADD SWAP1 POP PUSH1 0x20 DUP5 MUL DUP4 ADD DUP6 DUP2 GT ISZERO PUSH2 0x2DAF JUMPI PUSH2 0x2DAE PUSH2 0x2C98 JUMP JUMPDEST JUMPDEST DUP4 JUMPDEST DUP2 DUP2 LT ISZERO PUSH2 0x2DD8 JUMPI DUP1 PUSH2 0x2DC4 DUP9 DUP3 PUSH2 0x2D64 JUMP JUMPDEST DUP5 MSTORE PUSH1 0x20 DUP5 ADD SWAP4 POP POP PUSH1 0x20 DUP2 ADD SWAP1 POP PUSH2 0x2DB1 JUMP JUMPDEST POP POP POP SWAP4 SWAP3 POP POP POP JUMP JUMPDEST PUSH1 0x0 DUP3 PUSH1 0x1F DUP4 ADD SLT PUSH2 0x2DF7 JUMPI PUSH2 0x2DF6 PUSH2 0x2BDB JUMP JUMPDEST JUMPDEST DUP2 CALLDATALOAD PUSH2 0x2E07 DUP5 DUP3 PUSH1 0x20 DUP7 ADD PUSH2 0x2D79 JUMP JUMPDEST SWAP2 POP POP SWAP3 SWAP2 POP POP JUMP JUMPDEST PUSH1 0x0 PUSH1 0x40 DUP3 DUP5 SUB SLT ISZERO PUSH2 0x2E26 JUMPI PUSH2 0x2E25 PUSH2 0x2C9D JUMP JUMPDEST JUMPDEST PUSH2 0x2E30 PUSH1 0x40 PUSH2 0x2C51 JUMP JUMPDEST SWAP1 POP PUSH1 0x0 PUSH2 0x2E40 DUP5 DUP3 DUP6 ADD PUSH2 0x2D02 JUMP JUMPDEST PUSH1 0x0 DUP4 ADD MSTORE POP PUSH1 0x20 DUP3 ADD CALLDATALOAD PUSH8 0xFFFFFFFFFFFFFFFF DUP2 GT ISZERO PUSH2 0x2E64 JUMPI PUSH2 0x2E63 PUSH2 0x2CA2 JUMP JUMPDEST JUMPDEST PUSH2 0x2E70 DUP5 DUP3 DUP6 ADD PUSH2 0x2DE2 JUMP JUMPDEST PUSH1 0x20 DUP4 ADD MSTORE POP SWAP3 SWAP2 POP POP JUMP JUMPDEST PUSH1 0x0 PUSH2 0x2E8F PUSH2 0x2E8A DUP5 PUSH2 0x2C6C JUMP JUMPDEST PUSH2 0x2C51 JUMP JUMPDEST SWAP1 POP DUP1 DUP4 DUP3 MSTORE PUSH1 0x20 DUP3 ADD SWAP1 POP PUSH1 0x20 DUP5 MUL DUP4 ADD DUP6 DUP2 GT ISZERO PUSH2 0x2EB2 JUMPI PUSH2 0x2EB1 PUSH2 0x2C98 JUMP JUMPDEST JUMPDEST DUP4 JUMPDEST DUP2 DUP2 LT ISZERO PUSH2 0x2EF9 JUMPI DUP1 CALLDATALOAD PUSH8 0xFFFFFFFFFFFFFFFF DUP2 GT ISZERO PUSH2 0x2ED7 JUMPI PUSH2 0x2ED6 PUSH2 0x2BDB JUMP JUMPDEST JUMPDEST DUP1 DUP7 ADD PUSH2 0x2EE4 DUP10 DUP3 PUSH2 0x2E10 JUMP JUMPDEST DUP6 MSTORE PUSH1 0x20 DUP6 ADD SWAP5 POP POP POP PUSH1 0x20 DUP2 ADD SWAP1 POP PUSH2 0x2EB4 JUMP JUMPDEST POP POP POP SWAP4 SWAP3 POP POP POP JUMP JUMPDEST PUSH1 0x0 DUP3 PUSH1 0x1F DUP4 ADD SLT PUSH2 0x2F18 JUMPI PUSH2 0x2F17 PUSH2 0x2BDB JUMP JUMPDEST JUMPDEST DUP2 CALLDATALOAD PUSH2 0x2F28 DUP5 DUP3 PUSH1 0x20 DUP7 ADD PUSH2 0x2E7C JUMP JUMPDEST SWAP2 POP POP SWAP3 SWAP2 POP POP JUMP JUMPDEST PUSH2 0x2F3A DUP2 PUSH2 0x2CC7 JUMP JUMPDEST DUP2 EQ PUSH2 0x2F45 JUMPI PUSH1 0x0 DUP1 REVERT JUMPDEST POP JUMP JUMPDEST PUSH1 0x0 DUP2 CALLDATALOAD SWAP1 POP PUSH2 0x2F57 DUP2 PUSH2 0x2F31 JUMP JUMPDEST SWAP3 SWAP2 POP POP JUMP JUMPDEST PUSH1 0x0 DUP1 PUSH1 0x40 DUP4 DUP6 SUB SLT ISZERO PUSH2 0x2F74 JUMPI PUSH2 0x2F73 PUSH2 0x2BD1 JUMP JUMPDEST JUMPDEST PUSH1 0x0 DUP4 ADD CALLDATALOAD PUSH8 0xFFFFFFFFFFFFFFFF DUP2 GT ISZERO PUSH2 0x2F92 JUMPI PUSH2 0x2F91 PUSH2 0x2BD6 JUMP JUMPDEST JUMPDEST PUSH2 0x2F9E DUP6 DUP3 DUP7 ADD PUSH2 0x2F03 JUMP JUMPDEST SWAP3 POP POP PUSH1 0x20 PUSH2 0x2FAF DUP6 DUP3 DUP7 ADD PUSH2 0x2F48 JUMP JUMPDEST SWAP2 POP POP SWAP3 POP SWAP3 SWAP1 POP JUMP JUMPDEST PUSH1 0x0 PUSH1 0x20 DUP3 DUP5 SUB SLT ISZERO PUSH2 0x2FCF JUMPI PUSH2 0x2FCE PUSH2 0x2BD1 JUMP JUMPDEST JUMPDEST PUSH1 0x0 PUSH2 0x2FDD DUP5 DUP3 DUP6 ADD PUSH2 0x2D64 JUMP JUMPDEST SWAP2 POP POP SWAP3 SWAP2 POP POP JUMP JUMPDEST PUSH1 0x0 PUSH1 0x20 DUP3 DUP5 SUB SLT ISZERO PUSH2 0x2FFC JUMPI PUSH2 0x2FFB PUSH2 0x2BD1 JUMP JUMPDEST JUMPDEST PUSH1 0x0 PUSH2 0x300A DUP5 DUP3 DUP6 ADD PUSH2 0x2F48 JUMP JUMPDEST SWAP2 POP POP SWAP3 SWAP2 POP POP JUMP JUMPDEST PUSH2 0x301C DUP2 PUSH2 0x2D43 JUMP JUMPDEST DUP3 MSTORE POP POP JUMP JUMPDEST PUSH2 0x302B DUP2 PUSH2 0x2CC7 JUMP JUMPDEST DUP3 MSTORE POP POP JUMP JUMPDEST PUSH32 0x4E487B7100000000000000000000000000000000000000000000000000000000 PUSH1 0x0 MSTORE PUSH1 0x21 PUSH1 0x4 MSTORE PUSH1 0x24 PUSH1 0x0 REVERT JUMPDEST PUSH1 0x2 DUP2 LT PUSH2 0x3071 JUMPI PUSH2 0x3070 PUSH2 0x3031 JUMP JUMPDEST JUMPDEST POP JUMP JUMPDEST PUSH1 0x0 DUP2 SWAP1 POP PUSH2 0x3082 DUP3 PUSH2 0x3060 JUMP JUMPDEST SWAP2 SWAP1 POP JUMP JUMPDEST PUSH1 0x0 PUSH2 0x3092 DUP3 PUSH2 0x3074 JUMP JUMPDEST SWAP1 POP SWAP2 SWAP1 POP JUMP JUMPDEST PUSH2 0x30A2 DUP2 PUSH2 0x3087 JUMP JUMPDEST DUP3 MSTORE POP POP JUMP JUMPDEST PUSH2 0x30B1 DUP2 PUSH2 0x2D43 JUMP JUMPDEST DUP3 MSTORE POP POP JUMP JUMPDEST PUSH1 0x80 DUP3 ADD PUSH1 0x0 DUP3 ADD MLOAD PUSH2 0x30CD PUSH1 0x0 DUP6 ADD DUP3 PUSH2 0x3022 JUMP JUMPDEST POP PUSH1 0x20 DUP3 ADD MLOAD PUSH2 0x30E0 PUSH1 0x20 DUP6 ADD DUP3 PUSH2 0x3099 JUMP JUMPDEST POP PUSH1 0x40 DUP3 ADD MLOAD PUSH2 0x30F3 PUSH1 0x40 DUP6 ADD DUP3 PUSH2 0x30A8 JUMP JUMPDEST POP PUSH1 0x60 DUP3 ADD MLOAD PUSH2 0x3106 PUSH1 0x60 DUP6 ADD DUP3 PUSH2 0x30A8 JUMP JUMPDEST POP POP POP POP JUMP JUMPDEST PUSH1 0x0 PUSH1 0xA0 DUP3 ADD SWAP1 POP PUSH2 0x3121 PUSH1 0x0 DUP4 ADD DUP6 PUSH2 0x3013 JUMP JUMPDEST PUSH2 0x312E PUSH1 0x20 DUP4 ADD DUP5 PUSH2 0x30B7 JUMP JUMPDEST SWAP4 SWAP3 POP POP POP JUMP JUMPDEST PUSH1 0x0 PUSH8 0xFFFFFFFFFFFFFFFF DUP3 GT ISZERO PUSH2 0x3150 JUMPI PUSH2 0x314F PUSH2 0x2BF1 JUMP JUMPDEST JUMPDEST PUSH1 0x20 DUP3 MUL SWAP1 POP PUSH1 0x20 DUP2 ADD SWAP1 POP SWAP2 SWAP1 POP JUMP JUMPDEST PUSH1 0x0 PUSH2 0x316C DUP3 PUSH2 0x2CC7 JUMP JUMPDEST SWAP1 POP SWAP2 SWAP1 POP JUMP JUMPDEST PUSH2 0x317C DUP2 PUSH2 0x3161 JUMP JUMPDEST DUP2 EQ PUSH2 0x3187 JUMPI PUSH1 0x0 DUP1 REVERT JUMPDEST POP JUMP JUMPDEST PUSH1 0x0 DUP2 CALLDATALOAD SWAP1 POP PUSH2 0x3199 DUP2 PUSH2 0x3173 JUMP JUMPDEST SWAP3 SWAP2 POP POP JUMP JUMPDEST PUSH1 0x0 PUSH2 0x31B2 PUSH2 0x31AD DUP5 PUSH2 0x3135 JUMP JUMPDEST PUSH2 0x2C51 JUMP JUMPDEST SWAP1 POP DUP1 DUP4 DUP3 MSTORE PUSH1 0x20 DUP3 ADD SWAP1 POP PUSH1 0x20 DUP5 MUL DUP4 ADD DUP6 DUP2 GT ISZERO PUSH2 0x31D5 JUMPI PUSH2 0x31D4 PUSH2 0x2C98 JUMP JUMPDEST JUMPDEST DUP4 JUMPDEST DUP2 DUP2 LT ISZERO PUSH2 0x31FE JUMPI DUP1 PUSH2 0x31EA DUP9 DUP3 PUSH2 0x318A JUMP JUMPDEST DUP5 MSTORE PUSH1 0x20 DUP5 ADD SWAP4 POP POP PUSH1 0x20 DUP2 ADD SWAP1 POP PUSH2 0x31D7 JUMP JUMPDEST POP POP POP SWAP4 SWAP3 POP POP POP JUMP JUMPDEST PUSH1 0x0 DUP3 PUSH1 0x1F DUP4 ADD SLT PUSH2 0x321D JUMPI PUSH2 0x321C PUSH2 0x2BDB JUMP JUMPDEST JUMPDEST DUP2 CALLDATALOAD PUSH2 0x322D DUP5 DUP3 PUSH1 0x20 DUP7 ADD PUSH2 0x319F JUMP JUMPDEST SWAP2 POP POP SWAP3 SWAP2 POP POP JUMP JUMPDEST PUSH1 0x0 DUP1 PUSH1 0x0 PUSH1 0x60 DUP5 DUP7 SUB SLT ISZERO PUSH2 0x324F JUMPI PUSH2 0x324E PUSH2 0x2BD1 JUMP JUMPDEST JUMPDEST PUSH1 0x0 DUP5 ADD CALLDATALOAD PUSH8 0xFFFFFFFFFFFFFFFF DUP2 GT ISZERO PUSH2 0x326D JUMPI PUSH2 0x326C PUSH2 0x2BD6 JUMP JUMPDEST JUMPDEST PUSH2 0x3279 DUP7 DUP3 DUP8 ADD PUSH2 0x3208 JUMP JUMPDEST SWAP4 POP POP PUSH1 0x20 DUP5 ADD CALLDATALOAD PUSH8 0xFFFFFFFFFFFFFFFF DUP2 GT ISZERO PUSH2 0x329A JUMPI PUSH2 0x3299 PUSH2 0x2BD6 JUMP JUMPDEST JUMPDEST PUSH2 0x32A6 DUP7 DUP3 DUP8 ADD PUSH2 0x2F03 JUMP JUMPDEST SWAP3 POP POP PUSH1 0x40 PUSH2 0x32B7 DUP7 DUP3 DUP8 ADD PUSH2 0x2F48 JUMP JUMPDEST SWAP2 POP POP SWAP3 POP SWAP3 POP SWAP3 JUMP JUMPDEST PUSH1 0x0 DUP2 ISZERO ISZERO SWAP1 POP SWAP2 SWAP1 POP JUMP JUMPDEST PUSH2 0x32D6 DUP2 PUSH2 0x32C1 JUMP JUMPDEST DUP3 MSTORE POP POP JUMP JUMPDEST PUSH1 0x0 PUSH1 0x20 DUP3 ADD SWAP1 POP PUSH2 0x32F1 PUSH1 0x0 DUP4 ADD DUP5 PUSH2 0x32CD JUMP JUMPDEST SWAP3 SWAP2 POP POP JUMP JUMPDEST PUSH1 0x0 DUP2 SWAP1 POP SWAP2 SWAP1 POP JUMP JUMPDEST PUSH1 0x0 PUSH2 0x331C PUSH2 0x3317 PUSH2 0x3312 DUP5 PUSH2 0x2CA7 JUMP JUMPDEST PUSH2 0x32F7 JUMP JUMPDEST PUSH2 0x2CA7 JUMP JUMPDEST SWAP1 POP SWAP2 SWAP1 POP JUMP JUMPDEST PUSH1 0x0 PUSH2 0x332E DUP3 PUSH2 0x3301 JUMP JUMPDEST SWAP1 POP SWAP2 SWAP1 POP JUMP JUMPDEST PUSH1 0x0 PUSH2 0x3340 DUP3 PUSH2 0x3323 JUMP JUMPDEST SWAP1 POP SWAP2 SWAP1 POP JUMP JUMPDEST PUSH2 0x3350 DUP2 PUSH2 0x3335 JUMP JUMPDEST DUP3 MSTORE POP POP JUMP JUMPDEST PUSH1 0x0 PUSH1 0x20 DUP3 ADD SWAP1 POP PUSH2 0x336B PUSH1 0x0 DUP4 ADD DUP5 PUSH2 0x3347 JUMP JUMPDEST SWAP3 SWAP2 POP POP JUMP JUMPDEST PUSH1 0x0 DUP1 PUSH1 0x40 DUP4 DUP6 SUB SLT ISZERO PUSH2 0x3388 JUMPI PUSH2 0x3387 PUSH2 0x2BD1 JUMP JUMPDEST JUMPDEST PUSH1 0x0 PUSH2 0x3396 DUP6 DUP3 DUP7 ADD PUSH2 0x2D64 JUMP JUMPDEST SWAP3 POP POP PUSH1 0x20 PUSH2 0x33A7 DUP6 DUP3 DUP7 ADD PUSH2 0x2D64 JUMP JUMPDEST SWAP2 POP POP SWAP3 POP SWAP3 SWAP1 POP JUMP JUMPDEST PUSH1 0x2 DUP2 LT PUSH2 0x33BE JUMPI PUSH1 0x0 DUP1 REVERT JUMPDEST POP JUMP JUMPDEST PUSH1 0x0 DUP2 CALLDATALOAD SWAP1 POP PUSH2 0x33D0 DUP2 PUSH2 0x33B1 JUMP JUMPDEST SWAP3 SWAP2 POP POP JUMP JUMPDEST PUSH1 0x0 DUP1 PUSH1 0x0 DUP1 PUSH1 0x0 PUSH1 0xA0 DUP7 DUP9 SUB SLT ISZERO PUSH2 0x33F2 JUMPI PUSH2 0x33F1 PUSH2 0x2BD1 JUMP JUMPDEST JUMPDEST PUSH1 0x0 PUSH2 0x3400 DUP9 DUP3 DUP10 ADD PUSH2 0x2D64 JUMP JUMPDEST SWAP6 POP POP PUSH1 0x20 PUSH2 0x3411 DUP9 DUP3 DUP10 ADD PUSH2 0x2F48 JUMP JUMPDEST SWAP5 POP POP PUSH1 0x40 PUSH2 0x3422 DUP9 DUP3 DUP10 ADD PUSH2 0x33C1 JUMP JUMPDEST SWAP4 POP POP PUSH1 0x60 PUSH2 0x3433 DUP9 DUP3 DUP10 ADD PUSH2 0x2D64 JUMP JUMPDEST SWAP3 POP POP PUSH1 0x80 PUSH2 0x3444 DUP9 DUP3 DUP10 ADD PUSH2 0x2D64 JUMP JUMPDEST SWAP2 POP POP SWAP3 SWAP6 POP SWAP3 SWAP6 SWAP1 SWAP4 POP JUMP JUMPDEST PUSH1 0x0 DUP1 PUSH1 0x40 DUP4 DUP6 SUB SLT ISZERO PUSH2 0x3468 JUMPI PUSH2 0x3467 PUSH2 0x2BD1 JUMP JUMPDEST JUMPDEST PUSH1 0x0 DUP4 ADD CALLDATALOAD PUSH8 0xFFFFFFFFFFFFFFFF DUP2 GT ISZERO PUSH2 0x3486 JUMPI PUSH2 0x3485 PUSH2 0x2BD6 JUMP JUMPDEST JUMPDEST PUSH2 0x3492 DUP6 DUP3 DUP7 ADD PUSH2 0x3208 JUMP JUMPDEST SWAP3 POP POP PUSH1 0x20 PUSH2 0x34A3 DUP6 DUP3 DUP7 ADD PUSH2 0x2F48 JUMP JUMPDEST SWAP2 POP POP SWAP3 POP SWAP3 SWAP1 POP JUMP JUMPDEST PUSH1 0x0 PUSH2 0x34B8 DUP3 PUSH2 0x2CA7 JUMP JUMPDEST SWAP1 POP SWAP2 SWAP1 POP JUMP JUMPDEST PUSH2 0x34C8 DUP2 PUSH2 0x34AD JUMP JUMPDEST DUP2 EQ PUSH2 0x34D3 JUMPI PUSH1 0x0 DUP1 REVERT JUMPDEST POP JUMP JUMPDEST PUSH1 0x0 DUP2 CALLDATALOAD SWAP1 POP PUSH2 0x34E5 DUP2 PUSH2 0x34BF JUMP JUMPDEST SWAP3 SWAP2 POP POP JUMP JUMPDEST PUSH1 0x0 PUSH1 0x20 DUP3 DUP5 SUB SLT ISZERO PUSH2 0x3501 JUMPI PUSH2 0x3500 PUSH2 0x2BD1 JUMP JUMPDEST JUMPDEST PUSH1 0x0 PUSH2 0x350F DUP5 DUP3 DUP6 ADD PUSH2 0x34D6 JUMP JUMPDEST SWAP2 POP POP SWAP3 SWAP2 POP POP JUMP JUMPDEST PUSH2 0x3521 DUP2 PUSH2 0x32C1 JUMP JUMPDEST DUP2 EQ PUSH2 0x352C JUMPI PUSH1 0x0 DUP1 REVERT JUMPDEST POP JUMP JUMPDEST PUSH1 0x0 DUP2 CALLDATALOAD SWAP1 POP PUSH2 0x353E DUP2 PUSH2 0x3518 JUMP JUMPDEST SWAP3 SWAP2 POP POP JUMP JUMPDEST PUSH1 0x0 PUSH1 0x20 DUP3 DUP5 SUB SLT ISZERO PUSH2 0x355A JUMPI PUSH2 0x3559 PUSH2 0x2BD1 JUMP JUMPDEST JUMPDEST PUSH1 0x0 PUSH2 0x3568 DUP5 DUP3 DUP6 ADD PUSH2 0x352F JUMP JUMPDEST SWAP2 POP POP SWAP3 SWAP2 POP POP JUMP JUMPDEST PUSH1 0x0 DUP1 PUSH1 0x40 DUP4 DUP6 SUB SLT ISZERO PUSH2 0x3588 JUMPI PUSH2 0x3587 PUSH2 0x2BD1 JUMP JUMPDEST JUMPDEST PUSH1 0x0 DUP4 ADD CALLDATALOAD PUSH8 0xFFFFFFFFFFFFFFFF DUP2 GT ISZERO PUSH2 0x35A6 JUMPI PUSH2 0x35A5 PUSH2 0x2BD6 JUMP JUMPDEST JUMPDEST PUSH2 0x35B2 DUP6 DUP3 DUP7 ADD PUSH2 0x2DE2 JUMP JUMPDEST SWAP3 POP POP PUSH1 0x20 PUSH2 0x35C3 DUP6 DUP3 DUP7 ADD PUSH2 0x352F JUMP JUMPDEST SWAP2 POP POP SWAP3 POP SWAP3 SWAP1 POP JUMP JUMPDEST PUSH1 0x0 PUSH2 0x35D8 DUP3 PUSH2 0x3323 JUMP JUMPDEST SWAP1 POP SWAP2 SWAP1 POP JUMP JUMPDEST PUSH2 0x35E8 DUP2 PUSH2 0x35CD JUMP JUMPDEST DUP3 MSTORE POP POP JUMP JUMPDEST PUSH1 0x0 PUSH1 0x20 DUP3 ADD SWAP1 POP PUSH2 0x3603 PUSH1 0x0 DUP4 ADD DUP5 PUSH2 0x35DF JUMP JUMPDEST SWAP3 SWAP2 POP POP JUMP JUMPDEST PUSH2 0x3612 DUP2 PUSH2 0x2CC7 JUMP JUMPDEST DUP3 MSTORE POP POP JUMP JUMPDEST PUSH1 0x0 PUSH1 0x20 DUP3 ADD SWAP1 POP PUSH2 0x362D PUSH1 0x0 DUP4 ADD DUP5 PUSH2 0x3609 JUMP JUMPDEST SWAP3 SWAP2 POP POP JUMP JUMPDEST PUSH1 0x0 PUSH2 0x363E DUP3 PUSH2 0x3323 JUMP JUMPDEST SWAP1 POP SWAP2 SWAP1 POP JUMP JUMPDEST PUSH2 0x364E DUP2 PUSH2 0x3633 JUMP JUMPDEST DUP3 MSTORE POP POP JUMP JUMPDEST PUSH1 0x0 PUSH1 0x20 DUP3 ADD SWAP1 POP PUSH2 0x3669 PUSH1 0x0 DUP4 ADD DUP5 PUSH2 0x3645 JUMP JUMPDEST SWAP3 SWAP2 POP POP JUMP JUMPDEST PUSH1 0x0 PUSH8 0xFFFFFFFFFFFFFFFF DUP3 GT ISZERO PUSH2 0x368A JUMPI PUSH2 0x3689 PUSH2 0x2BF1 JUMP JUMPDEST JUMPDEST PUSH1 0x20 DUP3 MUL SWAP1 POP PUSH1 0x20 DUP2 ADD SWAP1 POP SWAP2 SWAP1 POP JUMP JUMPDEST PUSH1 0x0 PUSH2 0x36AE PUSH2 0x36A9 DUP5 PUSH2 0x366F JUMP JUMPDEST PUSH2 0x2C51 JUMP JUMPDEST SWAP1 POP DUP1 DUP4 DUP3 MSTORE PUSH1 0x20 DUP3 ADD SWAP1 POP PUSH1 0x20 DUP5 MUL DUP4 ADD DUP6 DUP2 GT ISZERO PUSH2 0x36D1 JUMPI PUSH2 0x36D0 PUSH2 0x2C98 JUMP JUMPDEST JUMPDEST DUP4 JUMPDEST DUP2 DUP2 LT ISZERO PUSH2 0x36FA JUMPI DUP1 PUSH2 0x36E6 DUP9 DUP3 PUSH2 0x2F48 JUMP JUMPDEST DUP5 MSTORE PUSH1 0x20 DUP5 ADD SWAP4 POP POP PUSH1 0x20 DUP2 ADD SWAP1 POP PUSH2 0x36D3 JUMP JUMPDEST POP POP POP SWAP4 SWAP3 POP POP POP JUMP JUMPDEST PUSH1 0x0 DUP3 PUSH1 0x1F DUP4 ADD SLT PUSH2 0x3719 JUMPI PUSH2 0x3718 PUSH2 0x2BDB JUMP JUMPDEST JUMPDEST DUP2 CALLDATALOAD PUSH2 0x3729 DUP5 DUP3 PUSH1 0x20 DUP7 ADD PUSH2 0x369B JUMP JUMPDEST SWAP2 POP POP SWAP3 SWAP2 POP POP JUMP JUMPDEST PUSH1 0x0 PUSH1 0x20 DUP3 DUP5 SUB SLT ISZERO PUSH2 0x3748 JUMPI PUSH2 0x3747 PUSH2 0x2BD1 JUMP JUMPDEST JUMPDEST PUSH1 0x0 DUP3 ADD CALLDATALOAD PUSH8 0xFFFFFFFFFFFFFFFF DUP2 GT ISZERO PUSH2 0x3766 JUMPI PUSH2 0x3765 PUSH2 0x2BD6 JUMP JUMPDEST JUMPDEST PUSH2 0x3772 DUP5 DUP3 DUP6 ADD PUSH2 0x3704 JUMP JUMPDEST SWAP2 POP POP SWAP3 SWAP2 POP POP JUMP JUMPDEST PUSH2 0x3784 DUP2 PUSH2 0x3087 JUMP JUMPDEST DUP3 MSTORE POP POP JUMP JUMPDEST PUSH1 0x0 PUSH1 0x80 DUP3 ADD SWAP1 POP PUSH2 0x379F PUSH1 0x0 DUP4 ADD DUP8 PUSH2 0x3609 JUMP JUMPDEST PUSH2 0x37AC PUSH1 0x20 DUP4 ADD DUP7 PUSH2 0x377B JUMP JUMPDEST PUSH2 0x37B9 PUSH1 0x40 DUP4 ADD DUP6 PUSH2 0x3013 JUMP JUMPDEST PUSH2 0x37C6 PUSH1 0x60 DUP4 ADD DUP5 PUSH2 0x3013 JUMP JUMPDEST SWAP6 SWAP5 POP POP POP POP POP JUMP JUMPDEST PUSH1 0x0 PUSH1 0x20 DUP3 ADD SWAP1 POP PUSH2 0x37E4 PUSH1 0x0 DUP4 ADD DUP5 PUSH2 0x3013 JUMP JUMPDEST SWAP3 SWAP2 POP POP JUMP JUMPDEST PUSH1 0x0 PUSH2 0x37F5 DUP3 PUSH2 0x2CC7 JUMP JUMPDEST SWAP1 POP SWAP2 SWAP1 POP JUMP JUMPDEST PUSH2 0x3805 DUP2 PUSH2 0x37EA JUMP JUMPDEST DUP2 EQ PUSH2 0x3810 JUMPI PUSH1 0x0 DUP1 REVERT JUMPDEST POP JUMP JUMPDEST PUSH1 0x0 DUP2 CALLDATALOAD SWAP1 POP PUSH2 0x3822 DUP2 PUSH2 0x37FC JUMP JUMPDEST SWAP3 SWAP2 POP POP JUMP JUMPDEST PUSH1 0x0 PUSH2 0x3833 DUP3 PUSH2 0x2CC7 JUMP JUMPDEST SWAP1 POP SWAP2 SWAP1 POP JUMP JUMPDEST PUSH2 0x3843 DUP2 PUSH2 0x3828 JUMP JUMPDEST DUP2 EQ PUSH2 0x384E JUMPI PUSH1 0x0 DUP1 REVERT JUMPDEST POP JUMP JUMPDEST PUSH1 0x0 DUP2 CALLDATALOAD SWAP1 POP PUSH2 0x3860 DUP2 PUSH2 0x383A JUMP JUMPDEST SWAP3 SWAP2 POP POP JUMP JUMPDEST PUSH1 0x0 PUSH2 0x3871 DUP3 PUSH2 0x2CC7 JUMP JUMPDEST SWAP1 POP SWAP2 SWAP1 POP JUMP JUMPDEST PUSH2 0x3881 DUP2 PUSH2 0x3866 JUMP JUMPDEST DUP2 EQ PUSH2 0x388C JUMPI PUSH1 0x0 DUP1 REVERT JUMPDEST POP JUMP JUMPDEST PUSH1 0x0 DUP2 CALLDATALOAD SWAP1 POP PUSH2 0x389E DUP2 PUSH2 0x3878 JUMP JUMPDEST SWAP3 SWAP2 POP POP JUMP JUMPDEST PUSH1 0x0 DUP1 PUSH1 0x0 DUP1 PUSH1 0x80 DUP6 DUP8 SUB SLT ISZERO PUSH2 0x38BE JUMPI PUSH2 0x38BD PUSH2 0x2BD1 JUMP JUMPDEST JUMPDEST PUSH1 0x0 PUSH2 0x38CC DUP8 DUP3 DUP9 ADD PUSH2 0x3813 JUMP JUMPDEST SWAP5 POP POP PUSH1 0x20 PUSH2 0x38DD DUP8 DUP3 DUP9 ADD PUSH2 0x3851 JUMP JUMPDEST SWAP4 POP POP PUSH1 0x40 PUSH2 0x38EE DUP8 DUP3 DUP9 ADD PUSH2 0x2F48 JUMP JUMPDEST SWAP3 POP POP PUSH1 0x60 PUSH2 0x38FF DUP8 DUP3 DUP9 ADD PUSH2 0x388F JUMP JUMPDEST SWAP2 POP POP SWAP3 SWAP6 SWAP2 SWAP5 POP SWAP3 POP JUMP JUMPDEST PUSH1 0x0 PUSH1 0x40 DUP3 ADD SWAP1 POP PUSH2 0x3920 PUSH1 0x0 DUP4 ADD DUP6 PUSH2 0x3013 JUMP JUMPDEST PUSH2 0x392D PUSH1 0x20 DUP4 ADD DUP5 PUSH2 0x3609 JUMP JUMPDEST SWAP4 SWAP3 POP POP POP JUMP JUMPDEST PUSH1 0x0 DUP2 MLOAD SWAP1 POP PUSH2 0x3943 DUP2 PUSH2 0x2D4D JUMP JUMPDEST SWAP3 SWAP2 POP POP JUMP JUMPDEST PUSH1 0x0 DUP1 PUSH1 0x40 DUP4 DUP6 SUB SLT ISZERO PUSH2 0x3960 JUMPI PUSH2 0x395F PUSH2 0x2BD1 JUMP JUMPDEST JUMPDEST PUSH1 0x0 PUSH2 0x396E DUP6 DUP3 DUP7 ADD PUSH2 0x3934 JUMP JUMPDEST SWAP3 POP POP PUSH1 0x20 PUSH2 0x397F DUP6 DUP3 DUP7 ADD PUSH2 0x3934 JUMP JUMPDEST SWAP2 POP POP SWAP3 POP SWAP3 SWAP1 POP JUMP JUMPDEST PUSH1 0x0 PUSH1 0x40 DUP3 ADD SWAP1 POP PUSH2 0x399E PUSH1 0x0 DUP4 ADD DUP6 PUSH2 0x3013 JUMP JUMPDEST PUSH2 0x39AB PUSH1 0x20 DUP4 ADD DUP5 PUSH2 0x3013 JUMP JUMPDEST SWAP4 SWAP3 POP POP POP JUMP JUMPDEST PUSH1 0x0 DUP2 MLOAD SWAP1 POP PUSH2 0x39C1 DUP2 PUSH2 0x2F31 JUMP JUMPDEST SWAP3 SWAP2 POP POP JUMP JUMPDEST PUSH1 0x0 PUSH2 0x39D2 DUP3 PUSH2 0x2CC7 JUMP JUMPDEST SWAP1 POP SWAP2 SWAP1 POP JUMP JUMPDEST PUSH2 0x39E2 DUP2 PUSH2 0x39C7 JUMP JUMPDEST DUP2 EQ PUSH2 0x39ED JUMPI PUSH1 0x0 DUP1 REVERT JUMPDEST POP JUMP JUMPDEST PUSH1 0x0 DUP2 MLOAD SWAP1 POP PUSH2 0x39FF DUP2 PUSH2 0x39D9 JUMP JUMPDEST SWAP3 SWAP2 POP POP JUMP JUMPDEST PUSH1 0x0 PUSH2 0xFFFF DUP3 AND SWAP1 POP SWAP2 SWAP1 POP JUMP JUMPDEST PUSH2 0x3A1C DUP2 PUSH2 0x3A05 JUMP JUMPDEST DUP2 EQ PUSH2 0x3A27 JUMPI PUSH1 0x0 DUP1 REVERT JUMPDEST POP JUMP JUMPDEST PUSH1 0x0 DUP2 MLOAD SWAP1 POP PUSH2 0x3A39 DUP2 PUSH2 0x3A13 JUMP JUMPDEST SWAP3 SWAP2 POP POP JUMP JUMPDEST PUSH1 0x0 DUP1 PUSH1 0x0 DUP1 PUSH1 0x0 DUP1 PUSH1 0x0 PUSH1 0xE0 DUP9 DUP11 SUB SLT ISZERO PUSH2 0x3A5E JUMPI PUSH2 0x3A5D PUSH2 0x2BD1 JUMP JUMPDEST JUMPDEST PUSH1 0x0 PUSH2 0x3A6C DUP11 DUP3 DUP12 ADD PUSH2 0x39B2 JUMP JUMPDEST SWAP8 POP POP PUSH1 0x20 PUSH2 0x3A7D DUP11 DUP3 DUP12 ADD PUSH2 0x3934 JUMP JUMPDEST SWAP7 POP POP PUSH1 0x40 PUSH2 0x3A8E DUP11 DUP3 DUP12 ADD PUSH2 0x39F0 JUMP JUMPDEST SWAP6 POP POP PUSH1 0x60 PUSH2 0x3A9F DUP11 DUP3 DUP12 ADD PUSH2 0x3934 JUMP JUMPDEST SWAP5 POP POP PUSH1 0x80 PUSH2 0x3AB0 DUP11 DUP3 DUP12 ADD PUSH2 0x3934 JUMP JUMPDEST SWAP4 POP POP PUSH1 0xA0 PUSH2 0x3AC1 DUP11 DUP3 DUP12 ADD PUSH2 0x3934 JUMP JUMPDEST SWAP3 POP POP PUSH1 0xC0 PUSH2 0x3AD2 DUP11 DUP3 DUP12 ADD PUSH2 0x3A2A JUMP JUMPDEST SWAP2 POP POP SWAP3 SWAP6 SWAP9 SWAP2 SWAP5 SWAP8 POP SWAP3 SWAP6 POP JUMP JUMPDEST PUSH1 0x0 PUSH1 0x20 DUP3 DUP5 SUB SLT ISZERO PUSH2 0x3AF7 JUMPI PUSH2 0x3AF6 PUSH2 0x2BD1 JUMP JUMPDEST JUMPDEST PUSH1 0x0 PUSH2 0x3B05 DUP5 DUP3 DUP6 ADD PUSH2 0x3934 JUMP JUMPDEST SWAP2 POP POP SWAP3 SWAP2 POP POP JUMP JUMPDEST PUSH1 0x0 DUP3 DUP3 MSTORE PUSH1 0x20 DUP3 ADD SWAP1 POP SWAP3 SWAP2 POP POP JUMP JUMPDEST PUSH32 0x42616E616E61416C6C6F6361746F723A206E6F20746F6B656E7320746F207374 PUSH1 0x0 DUP3 ADD MSTORE PUSH32 0x616B650000000000000000000000000000000000000000000000000000000000 PUSH1 0x20 DUP3 ADD MSTORE POP JUMP JUMPDEST PUSH1 0x0 PUSH2 0x3B7B PUSH1 0x23 DUP4 PUSH2 0x3B0E JUMP JUMPDEST SWAP2 POP PUSH2 0x3B86 DUP3 PUSH2 0x3B1F JUMP JUMPDEST PUSH1 0x40 DUP3 ADD SWAP1 POP SWAP2 SWAP1 POP JUMP JUMPDEST PUSH1 0x0 PUSH1 0x20 DUP3 ADD SWAP1 POP DUP2 DUP2 SUB PUSH1 0x0 DUP4 ADD MSTORE PUSH2 0x3BAA DUP2 PUSH2 0x3B6E JUMP JUMPDEST SWAP1 POP SWAP2 SWAP1 POP JUMP JUMPDEST PUSH1 0x0 PUSH1 0x40 DUP3 ADD SWAP1 POP PUSH2 0x3BC6 PUSH1 0x0 DUP4 ADD DUP6 PUSH2 0x3609 JUMP JUMPDEST PUSH2 0x3BD3 PUSH1 0x20 DUP4 ADD DUP5 PUSH2 0x3013 JUMP JUMPDEST SWAP4 SWAP3 POP POP POP JUMP JUMPDEST PUSH1 0x0 DUP2 MLOAD SWAP1 POP PUSH2 0x3BE9 DUP2 PUSH2 0x3518 JUMP JUMPDEST SWAP3 SWAP2 POP POP JUMP JUMPDEST PUSH1 0x0 PUSH1 0x20 DUP3 DUP5 SUB SLT ISZERO PUSH2 0x3C05 JUMPI PUSH2 0x3C04 PUSH2 0x2BD1 JUMP JUMPDEST JUMPDEST PUSH1 0x0 PUSH2 0x3C13 DUP5 DUP3 DUP6 ADD PUSH2 0x3BDA JUMP JUMPDEST SWAP2 POP POP SWAP3 SWAP2 POP POP JUMP JUMPDEST PUSH32 0x42616E616E61416C6C6F6361746F723A20496E646578206F7574206F6620626F PUSH1 0x0 DUP3 ADD MSTORE PUSH32 0x756E647300000000000000000000000000000000000000000000000000000000 PUSH1 0x20 DUP3 ADD MSTORE POP JUMP JUMPDEST PUSH1 0x0 PUSH2 0x3C78 PUSH1 0x24 DUP4 PUSH2 0x3B0E JUMP JUMPDEST SWAP2 POP PUSH2 0x3C83 DUP3 PUSH2 0x3C1C JUMP JUMPDEST PUSH1 0x40 DUP3 ADD SWAP1 POP SWAP2 SWAP1 POP JUMP JUMPDEST PUSH1 0x0 PUSH1 0x20 DUP3 ADD SWAP1 POP DUP2 DUP2 SUB PUSH1 0x0 DUP4 ADD MSTORE PUSH2 0x3CA7 DUP2 PUSH2 0x3C6B JUMP JUMPDEST SWAP1 POP SWAP2 SWAP1 POP JUMP JUMPDEST PUSH32 0x42616E616E61416C6C6F6361746F723A2077726F6E672073657474696E677300 PUSH1 0x0 DUP3 ADD MSTORE POP JUMP JUMPDEST PUSH1 0x0 PUSH2 0x3CE4 PUSH1 0x1F DUP4 PUSH2 0x3B0E JUMP JUMPDEST SWAP2 POP PUSH2 0x3CEF DUP3 PUSH2 0x3CAE JUMP JUMPDEST PUSH1 0x20 DUP3 ADD SWAP1 POP SWAP2 SWAP1 POP JUMP JUMPDEST PUSH1 0x0 PUSH1 0x20 DUP3 ADD SWAP1 POP DUP2 DUP2 SUB PUSH1 0x0 DUP4 ADD MSTORE PUSH2 0x3D13 DUP2 PUSH2 0x3CD7 JUMP JUMPDEST SWAP1 POP SWAP2 SWAP1 POP JUMP JUMPDEST PUSH32 0x42616E616E61416C6C6F6361746F723A2043616E27742073656E6420746F206E PUSH1 0x0 DUP3 ADD MSTORE PUSH32 0x756C6C2061646472657373000000000000000000000000000000000000000000 PUSH1 0x20 DUP3 ADD MSTORE POP JUMP JUMPDEST PUSH1 0x0 PUSH2 0x3D76 PUSH1 0x2B DUP4 PUSH2 0x3B0E JUMP JUMPDEST SWAP2 POP PUSH2 0x3D81 DUP3 PUSH2 0x3D1A JUMP JUMPDEST PUSH1 0x40 DUP3 ADD SWAP1 POP SWAP2 SWAP1 POP JUMP JUMPDEST PUSH1 0x0 PUSH1 0x20 DUP3 ADD SWAP1 POP DUP2 DUP2 SUB PUSH1 0x0 DUP4 ADD MSTORE PUSH2 0x3DA5 DUP2 PUSH2 0x3D69 JUMP JUMPDEST SWAP1 POP SWAP2 SWAP1 POP JUMP JUMPDEST PUSH32 0x42616E616E61416C6C6F6361746F723A2042616E616E6120726F757465207769 PUSH1 0x0 DUP3 ADD MSTORE PUSH32 0x746820746869732070696420616C726561647920657869737473000000000000 PUSH1 0x20 DUP3 ADD MSTORE POP JUMP JUMPDEST PUSH1 0x0 PUSH2 0x3E08 PUSH1 0x3A DUP4 PUSH2 0x3B0E JUMP JUMPDEST SWAP2 POP PUSH2 0x3E13 DUP3 PUSH2 0x3DAC JUMP JUMPDEST PUSH1 0x40 DUP3 ADD SWAP1 POP SWAP2 SWAP1 POP JUMP JUMPDEST PUSH1 0x0 PUSH1 0x20 DUP3 ADD SWAP1 POP DUP2 DUP2 SUB PUSH1 0x0 DUP4 ADD MSTORE PUSH2 0x3E37 DUP2 PUSH2 0x3DFB JUMP JUMPDEST SWAP1 POP SWAP2 SWAP1 POP JUMP JUMPDEST PUSH1 0x0 PUSH1 0xA0 DUP3 ADD SWAP1 POP PUSH2 0x3E53 PUSH1 0x0 DUP4 ADD DUP9 PUSH2 0x3013 JUMP JUMPDEST PUSH2 0x3E60 PUSH1 0x20 DUP4 ADD DUP8 PUSH2 0x3609 JUMP JUMPDEST PUSH2 0x3E6D PUSH1 0x40 DUP4 ADD DUP7 PUSH2 0x377B JUMP JUMPDEST PUSH2 0x3E7A PUSH1 0x60 DUP4 ADD DUP6 PUSH2 0x3013 JUMP JUMPDEST PUSH2 0x3E87 PUSH1 0x80 DUP4 ADD DUP5 PUSH2 0x3013 JUMP JUMPDEST SWAP7 SWAP6 POP POP POP POP POP POP JUMP JUMPDEST PUSH32 0x4E6F7420616C6C6F776564000000000000000000000000000000000000000000 PUSH1 0x0 DUP3 ADD MSTORE POP JUMP JUMPDEST PUSH1 0x0 PUSH2 0x3EC7 PUSH1 0xB DUP4 PUSH2 0x3B0E JUMP JUMPDEST SWAP2 POP PUSH2 0x3ED2 DUP3 PUSH2 0x3E91 JUMP JUMPDEST PUSH1 0x20 DUP3 ADD SWAP1 POP SWAP2 SWAP1 POP JUMP JUMPDEST PUSH1 0x0 PUSH1 0x20 DUP3 ADD SWAP1 POP DUP2 DUP2 SUB PUSH1 0x0 DUP4 ADD MSTORE PUSH2 0x3EF6 DUP2 PUSH2 0x3EBA JUMP JUMPDEST SWAP1 POP SWAP2 SWAP1 POP JUMP JUMPDEST PUSH1 0x0 DUP2 SWAP1 POP SWAP3 SWAP2 POP POP JUMP JUMPDEST POP JUMP JUMPDEST PUSH1 0x0 PUSH2 0x3F18 PUSH1 0x0 DUP4 PUSH2 0x3EFD JUMP JUMPDEST SWAP2 POP PUSH2 0x3F23 DUP3 PUSH2 0x3F08 JUMP JUMPDEST PUSH1 0x0 DUP3 ADD SWAP1 POP SWAP2 SWAP1 POP JUMP JUMPDEST PUSH1 0x0 PUSH2 0x3F39 DUP3 PUSH2 0x3F0B JUMP JUMPDEST SWAP2 POP DUP2 SWAP1 POP SWAP2 SWAP1 POP JUMP JUMPDEST PUSH32 0x4661696C656420746F207472616E73666572206E617469766500000000000000 PUSH1 0x0 DUP3 ADD MSTORE POP JUMP JUMPDEST PUSH1 0x0 PUSH2 0x3F79 PUSH1 0x19 DUP4 PUSH2 0x3B0E JUMP JUMPDEST SWAP2 POP PUSH2 0x3F84 DUP3 PUSH2 0x3F43 JUMP JUMPDEST PUSH1 0x20 DUP3 ADD SWAP1 POP SWAP2 SWAP1 POP JUMP JUMPDEST PUSH1 0x0 PUSH1 0x20 DUP3 ADD SWAP1 POP DUP2 DUP2 SUB PUSH1 0x0 DUP4 ADD MSTORE PUSH2 0x3FA8 DUP2 PUSH2 0x3F6C JUMP JUMPDEST SWAP1 POP SWAP2 SWAP1 POP JUMP JUMPDEST PUSH32 0x4E487B7100000000000000000000000000000000000000000000000000000000 PUSH1 0x0 MSTORE PUSH1 0x11 PUSH1 0x4 MSTORE PUSH1 0x24 PUSH1 0x0 REVERT JUMPDEST PUSH1 0x0 PUSH2 0x3FE9 DUP3 PUSH2 0x2D43 JUMP JUMPDEST SWAP2 POP PUSH32 0xFFFFFFFFFFFFFFFFFFFFFFFFFFFFFFFFFFFFFFFFFFFFFFFFFFFFFFFFFFFFFFFF DUP3 SUB PUSH2 0x401B JUMPI PUSH2 0x401A PUSH2 0x3FAF JUMP JUMPDEST JUMPDEST PUSH1 0x1 DUP3 ADD SWAP1 POP SWAP2 SWAP1 POP JUMP JUMPDEST PUSH32 0x42616E616E61416C6C6F6361746F723A20706964206E6F7420666F756E640000 PUSH1 0x0 DUP3 ADD MSTORE POP JUMP JUMPDEST PUSH1 0x0 PUSH2 0x405C PUSH1 0x1E DUP4 PUSH2 0x3B0E JUMP JUMPDEST SWAP2 POP PUSH2 0x4067 DUP3 PUSH2 0x4026 JUMP JUMPDEST PUSH1 0x20 DUP3 ADD SWAP1 POP SWAP2 SWAP1 POP JUMP JUMPDEST PUSH1 0x0 PUSH1 0x20 DUP3 ADD SWAP1 POP DUP2 DUP2 SUB PUSH1 0x0 DUP4 ADD MSTORE PUSH2 0x408B DUP2 PUSH2 0x404F JUMP JUMPDEST SWAP1 POP SWAP2 SWAP1 POP JUMP JUMPDEST PUSH32 0x4E487B7100000000000000000000000000000000000000000000000000000000 PUSH1 0x0 MSTORE PUSH1 0x32 PUSH1 0x4 MSTORE PUSH1 0x24 PUSH1 0x0 REVERT JUMPDEST PUSH32 0x4F776E61626C653A206E6577206F776E657220697320746865207A65726F2061 PUSH1 0x0 DUP3 ADD MSTORE PUSH32 0x6464726573730000000000000000000000000000000000000000000000000000 PUSH1 0x20 DUP3 ADD MSTORE POP JUMP JUMPDEST PUSH1 0x0 PUSH2 0x411D PUSH1 0x26 DUP4 PUSH2 0x3B0E JUMP JUMPDEST SWAP2 POP PUSH2 0x4128 DUP3 PUSH2 0x40C1 JUMP JUMPDEST PUSH1 0x40 DUP3 ADD SWAP1 POP SWAP2 SWAP1 POP JUMP JUMPDEST PUSH1 0x0 PUSH1 0x20 DUP3 ADD SWAP1 POP DUP2 DUP2 SUB PUSH1 0x0 DUP4 ADD MSTORE PUSH2 0x414C DUP2 PUSH2 0x4110 JUMP JUMPDEST SWAP1 POP SWAP2 SWAP1 POP JUMP JUMPDEST PUSH32 0x496E697469616C697A61626C653A20636F6E747261637420697320616C726561 PUSH1 0x0 DUP3 ADD MSTORE PUSH32 0x647920696E697469616C697A6564000000000000000000000000000000000000 PUSH1 0x20 DUP3 ADD MSTORE POP JUMP JUMPDEST PUSH1 0x0 PUSH2 0x41AF PUSH1 0x2E DUP4 PUSH2 0x3B0E JUMP JUMPDEST SWAP2 POP PUSH2 0x41BA DUP3 PUSH2 0x4153 JUMP JUMPDEST PUSH1 0x40 DUP3 ADD SWAP1 POP SWAP2 SWAP1 POP JUMP JUMPDEST PUSH1 0x0 PUSH1 0x20 DUP3 ADD SWAP1 POP DUP2 DUP2 SUB PUSH1 0x0 DUP4 ADD MSTORE PUSH2 0x41DE DUP2 PUSH2 0x41A2 JUMP JUMPDEST SWAP1 POP SWAP2 SWAP1 POP JUMP JUMPDEST PUSH1 0x0 DUP2 SWAP1 POP SWAP2 SWAP1 POP JUMP JUMPDEST PUSH1 0x0 PUSH1 0xFF DUP3 AND SWAP1 POP SWAP2 SWAP1 POP JUMP JUMPDEST PUSH1 0x0 PUSH2 0x4217 PUSH2 0x4212 PUSH2 0x420D DUP5 PUSH2 0x41E5 JUMP JUMPDEST PUSH2 0x32F7 JUMP JUMPDEST PUSH2 0x41EF JUMP JUMPDEST SWAP1 POP SWAP2 SWAP1 POP JUMP JUMPDEST PUSH2 0x4227 DUP2 PUSH2 0x41FC JUMP JUMPDEST DUP3 MSTORE POP POP JUMP JUMPDEST PUSH1 0x0 PUSH1 0x20 DUP3 ADD SWAP1 POP PUSH2 0x4242 PUSH1 0x0 DUP4 ADD DUP5 PUSH2 0x421E JUMP JUMPDEST SWAP3 SWAP2 POP POP JUMP JUMPDEST PUSH32 0x4F776E61626C653A2063616C6C6572206973206E6F7420746865206F776E6572 PUSH1 0x0 DUP3 ADD MSTORE POP JUMP JUMPDEST PUSH1 0x0 PUSH2 0x427E PUSH1 0x20 DUP4 PUSH2 0x3B0E JUMP JUMPDEST SWAP2 POP PUSH2 0x4289 DUP3 PUSH2 0x4248 JUMP JUMPDEST PUSH1 0x20 DUP3 ADD SWAP1 POP SWAP2 SWAP1 POP JUMP JUMPDEST PUSH1 0x0 PUSH1 0x20 DUP3 ADD SWAP1 POP DUP2 DUP2 SUB PUSH1 0x0 DUP4 ADD MSTORE PUSH2 0x42AD DUP2 PUSH2 0x4271 JUMP JUMPDEST SWAP1 POP SWAP2 SWAP1 POP JUMP JUMPDEST PUSH32 0x546F6B656E732063616E27742062652073776570740000000000000000000000 PUSH1 0x0 DUP3 ADD MSTORE POP JUMP JUMPDEST PUSH1 0x0 PUSH2 0x42EA PUSH1 0x15 DUP4 PUSH2 0x3B0E JUMP JUMPDEST SWAP2 POP PUSH2 0x42F5 DUP3 PUSH2 0x42B4 JUMP JUMPDEST PUSH1 0x20 DUP3 ADD SWAP1 POP SWAP2 SWAP1 POP JUMP JUMPDEST PUSH1 0x0 PUSH1 0x20 DUP3 ADD SWAP1 POP DUP2 DUP2 SUB PUSH1 0x0 DUP4 ADD MSTORE PUSH2 0x4319 DUP2 PUSH2 0x42DD JUMP JUMPDEST SWAP1 POP SWAP2 SWAP1 POP JUMP JUMPDEST PUSH1 0x0 PUSH1 0x60 DUP3 ADD SWAP1 POP PUSH2 0x4335 PUSH1 0x0 DUP4 ADD DUP7 PUSH2 0x3609 JUMP JUMPDEST PUSH2 0x4342 PUSH1 0x20 DUP4 ADD DUP6 PUSH2 0x3609 JUMP JUMPDEST PUSH2 0x434F PUSH1 0x40 DUP4 ADD DUP5 PUSH2 0x3013 JUMP JUMPDEST SWAP5 SWAP4 POP POP POP POP JUMP JUMPDEST PUSH1 0x0 DUP2 MLOAD SWAP1 POP SWAP2 SWAP1 POP JUMP JUMPDEST PUSH1 0x0 DUP2 SWAP1 POP SWAP3 SWAP2 POP POP JUMP JUMPDEST PUSH1 0x0 DUP2 SWAP1 POP PUSH1 0x20 DUP3 ADD SWAP1 POP SWAP2 SWAP1 POP JUMP JUMPDEST PUSH1 0x0 PUSH2 0x4388 DUP3 PUSH2 0x3323 JUMP JUMPDEST SWAP1 POP SWAP2 SWAP1 POP JUMP JUMPDEST PUSH2 0x4398 DUP2 PUSH2 0x437D JUMP JUMPDEST DUP3 MSTORE POP POP JUMP JUMPDEST PUSH1 0x0 PUSH2 0x43AA DUP4 DUP4 PUSH2 0x438F JUMP JUMPDEST PUSH1 0x20 DUP4 ADD SWAP1 POP SWAP3 SWAP2 POP POP JUMP JUMPDEST PUSH1 0x0 DUP2 MLOAD SWAP1 POP SWAP2 SWAP1 POP JUMP JUMPDEST PUSH1 0x0 DUP2 SWAP1 POP SWAP3 SWAP2 POP POP JUMP JUMPDEST PUSH1 0x0 DUP2 SWAP1 POP PUSH1 0x20 DUP3 ADD SWAP1 POP SWAP2 SWAP1 POP JUMP JUMPDEST PUSH2 0x43E5 DUP2 PUSH2 0x2D43 JUMP JUMPDEST DUP3 MSTORE POP POP JUMP JUMPDEST PUSH1 0x0 PUSH2 0x43F7 DUP4 DUP4 PUSH2 0x43DC JUMP JUMPDEST PUSH1 0x20 DUP4 ADD SWAP1 POP SWAP3 SWAP2 POP POP JUMP JUMPDEST PUSH1 0x0 PUSH1 0x20 DUP3 ADD SWAP1 POP SWAP2 SWAP1 POP JUMP JUMPDEST PUSH1 0x0 PUSH2 0x441B DUP3 PUSH2 0x43B6 JUMP JUMPDEST PUSH2 0x4425 DUP2 DUP6 PUSH2 0x43C1 JUMP JUMPDEST SWAP4 POP PUSH2 0x4430 DUP4 PUSH2 0x43CC JUMP JUMPDEST DUP1 PUSH1 0x0 JUMPDEST DUP4 DUP2 LT ISZERO PUSH2 0x4461 JUMPI DUP2 MLOAD PUSH2 0x4448 DUP9 DUP3 PUSH2 0x43EB JUMP JUMPDEST SWAP8 POP PUSH2 0x4453 DUP4 PUSH2 0x4403 JUMP JUMPDEST SWAP3 POP POP PUSH1 0x1 DUP2 ADD SWAP1 POP PUSH2 0x4434 JUMP JUMPDEST POP DUP6 SWAP4 POP POP POP POP SWAP3 SWAP2 POP POP JUMP JUMPDEST PUSH1 0x0 PUSH2 0x447A DUP4 DUP4 PUSH2 0x4410 JUMP JUMPDEST SWAP1 POP SWAP3 SWAP2 POP POP JUMP JUMPDEST PUSH1 0x0 DUP1 DUP4 ADD PUSH1 0x0 DUP4 ADD MLOAD PUSH2 0x4496 DUP6 DUP3 PUSH2 0x439E JUMP JUMPDEST SWAP5 POP POP PUSH1 0x20 DUP4 ADD MLOAD PUSH2 0x44A8 DUP6 DUP3 PUSH2 0x446E JUMP JUMPDEST SWAP5 POP POP DUP4 SWAP2 POP POP SWAP3 SWAP2 POP POP JUMP JUMPDEST PUSH1 0x0 PUSH2 0x44C1 DUP4 DUP4 PUSH2 0x4482 JUMP JUMPDEST SWAP1 POP SWAP3 SWAP2 POP POP JUMP JUMPDEST PUSH1 0x0 PUSH1 0x20 DUP3 ADD SWAP1 POP SWAP2 SWAP1 POP JUMP JUMPDEST PUSH1 0x0 PUSH2 0x44E1 DUP3 PUSH2 0x4357 JUMP JUMPDEST PUSH2 0x44EB DUP2 DUP6 PUSH2 0x4362 JUMP JUMPDEST SWAP4 POP PUSH2 0x44F6 DUP4 PUSH2 0x436D JUMP JUMPDEST DUP1 PUSH1 0x0 JUMPDEST DUP4 DUP2 LT ISZERO PUSH2 0x4527 JUMPI DUP2 MLOAD PUSH2 0x450E DUP9 DUP3 PUSH2 0x44B5 JUMP JUMPDEST SWAP8 POP PUSH2 0x4519 DUP4 PUSH2 0x44C9 JUMP JUMPDEST SWAP3 POP POP PUSH1 0x1 DUP2 ADD SWAP1 POP PUSH2 0x44FA JUMP JUMPDEST POP DUP6 SWAP4 POP POP POP POP SWAP3 SWAP2 POP POP JUMP JUMPDEST PUSH1 0x0 PUSH2 0x4540 DUP3 DUP5 PUSH2 0x44D6 JUMP JUMPDEST SWAP2 POP DUP2 SWAP1 POP SWAP3 SWAP2 POP POP JUMP JUMPDEST PUSH32 0x42616E616E61416C6C6F6361746F723A204E6F20636F6E666967757265642072 PUSH1 0x0 DUP3 ADD MSTORE PUSH32 0x6F75746520666F756E6400000000000000000000000000000000000000000000 PUSH1 0x20 DUP3 ADD MSTORE POP JUMP JUMPDEST PUSH1 0x0 PUSH2 0x45A7 PUSH1 0x2A DUP4 PUSH2 0x3B0E JUMP JUMPDEST SWAP2 POP PUSH2 0x45B2 DUP3 PUSH2 0x454B JUMP JUMPDEST PUSH1 0x40 DUP3 ADD SWAP1 POP SWAP2 SWAP1 POP JUMP JUMPDEST PUSH1 0x0 PUSH1 0x20 DUP3 ADD SWAP1 POP DUP2 DUP2 SUB PUSH1 0x0 DUP4 ADD MSTORE PUSH2 0x45D6 DUP2 PUSH2 0x459A JUMP JUMPDEST SWAP1 POP SWAP2 SWAP1 POP JUMP JUMPDEST PUSH32 0x42616E616E61416C6C6F6361746F723A206E6F7420656E6F7567682072657761 PUSH1 0x0 DUP3 ADD MSTORE PUSH32 0x7264730000000000000000000000000000000000000000000000000000000000 PUSH1 0x20 DUP3 ADD MSTORE POP JUMP JUMPDEST PUSH1 0x0 PUSH2 0x4639 PUSH1 0x23 DUP4 PUSH2 0x3B0E JUMP JUMPDEST SWAP2 POP PUSH2 0x4644 DUP3 PUSH2 0x45DD JUMP JUMPDEST PUSH1 0x40 DUP3 ADD SWAP1 POP SWAP2 SWAP1 POP JUMP JUMPDEST PUSH1 0x0 PUSH1 0x20 DUP3 ADD SWAP1 POP DUP2 DUP2 SUB PUSH1 0x0 DUP4 ADD MSTORE PUSH2 0x4668 DUP2 PUSH2 0x462C JUMP JUMPDEST SWAP1 POP SWAP2 SWAP1 POP JUMP JUMPDEST PUSH1 0x0 DUP2 SWAP1 POP SWAP2 SWAP1 POP JUMP JUMPDEST PUSH1 0x0 PUSH2 0x4694 PUSH2 0x468F PUSH2 0x468A DUP5 PUSH2 0x466F JUMP JUMPDEST PUSH2 0x32F7 JUMP JUMPDEST PUSH2 0x2D43 JUMP JUMPDEST SWAP1 POP SWAP2 SWAP1 POP JUMP JUMPDEST PUSH2 0x46A4 DUP2 PUSH2 0x4679 JUMP JUMPDEST DUP3 MSTORE POP POP JUMP JUMPDEST PUSH1 0x0 PUSH1 0x40 DUP3 ADD SWAP1 POP PUSH2 0x46BF PUSH1 0x0 DUP4 ADD DUP6 PUSH2 0x3013 JUMP JUMPDEST PUSH2 0x46CC PUSH1 0x20 DUP4 ADD DUP5 PUSH2 0x469B JUMP JUMPDEST SWAP4 SWAP3 POP POP POP JUMP JUMPDEST PUSH1 0x0 PUSH2 0x46DE DUP3 PUSH2 0x2D43 JUMP JUMPDEST SWAP2 POP PUSH2 0x46E9 DUP4 PUSH2 0x2D43 JUMP JUMPDEST SWAP3 POP DUP3 DUP3 LT ISZERO PUSH2 0x46FC JUMPI PUSH2 0x46FB PUSH2 0x3FAF JUMP JUMPDEST JUMPDEST DUP3 DUP3 SUB SWAP1 POP SWAP3 SWAP2 POP POP JUMP JUMPDEST PUSH1 0x0 PUSH1 0x80 DUP3 ADD SWAP1 POP PUSH2 0x471C PUSH1 0x0 DUP4 ADD DUP8 PUSH2 0x3609 JUMP JUMPDEST PUSH2 0x4729 PUSH1 0x20 DUP4 ADD DUP7 PUSH2 0x3609 JUMP JUMPDEST PUSH2 0x4736 PUSH1 0x40 DUP4 ADD DUP6 PUSH2 0x3013 JUMP JUMPDEST PUSH2 0x4743 PUSH1 0x60 DUP4 ADD DUP5 PUSH2 0x3013 JUMP JUMPDEST SWAP6 SWAP5 POP POP POP POP POP JUMP JUMPDEST PUSH1 0x0 PUSH1 0x80 DUP3 ADD SWAP1 POP PUSH2 0x4761 PUSH1 0x0 DUP4 ADD DUP8 PUSH2 0x3013 JUMP JUMPDEST PUSH2 0x476E PUSH1 0x20 DUP4 ADD DUP7 PUSH2 0x3013 JUMP JUMPDEST PUSH2 0x477B PUSH1 0x40 DUP4 ADD DUP6 PUSH2 0x3609 JUMP JUMPDEST PUSH2 0x4788 PUSH1 0x60 DUP4 ADD DUP5 PUSH2 0x3013 JUMP JUMPDEST SWAP6 SWAP5 POP POP POP POP POP JUMP JUMPDEST PUSH32 0x496E697469616C697A61626C653A20636F6E7472616374206973206E6F742069 PUSH1 0x0 DUP3 ADD MSTORE PUSH32 0x6E697469616C697A696E67000000000000000000000000000000000000000000 PUSH1 0x20 DUP3 ADD MSTORE POP JUMP JUMPDEST PUSH1 0x0 PUSH2 0x47ED PUSH1 0x2B DUP4 PUSH2 0x3B0E JUMP JUMPDEST SWAP2 POP PUSH2 0x47F8 DUP3 PUSH2 0x4791 JUMP JUMPDEST PUSH1 0x40 DUP3 ADD SWAP1 POP SWAP2 SWAP1 POP JUMP JUMPDEST PUSH1 0x0 PUSH1 0x20 DUP3 ADD SWAP1 POP DUP2 DUP2 SUB PUSH1 0x0 DUP4 ADD MSTORE PUSH2 0x481C DUP2 PUSH2 0x47E0 JUMP JUMPDEST SWAP1 POP SWAP2 SWAP1 POP JUMP JUMPDEST PUSH32 0x4E487B7100000000000000000000000000000000000000000000000000000000 PUSH1 0x0 MSTORE PUSH1 0x31 PUSH1 0x4 MSTORE PUSH1 0x24 PUSH1 0x0 REVERT JUMPDEST PUSH32 0x5361666545524332303A204552433230206F7065726174696F6E20646964206E PUSH1 0x0 DUP3 ADD MSTORE PUSH32 0x6F74207375636365656400000000000000000000000000000000000000000000 PUSH1 0x20 DUP3 ADD MSTORE POP JUMP JUMPDEST PUSH1 0x0 PUSH2 0x48AE PUSH1 0x2A DUP4 PUSH2 0x3B0E JUMP JUMPDEST SWAP2 POP PUSH2 0x48B9 DUP3 PUSH2 0x4852 JUMP JUMPDEST PUSH1 0x40 DUP3 ADD SWAP1 POP SWAP2 SWAP1 POP JUMP JUMPDEST PUSH1 0x0 PUSH1 0x20 DUP3 ADD SWAP1 POP DUP2 DUP2 SUB PUSH1 0x0 DUP4 ADD MSTORE PUSH2 0x48DD DUP2 PUSH2 0x48A1 JUMP JUMPDEST SWAP1 POP SWAP2 SWAP1 POP JUMP JUMPDEST PUSH32 0x416464726573733A20696E73756666696369656E742062616C616E636520666F PUSH1 0x0 DUP3 ADD MSTORE PUSH32 0x722063616C6C0000000000000000000000000000000000000000000000000000 PUSH1 0x20 DUP3 ADD MSTORE POP JUMP JUMPDEST PUSH1 0x0 PUSH2 0x4940 PUSH1 0x26 DUP4 PUSH2 0x3B0E JUMP JUMPDEST SWAP2 POP PUSH2 0x494B DUP3 PUSH2 0x48E4 JUMP JUMPDEST PUSH1 0x40 DUP3 ADD SWAP1 POP SWAP2 SWAP1 POP JUMP JUMPDEST PUSH1 0x0 PUSH1 0x20 DUP3 ADD SWAP1 POP DUP2 DUP2 SUB PUSH1 0x0 DUP4 ADD MSTORE PUSH2 0x496F DUP2 PUSH2 0x4933 JUMP JUMPDEST SWAP1 POP SWAP2 SWAP1 POP JUMP JUMPDEST PUSH32 0x416464726573733A2063616C6C20746F206E6F6E2D636F6E7472616374000000 PUSH1 0x0 DUP3 ADD MSTORE POP JUMP JUMPDEST PUSH1 0x0 PUSH2 0x49AC PUSH1 0x1D DUP4 PUSH2 0x3B0E JUMP JUMPDEST SWAP2 POP PUSH2 0x49B7 DUP3 PUSH2 0x4976 JUMP JUMPDEST PUSH1 0x20 DUP3 ADD SWAP1 POP SWAP2 SWAP1 POP JUMP JUMPDEST PUSH1 0x0 PUSH1 0x20 DUP3 ADD SWAP1 POP DUP2 DUP2 SUB PUSH1 0x0 DUP4 ADD MSTORE PUSH2 0x49DB DUP2 PUSH2 0x499F JUMP JUMPDEST SWAP1 POP SWAP2 SWAP1 POP JUMP JUMPDEST PUSH1 0x0 DUP2 MLOAD SWAP1 POP SWAP2 SWAP1 POP JUMP JUMPDEST PUSH1 0x0 JUMPDEST DUP4 DUP2 LT ISZERO PUSH2 0x4A0B JUMPI DUP1 DUP3 ADD MLOAD DUP2 DUP5 ADD MSTORE PUSH1 0x20 DUP2 ADD SWAP1 POP PUSH2 0x49F0 JUMP JUMPDEST DUP4 DUP2 GT ISZERO PUSH2 0x4A1A JUMPI PUSH1 0x0 DUP5 DUP5 ADD MSTORE JUMPDEST POP POP POP POP JUMP JUMPDEST PUSH1 0x0 PUSH2 0x4A2B DUP3 PUSH2 0x49E2 JUMP JUMPDEST PUSH2 0x4A35 DUP2 DUP6 PUSH2 0x3EFD JUMP JUMPDEST SWAP4 POP PUSH2 0x4A45 DUP2 DUP6 PUSH1 0x20 DUP7 ADD PUSH2 0x49ED JUMP JUMPDEST DUP1 DUP5 ADD SWAP2 POP POP SWAP3 SWAP2 POP POP JUMP JUMPDEST PUSH1 0x0 PUSH2 0x4A5D DUP3 DUP5 PUSH2 0x4A20 JUMP JUMPDEST SWAP2 POP DUP2 SWAP1 POP SWAP3 SWAP2 POP POP JUMP JUMPDEST PUSH1 0x0 DUP2 MLOAD SWAP1 POP SWAP2 SWAP1 POP JUMP JUMPDEST PUSH1 0x0 PUSH2 0x4A7E DUP3 PUSH2 0x4A68 JUMP JUMPDEST PUSH2 0x4A88 DUP2 DUP6 PUSH2 0x3B0E JUMP JUMPDEST SWAP4 POP PUSH2 0x4A98 DUP2 DUP6 PUSH1 0x20 DUP7 ADD PUSH2 0x49ED JUMP JUMPDEST PUSH2 0x4AA1 DUP2 PUSH2 0x2BE0 JUMP JUMPDEST DUP5 ADD SWAP2 POP POP SWAP3 SWAP2 POP POP JUMP JUMPDEST PUSH1 0x0 PUSH1 0x20 DUP3 ADD SWAP1 POP DUP2 DUP2 SUB PUSH1 0x0 DUP4 ADD MSTORE PUSH2 0x4AC6 DUP2 DUP5 PUSH2 0x4A73 JUMP JUMPDEST SWAP1 POP SWAP3 SWAP2 POP POP JUMP INVALID LOG2 PUSH5 0x6970667358 0x22 SLT KECCAK256 PUSH13 0x8F9DB86E6F6D357BCB6A25C518 0x5C STOP EXTCODEHASH SWAP11 EXTCODECOPY 0x2D SLOAD 0x5F SWAP9 0xB7 0xC9 0xFC 0xB0 0xCB DUP3 0xB7 0xB3 0x5E PUSH5 0x736F6C6343 STOP ADDMOD 0xF STOP CALLER "},"methodIdentifiers":{"addBananaRoute(uint256,address,uint8,uint256,uint256)":"59275e85","allowNativeSweep()":"3ca41611","anyBanana()":"af67be5f","anyswapRouter()":"9a3eb6e9","bananaRoutesLength()":"e7abd787","bananaToken()":"8ca576c8","changeMinimumBanana(uint256,uint256)":"4c70d165","emergencyUnstakeFarm(uint256)":"df9a6a8e","getBananaRouteAtIndex(uint256)":"23321346","getBananaRouteFromPid(uint256)":"dfed7de4","initialize(address,address,address,address)":"f8c8765e","lockToken(address)":"10693fcd","lockTokens(address[])":"d9119330","lockedTokens(address)":"5eb7413a","masterApe()":"48fe55f6","moveBananaAll(bool)":"79325cc7","moveBananaIndex(uint256)":"34eb482e","moveBananaPid(uint256)":"f611b38b","moveBananaPids(uint256[],bool)":"80e63cbe","owner()":"8da5cb5b","refuseNativeSweep()":"728efc5f","removeBananaRoutePid(uint256)":"7eefdd84","renounceOwnership()":"715018a6","stakeFarm(uint256)":"13f78d2f","sweepNFTs((address,uint256[])[],address)":"0420aab1","sweepNative(address)":"78c093cf","sweepTokens(address[],address)":"7071f0c4","sweepTokensAndNFTs(address[],(address,uint256[])[],address)":"304f56dc","transferOwnership(address)":"f2fde38b","unstakeFarm(uint256)":"0c32551e"}},"storageLayout":{"storage":[{"astId":603,"contract":"contracts/BananaAllocator.sol:BananaAllocator","label":"_initialized","offset":0,"slot":"0","type":"t_uint8"},{"astId":606,"contract":"contracts/BananaAllocator.sol:BananaAllocator","label":"_initializing","offset":1,"slot":"0","type":"t_bool"},{"astId":1426,"contract":"contracts/BananaAllocator.sol:BananaAllocator","label":"__gap","offset":0,"slot":"1","type":"t_array(t_uint256)50_storage"},{"astId":475,"contract":"contracts/BananaAllocator.sol:BananaAllocator","label":"_owner","offset":0,"slot":"51","type":"t_address"},{"astId":595,"contract":"contracts/BananaAllocator.sol:BananaAllocator","label":"__gap","offset":0,"slot":"52","type":"t_array(t_uint256)49_storage"},{"astId":66,"contract":"contracts/BananaAllocator.sol:BananaAllocator","label":"lockedTokens","offset":0,"slot":"101","type":"t_mapping(t_address,t_bool)"},{"astId":68,"contract":"contracts/BananaAllocator.sol:BananaAllocator","label":"allowNativeSweep","offset":0,"slot":"102","type":"t_bool"},{"astId":2881,"contract":"contracts/BananaAllocator.sol:BananaAllocator","label":"masterApe","offset":1,"slot":"102","type":"t_contract(IMasterApeV2)4138"},{"astId":2884,"contract":"contracts/BananaAllocator.sol:BananaAllocator","label":"bananaToken","offset":0,"slot":"103","type":"t_contract(IERC20)2091"},{"astId":2886,"contract":"contracts/BananaAllocator.sol:BananaAllocator","label":"anyBanana","offset":0,"slot":"104","type":"t_address"},{"astId":2889,"contract":"contracts/BananaAllocator.sol:BananaAllocator","label":"anyswapRouter","offset":0,"slot":"105","type":"t_contract(IAnyswapV4Router)3967"},{"astId":2907,"contract":"contracts/BananaAllocator.sol:BananaAllocator","label":"getBananaRouteFromPid","offset":0,"slot":"106","type":"t_mapping(t_uint256,t_struct(BananaRoute)2899_storage)"},{"astId":2910,"contract":"contracts/BananaAllocator.sol:BananaAllocator","label":"bananaRoutesSet","offset":0,"slot":"107","type":"t_struct(UintSet)2735_storage"}],"types":{"t_address":{"encoding":"inplace","label":"address","numberOfBytes":"20"},"t_array(t_bytes32)dyn_storage":{"base":"t_bytes32","encoding":"dynamic_array","label":"bytes32[]","numberOfBytes":"32"},"t_array(t_uint256)49_storage":{"base":"t_uint256","encoding":"inplace","label":"uint256[49]","numberOfBytes":"1568"},"t_array(t_uint256)50_storage":{"base":"t_uint256","encoding":"inplace","label":"uint256[50]","numberOfBytes":"1600"},"t_bool":{"encoding":"inplace","label":"bool","numberOfBytes":"1"},"t_bytes32":{"encoding":"inplace","label":"bytes32","numberOfBytes":"32"},"t_contract(IAnyswapV4Router)3967":{"encoding":"inplace","label":"contract IAnyswapV4Router","numberOfBytes":"20"},"t_contract(IERC20)2091":{"encoding":"inplace","label":"contract IERC20","numberOfBytes":"20"},"t_contract(IMasterApeV2)4138":{"encoding":"inplace","label":"contract IMasterApeV2","numberOfBytes":"20"},"t_enum(ActionId)2902":{"encoding":"inplace","label":"enum BananaAllocator.ActionId","numberOfBytes":"1"},"t_mapping(t_address,t_bool)":{"encoding":"mapping","key":"t_address","label":"mapping(address => bool)","numberOfBytes":"32","value":"t_bool"},"t_mapping(t_bytes32,t_uint256)":{"encoding":"mapping","key":"t_bytes32","label":"mapping(bytes32 => uint256)","numberOfBytes":"32","value":"t_uint256"},"t_mapping(t_uint256,t_struct(BananaRoute)2899_storage)":{"encoding":"mapping","key":"t_uint256","label":"mapping(uint256 => struct BananaAllocator.BananaRoute)","numberOfBytes":"32","value":"t_struct(BananaRoute)2899_storage"},"t_struct(BananaRoute)2899_storage":{"encoding":"inplace","label":"struct BananaAllocator.BananaRoute","members":[{"astId":2891,"contract":"contracts/BananaAllocator.sol:BananaAllocator","label":"toAddress","offset":0,"slot":"0","type":"t_address"},{"astId":2894,"contract":"contracts/BananaAllocator.sol:BananaAllocator","label":"actionId","offset":20,"slot":"0","type":"t_enum(ActionId)2902"},{"astId":2896,"contract":"contracts/BananaAllocator.sol:BananaAllocator","label":"chainId","offset":0,"slot":"1","type":"t_uint256"},{"astId":2898,"contract":"contracts/BananaAllocator.sol:BananaAllocator","label":"minimumBanana","offset":0,"slot":"2","type":"t_uint256"}],"numberOfBytes":"96"},"t_struct(Set)2277_storage":{"encoding":"inplace","label":"struct EnumerableSet.Set","members":[{"astId":2272,"contract":"contracts/BananaAllocator.sol:BananaAllocator","label":"_values","offset":0,"slot":"0","type":"t_array(t_bytes32)dyn_storage"},{"astId":2276,"contract":"contracts/BananaAllocator.sol:BananaAllocator","label":"_indexes","offset":0,"slot":"1","type":"t_mapping(t_bytes32,t_uint256)"}],"numberOfBytes":"64"},"t_struct(UintSet)2735_storage":{"encoding":"inplace","label":"struct EnumerableSet.UintSet","members":[{"astId":2734,"contract":"contracts/BananaAllocator.sol:BananaAllocator","label":"_inner","offset":0,"slot":"0","type":"t_struct(Set)2277_storage"}],"numberOfBytes":"64"},"t_uint256":{"encoding":"inplace","label":"uint256","numberOfBytes":"32"},"t_uint8":{"encoding":"inplace","label":"uint8","numberOfBytes":"1"}}},"userdoc":{"kind":"user","methods":{"addBananaRoute(uint256,address,uint8,uint256,uint256)":{"notice":"Add a banana route"},"bananaRoutesLength()":{"notice":"Get the number of BananaRoutes stored in the EnumerableSet"},"changeMinimumBanana(uint256,uint256)":{"notice":"Change the minimum banana that needs to be collected to active banana transfer"},"emergencyUnstakeFarm(uint256)":{"notice":"emergency unstake from masterApe farm"},"getBananaRouteAtIndex(uint256)":{"notice":"Iterate through the BananaRoutes up to bananaRoutesLength"},"moveBananaAll(bool)":{"notice":"Move banana for all banana routes"},"moveBananaIndex(uint256)":{"notice":"Move banana based on index"},"moveBananaPid(uint256)":{"notice":"Move banana based on farm pid"},"moveBananaPids(uint256[],bool)":{"notice":"Move banana based on multiple farm pids"},"removeBananaRoutePid(uint256)":{"notice":"remove a banana route by pid"},"stakeFarm(uint256)":{"notice":"stake into masterApe farm"},"sweepNative(address)":{"notice":"Sweep native coin"},"unstakeFarm(uint256)":{"notice":"unstake from masterApe farm"}},"version":1}}}}