{
  "_format": "hh-sol-artifact-1",
  "contractName": "BananaAllocator",
  "sourceName": "contracts/BananaAllocator.sol",
  "abi": [
    {
      "anonymous": false,
      "inputs": [
        {
          "indexed": false,
          "internalType": "uint256",
          "name": "farmPid",
          "type": "uint256"
        },
        {
          "indexed": false,
          "internalType": "address",
          "name": "toAddress",
          "type": "address"
        },
        {
          "indexed": false,
          "internalType": "enum BananaAllocator.ActionId",
          "name": "actionId",
          "type": "uint8"
        },
        {
          "indexed": false,
          "internalType": "uint256",
          "name": "chainId",
          "type": "uint256"
        },
        {
          "indexed": false,
          "internalType": "uint256",
          "name": "minimumBanana",
          "type": "uint256"
        }
      ],
      "name": "AddedBananaRoute",
      "type": "event"
    },
    {
      "anonymous": false,
      "inputs": [
        {
          "indexed": false,
          "internalType": "uint256",
          "name": "pid",
          "type": "uint256"
        },
        {
          "indexed": false,
          "internalType": "uint256",
          "name": "newMinimum",
          "type": "uint256"
        }
      ],
      "name": "ChangedBananaMinimum",
      "type": "event"
    },
    {
      "anonymous": false,
      "inputs": [
        {
          "indexed": false,
          "internalType": "uint8",
          "name": "version",
          "type": "uint8"
        }
      ],
      "name": "Initialized",
      "type": "event"
    },
    {
      "anonymous": false,
      "inputs": [
        {
          "indexed": false,
          "internalType": "uint256",
          "name": "pid",
          "type": "uint256"
        },
        {
          "indexed": false,
          "internalType": "uint256",
          "name": "amount",
          "type": "uint256"
        },
        {
          "indexed": false,
          "internalType": "address",
          "name": "to",
          "type": "address"
        },
        {
          "indexed": false,
          "internalType": "uint256",
          "name": "chainId",
          "type": "uint256"
        }
      ],
      "name": "MovedBanana",
      "type": "event"
    },
    {
      "anonymous": false,
      "inputs": [
        {
          "indexed": true,
          "internalType": "address",
          "name": "previousOwner",
          "type": "address"
        },
        {
          "indexed": true,
          "internalType": "address",
          "name": "newOwner",
          "type": "address"
        }
      ],
      "name": "OwnershipTransferred",
      "type": "event"
    },
    {
      "anonymous": false,
      "inputs": [],
      "name": "RefusedNativeSweep",
      "type": "event"
    },
    {
      "anonymous": false,
      "inputs": [
        {
          "indexed": false,
          "internalType": "uint256",
          "name": "pid",
          "type": "uint256"
        }
      ],
      "name": "RemovedBananaRoute",
      "type": "event"
    },
    {
      "anonymous": false,
      "inputs": [
        {
          "indexed": true,
          "internalType": "address",
          "name": "receiver",
          "type": "address"
        },
        {
          "components": [
            {
              "internalType": "contract IERC721",
              "name": "nftaddress",
              "type": "address"
            },
            {
              "internalType": "uint256[]",
              "name": "ids",
              "type": "uint256[]"
            }
          ],
          "indexed": true,
          "internalType": "struct SweeperUpgradeable.NFT[]",
          "name": "nfts",
          "type": "tuple[]"
        }
      ],
      "name": "SweepWithdrawNFTs",
      "type": "event"
    },
    {
      "anonymous": false,
      "inputs": [
        {
          "indexed": true,
          "internalType": "address",
          "name": "receiver",
          "type": "address"
        },
        {
          "indexed": false,
          "internalType": "uint256",
          "name": "balance",
          "type": "uint256"
        }
      ],
      "name": "SweepWithdrawNative",
      "type": "event"
    },
    {
      "anonymous": false,
      "inputs": [
        {
          "indexed": true,
          "internalType": "address",
          "name": "receiver",
          "type": "address"
        },
        {
          "indexed": true,
          "internalType": "contract IERC20Upgradeable",
          "name": "token",
          "type": "address"
        },
        {
          "indexed": false,
          "internalType": "uint256",
          "name": "balance",
          "type": "uint256"
        }
      ],
      "name": "SweepWithdrawToken",
      "type": "event"
    },
    {
      "inputs": [
        {
          "internalType": "uint256",
          "name": "farmPid",
          "type": "uint256"
        },
        {
          "internalType": "address",
          "name": "toAddress",
          "type": "address"
        },
        {
          "internalType": "enum BananaAllocator.ActionId",
          "name": "actionId",
          "type": "uint8"
        },
        {
          "internalType": "uint256",
          "name": "chainId",
          "type": "uint256"
        },
        {
          "internalType": "uint256",
          "name": "minimumBanana",
          "type": "uint256"
        }
      ],
      "name": "addBananaRoute",
      "outputs": [],
      "stateMutability": "nonpayable",
      "type": "function"
    },
    {
      "inputs": [],
      "name": "allowNativeSweep",
      "outputs": [
        {
          "internalType": "bool",
          "name": "",
          "type": "bool"
        }
      ],
      "stateMutability": "view",
      "type": "function"
    },
    {
      "inputs": [],
      "name": "anyBanana",
      "outputs": [
        {
          "internalType": "address",
          "name": "",
          "type": "address"
        }
      ],
      "stateMutability": "view",
      "type": "function"
    },
    {
      "inputs": [],
      "name": "anyswapRouter",
      "outputs": [
        {
          "internalType": "contract IAnyswapV4Router",
          "name": "",
          "type": "address"
        }
      ],
      "stateMutability": "view",
      "type": "function"
    },
    {
      "inputs": [],
      "name": "bananaRoutesLength",
      "outputs": [
        {
          "internalType": "uint256",
          "name": "",
          "type": "uint256"
        }
      ],
      "stateMutability": "view",
      "type": "function"
    },
    {
      "inputs": [],
      "name": "bananaToken",
      "outputs": [
        {
          "internalType": "contract IERC20",
          "name": "",
          "type": "address"
        }
      ],
      "stateMutability": "view",
      "type": "function"
    },
    {
      "inputs": [
        {
          "internalType": "uint256",
          "name": "pid",
          "type": "uint256"
        },
        {
          "internalType": "uint256",
          "name": "newMinimum",
          "type": "uint256"
        }
      ],
      "name": "changeMinimumBanana",
      "outputs": [],
      "stateMutability": "nonpayable",
      "type": "function"
    },
    {
      "inputs": [
        {
          "internalType": "uint256",
          "name": "pid",
          "type": "uint256"
        }
      ],
      "name": "emergencyUnstakeFarm",
      "outputs": [],
      "stateMutability": "nonpayable",
      "type": "function"
    },
    {
      "inputs": [
        {
          "internalType": "uint256",
          "name": "index",
          "type": "uint256"
        }
      ],
      "name": "getBananaRouteAtIndex",
      "outputs": [
        {
          "internalType": "uint256",
          "name": "pid",
          "type": "uint256"
        },
        {
          "components": [
            {
              "internalType": "address",
              "name": "toAddress",
              "type": "address"
            },
            {
              "internalType": "enum BananaAllocator.ActionId",
              "name": "actionId",
              "type": "uint8"
            },
            {
              "internalType": "uint256",
              "name": "chainId",
              "type": "uint256"
            },
            {
              "internalType": "uint256",
              "name": "minimumBanana",
              "type": "uint256"
            }
          ],
          "internalType": "struct BananaAllocator.BananaRoute",
          "name": "bananaRoute",
          "type": "tuple"
        }
      ],
      "stateMutability": "view",
      "type": "function"
    },
    {
      "inputs": [
        {
          "internalType": "uint256",
          "name": "",
          "type": "uint256"
        }
      ],
      "name": "getBananaRouteFromPid",
      "outputs": [
        {
          "internalType": "address",
          "name": "toAddress",
          "type": "address"
        },
        {
          "internalType": "enum BananaAllocator.ActionId",
          "name": "actionId",
          "type": "uint8"
        },
        {
          "internalType": "uint256",
          "name": "chainId",
          "type": "uint256"
        },
        {
          "internalType": "uint256",
          "name": "minimumBanana",
          "type": "uint256"
        }
      ],
      "stateMutability": "view",
      "type": "function"
    },
    {
      "inputs": [
        {
          "internalType": "contract IMasterApeV2",
          "name": "_masterApe",
          "type": "address"
        },
        {
          "internalType": "contract IERC20",
          "name": "_bananaToken",
          "type": "address"
        },
        {
          "internalType": "address",
          "name": "_anyBanana",
          "type": "address"
        },
        {
          "internalType": "contract IAnyswapV4Router",
          "name": "_anyswapRouter",
          "type": "address"
        }
      ],
      "name": "initialize",
      "outputs": [],
      "stateMutability": "nonpayable",
      "type": "function"
    },
    {
      "inputs": [
        {
          "internalType": "address",
          "name": "token",
          "type": "address"
        }
      ],
      "name": "lockToken",
      "outputs": [],
      "stateMutability": "nonpayable",
      "type": "function"
    },
    {
      "inputs": [
        {
          "internalType": "address[]",
          "name": "tokens",
          "type": "address[]"
        }
      ],
      "name": "lockTokens",
      "outputs": [],
      "stateMutability": "nonpayable",
      "type": "function"
    },
    {
      "inputs": [
        {
          "internalType": "address",
          "name": "",
          "type": "address"
        }
      ],
      "name": "lockedTokens",
      "outputs": [
        {
          "internalType": "bool",
          "name": "",
          "type": "bool"
        }
      ],
      "stateMutability": "view",
      "type": "function"
    },
    {
      "inputs": [],
      "name": "masterApe",
      "outputs": [
        {
          "internalType": "contract IMasterApeV2",
          "name": "",
          "type": "address"
        }
      ],
      "stateMutability": "view",
      "type": "function"
    },
    {
      "inputs": [
        {
          "internalType": "bool",
          "name": "revert_",
          "type": "bool"
        }
      ],
      "name": "moveBananaAll",
      "outputs": [],
      "stateMutability": "nonpayable",
      "type": "function"
    },
    {
      "inputs": [
        {
          "internalType": "uint256",
          "name": "index",
          "type": "uint256"
        }
      ],
      "name": "moveBananaIndex",
      "outputs": [],
      "stateMutability": "nonpayable",
      "type": "function"
    },
    {
      "inputs": [
        {
          "internalType": "uint256",
          "name": "pid",
          "type": "uint256"
        }
      ],
      "name": "moveBananaPid",
      "outputs": [],
      "stateMutability": "nonpayable",
      "type": "function"
    },
    {
      "inputs": [
        {
          "internalType": "uint256[]",
          "name": "pids",
          "type": "uint256[]"
        },
        {
          "internalType": "bool",
          "name": "revert_",
          "type": "bool"
        }
      ],
      "name": "moveBananaPids",
      "outputs": [],
      "stateMutability": "nonpayable",
      "type": "function"
    },
    {
      "inputs": [],
      "name": "owner",
      "outputs": [
        {
          "internalType": "address",
          "name": "",
          "type": "address"
        }
      ],
      "stateMutability": "view",
      "type": "function"
    },
    {
      "inputs": [],
      "name": "refuseNativeSweep",
      "outputs": [],
      "stateMutability": "nonpayable",
      "type": "function"
    },
    {
      "inputs": [
        {
          "internalType": "uint256",
          "name": "pid",
          "type": "uint256"
        }
      ],
      "name": "removeBananaRoutePid",
      "outputs": [],
      "stateMutability": "nonpayable",
      "type": "function"
    },
    {
      "inputs": [],
      "name": "renounceOwnership",
      "outputs": [],
      "stateMutability": "nonpayable",
      "type": "function"
    },
    {
      "inputs": [
        {
          "internalType": "uint256",
          "name": "pid",
          "type": "uint256"
        }
      ],
      "name": "stakeFarm",
      "outputs": [],
      "stateMutability": "nonpayable",
      "type": "function"
    },
    {
      "inputs": [
        {
          "components": [
            {
              "internalType": "contract IERC721",
              "name": "nftaddress",
              "type": "address"
            },
            {
              "internalType": "uint256[]",
              "name": "ids",
              "type": "uint256[]"
            }
          ],
          "internalType": "struct SweeperUpgradeable.NFT[]",
          "name": "nfts",
          "type": "tuple[]"
        },
        {
          "internalType": "address",
          "name": "to",
          "type": "address"
        }
      ],
      "name": "sweepNFTs",
      "outputs": [],
      "stateMutability": "nonpayable",
      "type": "function"
    },
    {
      "inputs": [
        {
          "internalType": "address payable",
          "name": "_to",
          "type": "address"
        }
      ],
      "name": "sweepNative",
      "outputs": [],
      "stateMutability": "nonpayable",
      "type": "function"
    },
    {
      "inputs": [
        {
          "internalType": "contract IERC20Upgradeable[]",
          "name": "tokens",
          "type": "address[]"
        },
        {
          "internalType": "address",
          "name": "to",
          "type": "address"
        }
      ],
      "name": "sweepTokens",
      "outputs": [],
      "stateMutability": "nonpayable",
      "type": "function"
    },
    {
      "inputs": [
        {
          "internalType": "contract IERC20Upgradeable[]",
          "name": "tokens",
          "type": "address[]"
        },
        {
          "components": [
            {
              "internalType": "contract IERC721",
              "name": "nftaddress",
              "type": "address"
            },
            {
              "internalType": "uint256[]",
              "name": "ids",
              "type": "uint256[]"
            }
          ],
          "internalType": "struct SweeperUpgradeable.NFT[]",
          "name": "nfts",
          "type": "tuple[]"
        },
        {
          "internalType": "address",
          "name": "to",
          "type": "address"
        }
      ],
      "name": "sweepTokensAndNFTs",
      "outputs": [],
      "stateMutability": "nonpayable",
      "type": "function"
    },
    {
      "inputs": [
        {
          "internalType": "address",
          "name": "newOwner",
          "type": "address"
        }
      ],
      "name": "transferOwnership",
      "outputs": [],
      "stateMutability": "nonpayable",
      "type": "function"
    },
    {
      "inputs": [
        {
          "internalType": "uint256",
          "name": "pid",
          "type": "uint256"
        }
      ],
      "name": "unstakeFarm",
      "outputs": [],
      "stateMutability": "nonpayable",
      "type": "function"
    }
  ],
  "bytecode": "0x608060405234801561001057600080fd5b50614b04806100206000396000f3fe608060405234801561001057600080fd5b50600436106101da5760003560e01c806378c093cf11610104578063af67be5f116100a2578063e7abd78711610071578063e7abd787146104df578063f2fde38b146104fd578063f611b38b14610519578063f8c8765e14610535576101da565b8063af67be5f14610456578063d911933014610474578063df9a6a8e14610490578063dfed7de4146104ac576101da565b806380e63cbe116100de57806380e63cbe146103e05780638ca576c8146103fc5780638da5cb5b1461041a5780639a3eb6e914610438576101da565b806378c093cf1461038c57806379325cc7146103a85780637eefdd84146103c4576101da565b80633ca416111161017c5780635eb7413a1161014b5780635eb7413a1461032c5780637071f0c41461035c578063715018a614610378578063728efc5f14610382576101da565b80633ca41611146102b857806348fe55f6146102d65780634c70d165146102f457806359275e8514610310576101da565b806313f78d2f116101b857806313f78d2f14610233578063233213461461024f578063304f56dc1461028057806334eb482e1461029c576101da565b80630420aab1146101df5780630c32551e146101fb57806310693fcd14610217575b600080fd5b6101f960048036038101906101f49190612f5d565b610551565b005b61021560048036038101906102109190612fb9565b6105b6565b005b610231600480360381019061022c9190612fe6565b6106f3565b005b61024d60048036038101906102489190612fb9565b610707565b005b61026960048036038101906102649190612fb9565b6109ab565b60405161027792919061310c565b60405180910390f35b61029a60048036038101906102959190613236565b610a95565b005b6102b660048036038101906102b19190612fb9565b610aad565b005b6102c0610b1d565b6040516102cd91906132dc565b60405180910390f35b6102de610b30565b6040516102eb9190613356565b60405180910390f35b61030e60048036038101906103099190613371565b610b56565b005b61032a600480360381019061032591906133d6565b610bbc565b005b61034660048036038101906103419190612fe6565b610f2f565b60405161035391906132dc565b60405180910390f35b61037660048036038101906103719190613451565b610f4f565b005b610380610fbf565b005b61038a610fd3565b005b6103a660048036038101906103a191906134eb565b611024565b005b6103c260048036038101906103bd9190613544565b61117f565b005b6103de60048036038101906103d99190612fb9565b6111cb565b005b6103fa60048036038101906103f59190613571565b6112d6565b005b61040461131e565b60405161041191906135ee565b60405180910390f35b610422611344565b60405161042f9190613618565b60405180910390f35b61044061136e565b60405161044d9190613654565b60405180910390f35b61045e611394565b60405161046b9190613618565b60405180910390f35b61048e60048036038101906104899190613732565b6113ba565b005b6104aa60048036038101906104a59190612fb9565b6113ce565b005b6104c660048036038101906104c19190612fb9565b611466565b6040516104d6949392919061378a565b60405180910390f35b6104e76114c3565b6040516104f491906137cf565b60405180910390f35b61051760048036038101906105129190612fe6565b6114d4565b005b610533600480360381019061052e9190612fb9565b611557565b005b61054f600480360381019061054a91906138a4565b611565565b005b6105596117f7565b60008067ffffffffffffffff81111561057557610574612bf1565b5b6040519080825280602002602001820160405280156105a35781602001602082028036833780820191505090505b5090506105b1818484611875565b505050565b6105be6117f7565b6000606660019054906101000a900473ffffffffffffffffffffffffffffffffffffffff1673ffffffffffffffffffffffffffffffffffffffff166393f1a40b83306040518363ffffffff1660e01b815260040161061d92919061390b565b6040805180830381865afa158015610639573d6000803e3d6000fd5b505050506040513d601f19601f8201168201806040525081019061065d9190613949565b509050606660019054906101000a900473ffffffffffffffffffffffffffffffffffffffff1673ffffffffffffffffffffffffffffffffffffffff1663441a3e7083836040518363ffffffff1660e01b81526004016106bd929190613989565b600060405180830381600087803b1580156106d757600080fd5b505af11580156106eb573d6000803e3d6000fd5b505050505050565b6106fb6117f7565b61070481611c4d565b50565b61070f6117f7565b6000606660019054906101000a900473ffffffffffffffffffffffffffffffffffffffff1673ffffffffffffffffffffffffffffffffffffffff16632f380b35836040518263ffffffff1660e01b815260040161076c91906137cf565b60e060405180830381865afa158015610789573d6000803e3d6000fd5b505050506040513d601f19601f820116820180604052508101906107ad9190613a3f565b505050505050905060008173ffffffffffffffffffffffffffffffffffffffff166370a08231306040518263ffffffff1660e01b81526004016107f09190613618565b602060405180830381865afa15801561080d573d6000803e3d6000fd5b505050506040513d601f19601f820116820180604052508101906108319190613ae1565b905060008111610876576040517f08c379a000000000000000000000000000000000000000000000000000000000815260040161086d90613b91565b60405180910390fd5b8173ffffffffffffffffffffffffffffffffffffffff1663095ea7b3606660019054906101000a900473ffffffffffffffffffffffffffffffffffffffff16836040518363ffffffff1660e01b81526004016108d3929190613bb1565b6020604051808303816000875af11580156108f2573d6000803e3d6000fd5b505050506040513d601f19601f820116820180604052508101906109169190613bef565b50606660019054906101000a900473ffffffffffffffffffffffffffffffffffffffff1673ffffffffffffffffffffffffffffffffffffffff1663e2bbb15884836040518363ffffffff1660e01b8152600401610974929190613989565b600060405180830381600087803b15801561098e57600080fd5b505af11580156109a2573d6000803e3d6000fd5b50505050505050565b60006109b5612b47565b6109c983606b611ca890919063ffffffff16565b9150606a60008381526020019081526020016000206040518060800160405290816000820160009054906101000a900473ffffffffffffffffffffffffffffffffffffffff1673ffffffffffffffffffffffffffffffffffffffff1673ffffffffffffffffffffffffffffffffffffffff1681526020016000820160149054906101000a900460ff166001811115610a6457610a63613031565b5b6001811115610a7657610a75613031565b5b8152602001600182015481526020016002820154815250509050915091565b610a9d6117f7565b610aa8838383611875565b505050565b6000610ab76114c3565b9050808210610afb576040517f08c379a0000000000000000000000000000000000000000000000000000000008152600401610af290613c8e565b60405180910390fd5b610b19610b1283606b611ca890919063ffffffff16565b6001611cc2565b5050565b606660009054906101000a900460ff1681565b606660019054906101000a900473ffffffffffffffffffffffffffffffffffffffff1681565b610b5e6117f7565b6000606a600084815260200190815260200160002090508181600201819055507f95e38bd01f38ae5905df5c5f31d428bf51ee85e443d7d74a77e74775c1c413158383604051610baf929190613989565b60405180910390a1505050565b610bc46117f7565b600180811115610bd757610bd6613031565b5b836001811115610bea57610be9613031565b5b03610c405760008214158015610c005750468214155b610c3f576040517f08c379a0000000000000000000000000000000000000000000000000000000008152600401610c3690613cfa565b60405180910390fd5b5b600073ffffffffffffffffffffffffffffffffffffffff168473ffffffffffffffffffffffffffffffffffffffff1603610caf576040517f08c379a0000000000000000000000000000000000000000000000000000000008152600401610ca690613d8c565b60405180910390fd5b6000606a60008781526020019081526020016000206040518060800160405290816000820160009054906101000a900473ffffffffffffffffffffffffffffffffffffffff1673ffffffffffffffffffffffffffffffffffffffff1673ffffffffffffffffffffffffffffffffffffffff1681526020016000820160149054906101000a900460ff166001811115610d4a57610d49613031565b5b6001811115610d5c57610d5b613031565b5b8152602001600182015481526020016002820154815250509050600073ffffffffffffffffffffffffffffffffffffffff16816000015173ffffffffffffffffffffffffffffffffffffffff1614610de9576040517f08c379a0000000000000000000000000000000000000000000000000000000008152600401610de090613e1e565b60405180910390fd5b60405180608001604052808673ffffffffffffffffffffffffffffffffffffffff168152602001856001811115610e2357610e22613031565b5b815260200184815260200183815250606a600088815260200190815260200160002060008201518160000160006101000a81548173ffffffffffffffffffffffffffffffffffffffff021916908373ffffffffffffffffffffffffffffffffffffffff16021790555060208201518160000160146101000a81548160ff02191690836001811115610eb757610eb6613031565b5b02179055506040820151816001015560608201518160020155905050610ee786606b6123b290919063ffffffff16565b507fee7bdf422290460712739f8ac94ab12df8fedcec5893b08a7c49fd10a50b4cc68686868686604051610f1f959493929190613e3e565b60405180910390a1505050505050565b60656020528060005260406000206000915054906101000a900460ff1681565b610f576117f7565b60008067ffffffffffffffff811115610f7357610f72612bf1565b5b604051908082528060200260200182016040528015610fac57816020015b610f99612b97565b815260200190600190039081610f915790505b509050610fba838284611875565b505050565b610fc76117f7565b610fd160006123cc565b565b610fdb6117f7565b6000606660006101000a81548160ff0219169083151502179055507fe042ee5da861c33411d0aa3bce3b088a1dffd3088468ac162159ddd887f99e3e60405160405180910390a1565b61102c6117f7565b606660009054906101000a900460ff1661107b576040517f08c379a000000000000000000000000000000000000000000000000000000000815260040161107290613edd565b60405180910390fd5b600047905060008273ffffffffffffffffffffffffffffffffffffffff16826040516110a690613f2e565b60006040518083038185875af1925050503d80600081146110e3576040519150601f19603f3d011682016040523d82523d6000602084013e6110e8565b606091505b505090508061112c576040517f08c379a000000000000000000000000000000000000000000000000000000000815260040161112390613f8f565b60405180910390fd5b8273ffffffffffffffffffffffffffffffffffffffff167fdc495bd3b5344fcb85ff9c1b44ebfd7d2d9ee001c0826360fdbc13665f9cb4ed8360405161117291906137cf565b60405180910390a2505050565b60006111896114c3565b905060005b818110156111c6576111b36111ad82606b611ca890919063ffffffff16565b84611cc2565b80806111be90613fde565b91505061118e565b505050565b6111d36117f7565b6111e781606b61249290919063ffffffff16565b611226576040517f08c379a000000000000000000000000000000000000000000000000000000000815260040161121d90614072565b60405180910390fd5b61123a81606b6124ac90919063ffffffff16565b50606a6000828152602001908152602001600020600080820160006101000a81549073ffffffffffffffffffffffffffffffffffffffff02191690556000820160146101000a81549060ff02191690556001820160009055600282016000905550507feda868b56895a221ec5be172a1253e729185a13dd6b368b9cc4c4cb53aebe541816040516112cb91906137cf565b60405180910390a150565b60005b8251811015611319576113068382815181106112f8576112f7614092565b5b602002602001015183611cc2565b808061131190613fde565b9150506112d9565b505050565b606760009054906101000a900473ffffffffffffffffffffffffffffffffffffffff1681565b6000603360009054906101000a900473ffffffffffffffffffffffffffffffffffffffff16905090565b606960009054906101000a900473ffffffffffffffffffffffffffffffffffffffff1681565b606860009054906101000a900473ffffffffffffffffffffffffffffffffffffffff1681565b6113c26117f7565b6113cb816124c6565b50565b6113d66117f7565b606660019054906101000a900473ffffffffffffffffffffffffffffffffffffffff1673ffffffffffffffffffffffffffffffffffffffff16635312ea8e826040518263ffffffff1660e01b815260040161143191906137cf565b600060405180830381600087803b15801561144b57600080fd5b505af115801561145f573d6000803e3d6000fd5b5050505050565b606a6020528060005260406000206000915090508060000160009054906101000a900473ffffffffffffffffffffffffffffffffffffffff16908060000160149054906101000a900460ff16908060010154908060020154905084565b60006114cf606b61250c565b905090565b6114dc6117f7565b600073ffffffffffffffffffffffffffffffffffffffff168173ffffffffffffffffffffffffffffffffffffffff160361154b576040517f08c379a000000000000000000000000000000000000000000000000000000000815260040161154290614133565b60405180910390fd5b611554816123cc565b50565b611562816001611cc2565b50565b60008060019054906101000a900460ff161590508080156115965750600160008054906101000a900460ff1660ff16105b806115c357506115a530612521565b1580156115c25750600160008054906101000a900460ff1660ff16145b5b611602576040517f08c379a00000000000000000000000000000000000000000000000000000000081526004016115f9906141c5565b60405180910390fd5b60016000806101000a81548160ff021916908360ff160217905550801561163f576001600060016101000a81548160ff0219169083151502179055505b611693600067ffffffffffffffff81111561165d5761165c612bf1565b5b60405190808252806020026020018201604052801561168b5781602001602082028036833780820191505090505b506001612544565b84606660016101000a81548173ffffffffffffffffffffffffffffffffffffffff021916908373ffffffffffffffffffffffffffffffffffffffff16021790555083606760006101000a81548173ffffffffffffffffffffffffffffffffffffffff021916908373ffffffffffffffffffffffffffffffffffffffff16021790555082606860006101000a81548173ffffffffffffffffffffffffffffffffffffffff021916908373ffffffffffffffffffffffffffffffffffffffff16021790555081606960006101000a81548173ffffffffffffffffffffffffffffffffffffffff021916908373ffffffffffffffffffffffffffffffffffffffff16021790555080156117f05760008060016101000a81548160ff0219169083151502179055507f7f26b83ff96e1f2b6a682f133852f6798a09c465da95921460cefb384740249860016040516117e7919061422d565b60405180910390a15b5050505050565b6117ff6125c2565b73ffffffffffffffffffffffffffffffffffffffff1661181d611344565b73ffffffffffffffffffffffffffffffffffffffff1614611873576040517f08c379a000000000000000000000000000000000000000000000000000000000815260040161186a90614294565b60405180910390fd5b565b60005b8351811015611a5057600084828151811061189657611895614092565b5b60200260200101519050606560008273ffffffffffffffffffffffffffffffffffffffff1673ffffffffffffffffffffffffffffffffffffffff16815260200190815260200160002060009054906101000a900460ff161561192d576040517f08c379a000000000000000000000000000000000000000000000000000000000815260040161192490614300565b60405180910390fd5b60008173ffffffffffffffffffffffffffffffffffffffff166370a08231306040518263ffffffff1660e01b81526004016119689190613618565b602060405180830381865afa158015611985573d6000803e3d6000fd5b505050506040513d601f19601f820116820180604052508101906119a99190613ae1565b90506119d684828473ffffffffffffffffffffffffffffffffffffffff166125ca9092919063ffffffff16565b8173ffffffffffffffffffffffffffffffffffffffff168473ffffffffffffffffffffffffffffffffffffffff167f5bf76ef0db3550a96f76d3c13dfa002b5e1df9e4c4d65dce31f074c670b8b64883604051611a3391906137cf565b60405180910390a350508080611a4890613fde565b915050611878565b5060005b8251811015611bee576000838281518110611a7257611a71614092565b5b6020026020010151600001519050606560008273ffffffffffffffffffffffffffffffffffffffff1673ffffffffffffffffffffffffffffffffffffffff16815260200190815260200160002060009054906101000a900460ff1615611b0d576040517f08c379a0000000000000000000000000000000000000000000000000000000008152600401611b0490614300565b60405180910390fd5b6000848381518110611b2257611b21614092565b5b602002602001015160200151905060005b8151811015611bd8578273ffffffffffffffffffffffffffffffffffffffff166342842e0e3087858581518110611b6d57611b6c614092565b5b60200260200101516040518463ffffffff1660e01b8152600401611b9393929190614320565b600060405180830381600087803b158015611bad57600080fd5b505af1158015611bc1573d6000803e3d6000fd5b505050508080611bd090613fde565b915050611b33565b5050508080611be690613fde565b915050611a54565b5081604051611bfd9190614534565b60405180910390208173ffffffffffffffffffffffffffffffffffffffff167fb7d54fb67ddf621754e70da8666b8f260b9d90d503a96e15fdf8753d59af387760405160405180910390a3505050565b6001606560008373ffffffffffffffffffffffffffffffffffffffff1673ffffffffffffffffffffffffffffffffffffffff16815260200190815260200160002060006101000a81548160ff02191690831515021790555050565b6000611cb78360000183612650565b60001c905092915050565b6000606a60008481526020019081526020016000206040518060800160405290816000820160009054906101000a900473ffffffffffffffffffffffffffffffffffffffff1673ffffffffffffffffffffffffffffffffffffffff1673ffffffffffffffffffffffffffffffffffffffff1681526020016000820160149054906101000a900460ff166001811115611d5d57611d5c613031565b5b6001811115611d6f57611d6e613031565b5b8152602001600182015481526020016002820154815250509050600073ffffffffffffffffffffffffffffffffffffffff16816000015173ffffffffffffffffffffffffffffffffffffffff1603611e08578115611e02576040517f08c379a0000000000000000000000000000000000000000000000000000000008152600401611df9906145bd565b60405180910390fd5b506123ae565b6000606660019054906101000a900473ffffffffffffffffffffffffffffffffffffffff1673ffffffffffffffffffffffffffffffffffffffff1663aa8f6ca185306040518363ffffffff1660e01b8152600401611e6792919061390b565b602060405180830381865afa158015611e84573d6000803e3d6000fd5b505050506040513d601f19601f82011682018060405250810190611ea89190613ae1565b90508160600151811015611efe578215611ef7576040517f08c379a0000000000000000000000000000000000000000000000000000000008152600401611eee9061464f565b60405180910390fd5b50506123ae565b6000606760009054906101000a900473ffffffffffffffffffffffffffffffffffffffff1673ffffffffffffffffffffffffffffffffffffffff166370a08231306040518263ffffffff1660e01b8152600401611f5b9190613618565b602060405180830381865afa158015611f78573d6000803e3d6000fd5b505050506040513d601f19601f82011682018060405250810190611f9c9190613ae1565b9050606660019054906101000a900473ffffffffffffffffffffffffffffffffffffffff1673ffffffffffffffffffffffffffffffffffffffff1663e2bbb1588660006040518363ffffffff1660e01b8152600401611ffc9291906146aa565b600060405180830381600087803b15801561201657600080fd5b505af115801561202a573d6000803e3d6000fd5b50505050600081606760009054906101000a900473ffffffffffffffffffffffffffffffffffffffff1673ffffffffffffffffffffffffffffffffffffffff166370a08231306040518263ffffffff1660e01b815260040161208c9190613618565b602060405180830381865afa1580156120a9573d6000803e3d6000fd5b505050506040513d601f19601f820116820180604052508101906120cd9190613ae1565b6120d791906146d3565b9050600060018111156120ed576120ec613031565b5b8460200151600181111561210457612103613031565b5b036121b357606760009054906101000a900473ffffffffffffffffffffffffffffffffffffffff1673ffffffffffffffffffffffffffffffffffffffff1663a9059cbb8560000151836040518363ffffffff1660e01b815260040161216a929190613bb1565b6020604051808303816000875af1158015612189573d6000803e3d6000fd5b505050506040513d601f19601f820116820180604052508101906121ad9190613bef565b50612364565b6001808111156121c6576121c5613031565b5b846020015160018111156121dd576121dc613031565b5b0361236357606760009054906101000a900473ffffffffffffffffffffffffffffffffffffffff1673ffffffffffffffffffffffffffffffffffffffff1663095ea7b3606960009054906101000a900473ffffffffffffffffffffffffffffffffffffffff16836040518363ffffffff1660e01b8152600401612261929190613bb1565b6020604051808303816000875af1158015612280573d6000803e3d6000fd5b505050506040513d601f19601f820116820180604052508101906122a49190613bef565b50606960009054906101000a900473ffffffffffffffffffffffffffffffffffffffff1673ffffffffffffffffffffffffffffffffffffffff1663edbdf5e2606860009054906101000a900473ffffffffffffffffffffffffffffffffffffffff1686600001518488604001516040518563ffffffff1660e01b81526004016123309493929190614707565b600060405180830381600087803b15801561234a57600080fd5b505af115801561235e573d6000803e3d6000fd5b505050505b5b7f46773325c50d920bbc71668278c52944c5d8c36a9f9243f8c76e070847c44efb8682866000015187604001516040516123a1949392919061474c565b60405180910390a1505050505b5050565b60006123c4836000018360001b61267b565b905092915050565b6000603360009054906101000a900473ffffffffffffffffffffffffffffffffffffffff16905081603360006101000a81548173ffffffffffffffffffffffffffffffffffffffff021916908373ffffffffffffffffffffffffffffffffffffffff1602179055508173ffffffffffffffffffffffffffffffffffffffff168173ffffffffffffffffffffffffffffffffffffffff167f8be0079c531659141344cd1fd0a4f28419497f9722a3daafe3b4186f6b6457e060405160405180910390a35050565b60006124a4836000018360001b6126eb565b905092915050565b60006124be836000018360001b61270e565b905092915050565b60005b8151811015612508576124f58282815181106124e8576124e7614092565b5b6020026020010151611c4d565b808061250090613fde565b9150506124c9565b5050565b600061251a82600001612822565b9050919050565b6000808273ffffffffffffffffffffffffffffffffffffffff163b119050919050565b600060019054906101000a900460ff16612593576040517f08c379a000000000000000000000000000000000000000000000000000000000815260040161258a90614803565b60405180910390fd5b61259b612833565b6125a4826113ba565b80606660006101000a81548160ff0219169083151502179055505050565b600033905090565b61264b8363a9059cbb60e01b84846040516024016125e9929190613bb1565b604051602081830303815290604052907bffffffffffffffffffffffffffffffffffffffffffffffffffffffff19166020820180517bffffffffffffffffffffffffffffffffffffffffffffffffffffffff838183161783525050505061288c565b505050565b600082600001828154811061266857612667614092565b5b9060005260206000200154905092915050565b600061268783836126eb565b6126e05782600001829080600181540180825580915050600190039060005260206000200160009091909190915055826000018054905083600101600084815260200190815260200160002081905550600190506126e5565b600090505b92915050565b600080836001016000848152602001908152602001600020541415905092915050565b6000808360010160008481526020019081526020016000205490506000811461281657600060018261274091906146d3565b905060006001866000018054905061275891906146d3565b90508181146127c757600086600001828154811061277957612778614092565b5b906000526020600020015490508087600001848154811061279d5761279c614092565b5b90600052602060002001819055508387600101600083815260200190815260200160002081905550505b856000018054806127db576127da614823565b5b60019003818190600052602060002001600090559055856001016000868152602001908152602001600020600090556001935050505061281c565b60009150505b92915050565b600081600001805490509050919050565b600060019054906101000a900460ff16612882576040517f08c379a000000000000000000000000000000000000000000000000000000000815260040161287990614803565b60405180910390fd5b61288a612953565b565b60006128ee826040518060400160405280602081526020017f5361666545524332303a206c6f772d6c6576656c2063616c6c206661696c65648152508573ffffffffffffffffffffffffffffffffffffffff166129b49092919063ffffffff16565b905060008151111561294e578080602001905181019061290e9190613bef565b61294d576040517f08c379a0000000000000000000000000000000000000000000000000000000008152600401612944906148c4565b60405180910390fd5b5b505050565b600060019054906101000a900460ff166129a2576040517f08c379a000000000000000000000000000000000000000000000000000000000815260040161299990614803565b60405180910390fd5b6129b26129ad6125c2565b6123cc565b565b60606129c384846000856129cc565b90509392505050565b606082471015612a11576040517f08c379a0000000000000000000000000000000000000000000000000000000008152600401612a0890614956565b60405180910390fd5b612a1a85612521565b612a59576040517f08c379a0000000000000000000000000000000000000000000000000000000008152600401612a50906149c2565b60405180910390fd5b6000808673ffffffffffffffffffffffffffffffffffffffff168587604051612a829190614a51565b60006040518083038185875af1925050503d8060008114612abf576040519150601f19603f3d011682016040523d82523d6000602084013e612ac4565b606091505b5091509150612ad4828286612ae0565b92505050949350505050565b60608315612af057829050612b40565b600083511115612b035782518084602001fd5b816040517f08c379a0000000000000000000000000000000000000000000000000000000008152600401612b379190614aac565b60405180910390fd5b9392505050565b6040518060800160405280600073ffffffffffffffffffffffffffffffffffffffff16815260200160006001811115612b8357612b82613031565b5b815260200160008152602001600081525090565b6040518060400160405280600073ffffffffffffffffffffffffffffffffffffffff168152602001606081525090565b6000604051905090565b600080fd5b600080fd5b600080fd5b6000601f19601f8301169050919050565b7f4e487b7100000000000000000000000000000000000000000000000000000000600052604160045260246000fd5b612c2982612be0565b810181811067ffffffffffffffff82111715612c4857612c47612bf1565b5b80604052505050565b6000612c5b612bc7565b9050612c678282612c20565b919050565b600067ffffffffffffffff821115612c8757612c86612bf1565b5b602082029050602081019050919050565b600080fd5b600080fd5b600080fd5b600073ffffffffffffffffffffffffffffffffffffffff82169050919050565b6000612cd282612ca7565b9050919050565b6000612ce482612cc7565b9050919050565b612cf481612cd9565b8114612cff57600080fd5b50565b600081359050612d1181612ceb565b92915050565b600067ffffffffffffffff821115612d3257612d31612bf1565b5b602082029050602081019050919050565b6000819050919050565b612d5681612d43565b8114612d6157600080fd5b50565b600081359050612d7381612d4d565b92915050565b6000612d8c612d8784612d17565b612c51565b90508083825260208201905060208402830185811115612daf57612dae612c98565b5b835b81811015612dd85780612dc48882612d64565b845260208401935050602081019050612db1565b5050509392505050565b600082601f830112612df757612df6612bdb565b5b8135612e07848260208601612d79565b91505092915050565b600060408284031215612e2657612e25612c9d565b5b612e306040612c51565b90506000612e4084828501612d02565b600083015250602082013567ffffffffffffffff811115612e6457612e63612ca2565b5b612e7084828501612de2565b60208301525092915050565b6000612e8f612e8a84612c6c565b612c51565b90508083825260208201905060208402830185811115612eb257612eb1612c98565b5b835b81811015612ef957803567ffffffffffffffff811115612ed757612ed6612bdb565b5b808601612ee48982612e10565b85526020850194505050602081019050612eb4565b5050509392505050565b600082601f830112612f1857612f17612bdb565b5b8135612f28848260208601612e7c565b91505092915050565b612f3a81612cc7565b8114612f4557600080fd5b50565b600081359050612f5781612f31565b92915050565b60008060408385031215612f7457612f73612bd1565b5b600083013567ffffffffffffffff811115612f9257612f91612bd6565b5b612f9e85828601612f03565b9250506020612faf85828601612f48565b9150509250929050565b600060208284031215612fcf57612fce612bd1565b5b6000612fdd84828501612d64565b91505092915050565b600060208284031215612ffc57612ffb612bd1565b5b600061300a84828501612f48565b91505092915050565b61301c81612d43565b82525050565b61302b81612cc7565b82525050565b7f4e487b7100000000000000000000000000000000000000000000000000000000600052602160045260246000fd5b6002811061307157613070613031565b5b50565b600081905061308282613060565b919050565b600061309282613074565b9050919050565b6130a281613087565b82525050565b6130b181612d43565b82525050565b6080820160008201516130cd6000850182613022565b5060208201516130e06020850182613099565b5060408201516130f360408501826130a8565b50606082015161310660608501826130a8565b50505050565b600060a0820190506131216000830185613013565b61312e60208301846130b7565b9392505050565b600067ffffffffffffffff8211156131505761314f612bf1565b5b602082029050602081019050919050565b600061316c82612cc7565b9050919050565b61317c81613161565b811461318757600080fd5b50565b60008135905061319981613173565b92915050565b60006131b26131ad84613135565b612c51565b905080838252602082019050602084028301858111156131d5576131d4612c98565b5b835b818110156131fe57806131ea888261318a565b8452602084019350506020810190506131d7565b5050509392505050565b600082601f83011261321d5761321c612bdb565b5b813561322d84826020860161319f565b91505092915050565b60008060006060848603121561324f5761324e612bd1565b5b600084013567ffffffffffffffff81111561326d5761326c612bd6565b5b61327986828701613208565b935050602084013567ffffffffffffffff81111561329a57613299612bd6565b5b6132a686828701612f03565b92505060406132b786828701612f48565b9150509250925092565b60008115159050919050565b6132d6816132c1565b82525050565b60006020820190506132f160008301846132cd565b92915050565b6000819050919050565b600061331c61331761331284612ca7565b6132f7565b612ca7565b9050919050565b600061332e82613301565b9050919050565b600061334082613323565b9050919050565b61335081613335565b82525050565b600060208201905061336b6000830184613347565b92915050565b6000806040838503121561338857613387612bd1565b5b600061339685828601612d64565b92505060206133a785828601612d64565b9150509250929050565b600281106133be57600080fd5b50565b6000813590506133d0816133b1565b92915050565b600080600080600060a086880312156133f2576133f1612bd1565b5b600061340088828901612d64565b955050602061341188828901612f48565b9450506040613422888289016133c1565b935050606061343388828901612d64565b925050608061344488828901612d64565b9150509295509295909350565b6000806040838503121561346857613467612bd1565b5b600083013567ffffffffffffffff81111561348657613485612bd6565b5b61349285828601613208565b92505060206134a385828601612f48565b9150509250929050565b60006134b882612ca7565b9050919050565b6134c8816134ad565b81146134d357600080fd5b50565b6000813590506134e5816134bf565b92915050565b60006020828403121561350157613500612bd1565b5b600061350f848285016134d6565b91505092915050565b613521816132c1565b811461352c57600080fd5b50565b60008135905061353e81613518565b92915050565b60006020828403121561355a57613559612bd1565b5b60006135688482850161352f565b91505092915050565b6000806040838503121561358857613587612bd1565b5b600083013567ffffffffffffffff8111156135a6576135a5612bd6565b5b6135b285828601612de2565b92505060206135c38582860161352f565b9150509250929050565b60006135d882613323565b9050919050565b6135e8816135cd565b82525050565b600060208201905061360360008301846135df565b92915050565b61361281612cc7565b82525050565b600060208201905061362d6000830184613609565b92915050565b600061363e82613323565b9050919050565b61364e81613633565b82525050565b60006020820190506136696000830184613645565b92915050565b600067ffffffffffffffff82111561368a57613689612bf1565b5b602082029050602081019050919050565b60006136ae6136a98461366f565b612c51565b905080838252602082019050602084028301858111156136d1576136d0612c98565b5b835b818110156136fa57806136e68882612f48565b8452602084019350506020810190506136d3565b5050509392505050565b600082601f83011261371957613718612bdb565b5b813561372984826020860161369b565b91505092915050565b60006020828403121561374857613747612bd1565b5b600082013567ffffffffffffffff81111561376657613765612bd6565b5b61377284828501613704565b91505092915050565b61378481613087565b82525050565b600060808201905061379f6000830187613609565b6137ac602083018661377b565b6137b96040830185613013565b6137c66060830184613013565b95945050505050565b60006020820190506137e46000830184613013565b92915050565b60006137f582612cc7565b9050919050565b613805816137ea565b811461381057600080fd5b50565b600081359050613822816137fc565b92915050565b600061383382612cc7565b9050919050565b61384381613828565b811461384e57600080fd5b50565b6000813590506138608161383a565b92915050565b600061387182612cc7565b9050919050565b61388181613866565b811461388c57600080fd5b50565b60008135905061389e81613878565b92915050565b600080600080608085870312156138be576138bd612bd1565b5b60006138cc87828801613813565b94505060206138dd87828801613851565b93505060406138ee87828801612f48565b92505060606138ff8782880161388f565b91505092959194509250565b60006040820190506139206000830185613013565b61392d6020830184613609565b9392505050565b60008151905061394381612d4d565b92915050565b600080604083850312156139605761395f612bd1565b5b600061396e85828601613934565b925050602061397f85828601613934565b9150509250929050565b600060408201905061399e6000830185613013565b6139ab6020830184613013565b9392505050565b6000815190506139c181612f31565b92915050565b60006139d282612cc7565b9050919050565b6139e2816139c7565b81146139ed57600080fd5b50565b6000815190506139ff816139d9565b92915050565b600061ffff82169050919050565b613a1c81613a05565b8114613a2757600080fd5b50565b600081519050613a3981613a13565b92915050565b600080600080600080600060e0888a031215613a5e57613a5d612bd1565b5b6000613a6c8a828b016139b2565b9750506020613a7d8a828b01613934565b9650506040613a8e8a828b016139f0565b9550506060613a9f8a828b01613934565b9450506080613ab08a828b01613934565b93505060a0613ac18a828b01613934565b92505060c0613ad28a828b01613a2a565b91505092959891949750929550565b600060208284031215613af757613af6612bd1565b5b6000613b0584828501613934565b91505092915050565b600082825260208201905092915050565b7f42616e616e61416c6c6f6361746f723a206e6f20746f6b656e7320746f20737460008201527f616b650000000000000000000000000000000000000000000000000000000000602082015250565b6000613b7b602383613b0e565b9150613b8682613b1f565b604082019050919050565b60006020820190508181036000830152613baa81613b6e565b9050919050565b6000604082019050613bc66000830185613609565b613bd36020830184613013565b9392505050565b600081519050613be981613518565b92915050565b600060208284031215613c0557613c04612bd1565b5b6000613c1384828501613bda565b91505092915050565b7f42616e616e61416c6c6f6361746f723a20496e646578206f7574206f6620626f60008201527f756e647300000000000000000000000000000000000000000000000000000000602082015250565b6000613c78602483613b0e565b9150613c8382613c1c565b604082019050919050565b60006020820190508181036000830152613ca781613c6b565b9050919050565b7f42616e616e61416c6c6f6361746f723a2077726f6e672073657474696e677300600082015250565b6000613ce4601f83613b0e565b9150613cef82613cae565b602082019050919050565b60006020820190508181036000830152613d1381613cd7565b9050919050565b7f42616e616e61416c6c6f6361746f723a2043616e27742073656e6420746f206e60008201527f756c6c2061646472657373000000000000000000000000000000000000000000602082015250565b6000613d76602b83613b0e565b9150613d8182613d1a565b604082019050919050565b60006020820190508181036000830152613da581613d69565b9050919050565b7f42616e616e61416c6c6f6361746f723a2042616e616e6120726f75746520776960008201527f746820746869732070696420616c726561647920657869737473000000000000602082015250565b6000613e08603a83613b0e565b9150613e1382613dac565b604082019050919050565b60006020820190508181036000830152613e3781613dfb565b9050919050565b600060a082019050613e536000830188613013565b613e606020830187613609565b613e6d604083018661377b565b613e7a6060830185613013565b613e876080830184613013565b9695505050505050565b7f4e6f7420616c6c6f776564000000000000000000000000000000000000000000600082015250565b6000613ec7600b83613b0e565b9150613ed282613e91565b602082019050919050565b60006020820190508181036000830152613ef681613eba565b9050919050565b600081905092915050565b50565b6000613f18600083613efd565b9150613f2382613f08565b600082019050919050565b6000613f3982613f0b565b9150819050919050565b7f4661696c656420746f207472616e73666572206e617469766500000000000000600082015250565b6000613f79601983613b0e565b9150613f8482613f43565b602082019050919050565b60006020820190508181036000830152613fa881613f6c565b9050919050565b7f4e487b7100000000000000000000000000000000000000000000000000000000600052601160045260246000fd5b6000613fe982612d43565b91507fffffffffffffffffffffffffffffffffffffffffffffffffffffffffffffffff820361401b5761401a613faf565b5b600182019050919050565b7f42616e616e61416c6c6f6361746f723a20706964206e6f7420666f756e640000600082015250565b600061405c601e83613b0e565b915061406782614026565b602082019050919050565b6000602082019050818103600083015261408b8161404f565b9050919050565b7f4e487b7100000000000000000000000000000000000000000000000000000000600052603260045260246000fd5b7f4f776e61626c653a206e6577206f776e657220697320746865207a65726f206160008201527f6464726573730000000000000000000000000000000000000000000000000000602082015250565b600061411d602683613b0e565b9150614128826140c1565b604082019050919050565b6000602082019050818103600083015261414c81614110565b9050919050565b7f496e697469616c697a61626c653a20636f6e747261637420697320616c72656160008201527f647920696e697469616c697a6564000000000000000000000000000000000000602082015250565b60006141af602e83613b0e565b91506141ba82614153565b604082019050919050565b600060208201905081810360008301526141de816141a2565b9050919050565b6000819050919050565b600060ff82169050919050565b600061421761421261420d846141e5565b6132f7565b6141ef565b9050919050565b614227816141fc565b82525050565b6000602082019050614242600083018461421e565b92915050565b7f4f776e61626c653a2063616c6c6572206973206e6f7420746865206f776e6572600082015250565b600061427e602083613b0e565b915061428982614248565b602082019050919050565b600060208201905081810360008301526142ad81614271565b9050919050565b7f546f6b656e732063616e27742062652073776570740000000000000000000000600082015250565b60006142ea601583613b0e565b91506142f5826142b4565b602082019050919050565b60006020820190508181036000830152614319816142dd565b9050919050565b60006060820190506143356000830186613609565b6143426020830185613609565b61434f6040830184613013565b949350505050565b600081519050919050565b600081905092915050565b6000819050602082019050919050565b600061438882613323565b9050919050565b6143988161437d565b82525050565b60006143aa838361438f565b60208301905092915050565b600081519050919050565b600081905092915050565b6000819050602082019050919050565b6143e581612d43565b82525050565b60006143f783836143dc565b60208301905092915050565b6000602082019050919050565b600061441b826143b6565b61442581856143c1565b9350614430836143cc565b8060005b8381101561446157815161444888826143eb565b975061445383614403565b925050600181019050614434565b5085935050505092915050565b600061447a8383614410565b905092915050565b60008083016000830151614496858261439e565b94505060208301516144a8858261446e565b9450508391505092915050565b60006144c18383614482565b905092915050565b6000602082019050919050565b60006144e182614357565b6144eb8185614362565b93506144f68361436d565b8060005b8381101561452757815161450e88826144b5565b9750614519836144c9565b9250506001810190506144fa565b5085935050505092915050565b600061454082846144d6565b915081905092915050565b7f42616e616e61416c6c6f6361746f723a204e6f20636f6e66696775726564207260008201527f6f75746520666f756e6400000000000000000000000000000000000000000000602082015250565b60006145a7602a83613b0e565b91506145b28261454b565b604082019050919050565b600060208201905081810360008301526145d68161459a565b9050919050565b7f42616e616e61416c6c6f6361746f723a206e6f7420656e6f756768207265776160008201527f7264730000000000000000000000000000000000000000000000000000000000602082015250565b6000614639602383613b0e565b9150614644826145dd565b604082019050919050565b600060208201905081810360008301526146688161462c565b9050919050565b6000819050919050565b600061469461468f61468a8461466f565b6132f7565b612d43565b9050919050565b6146a481614679565b82525050565b60006040820190506146bf6000830185613013565b6146cc602083018461469b565b9392505050565b60006146de82612d43565b91506146e983612d43565b9250828210156146fc576146fb613faf565b5b828203905092915050565b600060808201905061471c6000830187613609565b6147296020830186613609565b6147366040830185613013565b6147436060830184613013565b95945050505050565b60006080820190506147616000830187613013565b61476e6020830186613013565b61477b6040830185613609565b6147886060830184613013565b95945050505050565b7f496e697469616c697a61626c653a20636f6e7472616374206973206e6f74206960008201527f6e697469616c697a696e67000000000000000000000000000000000000000000602082015250565b60006147ed602b83613b0e565b91506147f882614791565b604082019050919050565b6000602082019050818103600083015261481c816147e0565b9050919050565b7f4e487b7100000000000000000000000000000000000000000000000000000000600052603160045260246000fd5b7f5361666545524332303a204552433230206f7065726174696f6e20646964206e60008201527f6f74207375636365656400000000000000000000000000000000000000000000602082015250565b60006148ae602a83613b0e565b91506148b982614852565b604082019050919050565b600060208201905081810360008301526148dd816148a1565b9050919050565b7f416464726573733a20696e73756666696369656e742062616c616e636520666f60008201527f722063616c6c0000000000000000000000000000000000000000000000000000602082015250565b6000614940602683613b0e565b915061494b826148e4565b604082019050919050565b6000602082019050818103600083015261496f81614933565b9050919050565b7f416464726573733a2063616c6c20746f206e6f6e2d636f6e7472616374000000600082015250565b60006149ac601d83613b0e565b91506149b782614976565b602082019050919050565b600060208201905081810360008301526149db8161499f565b9050919050565b600081519050919050565b60005b83811015614a0b5780820151818401526020810190506149f0565b83811115614a1a576000848401525b50505050565b6000614a2b826149e2565b614a358185613efd565b9350614a458185602086016149ed565b80840191505092915050565b6000614a5d8284614a20565b915081905092915050565b600081519050919050565b6000614a7e82614a68565b614a888185613b0e565b9350614a988185602086016149ed565b614aa181612be0565b840191505092915050565b60006020820190508181036000830152614ac68184614a73565b90509291505056fea26469706673582212206c8f9db86e6f6d357bcb6a25c5185c003f9a3c2d545f98b7c9fcb0cb82b7b35e64736f6c634300080f0033",
  "linkReferences": {},
  "deployedLinkReferences": {}
}